:1000000000000420C1010000ED010000ED0100002E
:10001000ED010000ED010000ED010000ED01000028
:10002000ED010000ED010000ED010000ED01000018
:10003000ED010000ED010000ED010000ED01000008
:10004000ED010000ED010000ED010000ED010000F8
:10005000ED010000ED010000ED010000ED010000E8
:10006000ED010000ED010000ED010000ED010000D8
:10007000ED010000ED010000ED010000ED010000C8
:10008000ED01000045450000ED010000ED0100001C
:10009000ED010000ED010000994C0000ED010000B1
:1000A000ED010000ED010000ED010000E947000056
:1000B000ED010000ED010000ED010000ED01000088
:1000C000ED010000ED010000ED010000ED01000078
:1000D000ED010000ED010000ED010000ED01000068
:1000E000ED010000ED010000ED010000ED01000058
:1000F000ED010000ED010000ED010000ED01000048
:10010000ED010000ED010000ED01000010B5054C0F
:10011000237833B9044B13B10448AFF300800123B3
:10012000237010BDEC01002000000000E8880000F2
:1001300008B5034B1BB103490348AFF3008008BD6A
:1001400000000000F0010020E8880000154B002BA3
:1001500008BF134B9D46A3F5803A00218B460F46FE
:100160001348144A121A05F01AFE0F4B002B00D048
:1001700098470E4B002B00D0984700200021040028
:100180000D000D48002802D00C48AFF3008005F0A8
:10019000D7FD2000290005F017F905F0BDFD00BFCF
:1001A0000000080000000420000000000000000023
:1001B000EC010020B8040020000000000000000056
:1001C000064880470649074A074B9A42BEBF51F886
:1001D000040B42F8040BF8E7FFF7B8FFCD0200006C
:1001E000F488000000000020EC010020FEE700BFC2
:1001F00080B582B000AF00F025F878600A4BD3F8E4
:1002000008311B0AC3F308033B603B6801337A687B
:10021000B2FBF3F37B60054A7B6813607B6818468A
:100220000837BD4680BD00BF00400E4008000020DA
:1002300080B400AF024B1846BD465DF8047B7047A2
:10024000005A620280B483B000AF164BD3F89430EA
:1002500003F00703032B08D0042B02D0022B08D095
:100260000BE0114B1B687B600BE04FF400437B609D
:1002700007E00E4B1B687B6003E00D4B1B687B6047
:1002800000BF084BD3F800311B0A03F01F030133F2
:100290007A68B2FBF3F318460C37BD465DF8047B71
:1002A000704700BF00400E40040000200000002006
:1002B0000C00002080B400AF034B1B681846BD46FD
:1002C0005DF8047B704700BF0000002080B400AFE1
:1002D000074B084A9A60064BD3F88830044A43F427
:1002E0007003C2F8883000BFBD465DF8047B7047DC
:1002F00000ED00E00000000080B400AF4FF40043C8
:100300001846BD465DF8047B704780B400AF4FF4DB
:100310007A731846BD465DF8047B704780B400AF21
:10032000034B1B681846BD465DF8047B704700BF51
:100330000400002080B483B000AF78603960FEE72D
:1003400080B487B000AFF860B9607A60FB6803F1F1
:100350000473DA00BB6813449B007B617B697A6895
:100360001A6000BF1C37BD465DF8047B704780B43F
:1003700085B000AF786039607B6803F10473DA0000
:100380003B6813449B00FB60FB681B6818461437EE
:10039000BD465DF8047B704780B582B000AF7860E1
:1003A0007B681F2B04D940F64E210548FFF7C2FF9A
:1003B00001227B6802FA03F318460837BD4680BD68
:1003C000A880000080B500AF00BF12210348FFF7EE
:1003D000CEFF0346002BF8D100BF80BD04300E4095
:1003E00080B500AFFFF7EEFF034B5B681B0C03F01B
:1003F0000303DBB2184680BD00300E4080B584B0E8
:1004000000AF78600123FB607B68124A934204D8F6
:100410000023FB600023BB6008E07B680E4A934228
:1004200002D80123BB6001E00223BB60FA681021FF
:100430000A48FFF785FF094BD3F8003123F080729B
:10044000BB681B0605491343C1F8003100BF1037D4
:10045000BD4680BD0048E8010090D00300400E403A
:1004600080B483B000AF054B1B687B607B68184687
:100470000C37BD465DF8047B704700BF10000020BC
:1004800080B582B000AFFFF7DDFE7860064BD3F891
:1004900000311B0A03F01F0301337A6802FB03F3E8
:1004A00018460837BD4680BD00400E4080B582B07A
:1004B00000AF0F4800F066FB0346FB70FB78072B8C
:1004C00005D0092B07D1FFF7BDFE78600BE0FFF7E1
:1004D000C7FF786007E000237B6040F69A2105485B
:1004E000FFF728FF00BF7B6818460837BD4680BD70
:1004F00006000E000081000080B584B000AF786077
:100500007B68002B1CD1204800F03CFB0346FB72AB
:1005100000BFFB7A013B072B28D801A252F823F039
:100520004F0500006D0500006D0500005D05000031
:100530006D0500006D050000550500006505000013
:1005400040F6BA211148FFF7F5FE002317E000231B
:10055000FB6013E0FFF784FFF8600FE0FFF7AAFEEF
:10056000F8600BE0FFF78CFFF86007E00023FB600A
:1005700040F6D1210548FFF7DDFE00BFFB681846B5
:100580001037BD4680BD00BFB800320000810000BA
:1005900080B584B000AF78603960204B5B6803F0B1
:1005A0004073FB600023BB6012E01D4ABB68DB00A8
:1005B00013441A793B68DBB29A4206D1184ABB68E9
:1005C00052F833307A689A4206D9BB680133BB606F
:1005D000BB68042BE9D900E000BFBB68052B07D13D
:1005E0000323FB6040F6D8310E48FFF7A3FE05E079
:1005F0000B4ABB68DB0013445B79FB60FB681B069E
:10060000FB60064B5B6823F040720449FB681343B0
:100610004B6000BF1037BD4680BD00BF00000E40DC
:10062000148100000081000080B582B000AF0E4B45
:100630001B6C002B14BF01230023FB710A4B41F6F6
:1006400071321A64FFF7F4FD034600211846FFF7E4
:100650009FFFFB79002B02D0034B00221A6400BFDE
:100660000837BD4680BD00BF00000E4080B584B095
:1006700000AF786039600C4B1B6C002B14BF01235A
:100680000023FB73084B41F671321A6439687868AD
:10069000FFF77EFFFB7B002B02D0034B00221A6486
:1006A00000BF1037BD4680BD00000E4080B487B04B
:1006B00000AF78600F237B617B6803333B617B690C
:1006C000FB60FA683B69934228BF1346BB60BB6876
:1006D0001B07BB60BB6818461C37BD465DF8047B32
:1006E0007047000080B400AF044B5B6A1B0903F045
:1006F00003031846BD465DF8047B704700400E407A
:1007000080B483B000AF7860074B5B6A23F030029F
:100710007B681B01044913434B6200BF0C37BD4685
:100720005DF8047B704700BF00400E4090B585B077
:1007300000AF78600023BB607B683C4A93420BD0DB
:100740003B4A934208D03B4A934205D040F6C94108
:100750003948FFF7EFFD00E000BF786800F012FABB
:100760000346FB607B68314A93420CD0304A934287
:1007700010D0304A934214D1304BD3F8803003F07C
:100780000703FB6013E02D4BD3F8843003F007031D
:10079000FB600CE0294BD3F8883003F00703FB60C3
:1007A00005E040F6F8412448FFF7C4FD00BFFB68B0
:1007B000042B2ED801A252F823F000BF0D08000030
:1007C000D1070000D9070000E9070000E107000099
:1007D000FFF792FDB86024E0FFF7A0FDB86020E0CD
:1007E000FFF793FDB8601CE0FFF702FD0446134BD2
:1007F000D3F800311B0E03F0010301331846FFF755
:10080000CBFD0346B4FBF3F3BB600AE00023BB60FF
:1008100007E00023BB6040F64A510748FFF78AFD16
:1008200000BFBB6818461437BD4690BD03002000CA
:100830000500240002001E000081000000400E4060
:1008400080B483B000AF78600A4BD3F8443103F032
:100850000103002B08D100BF064BD3F840217B6871
:100860001340002BF8D100E000BF0C37BD465DF807
:10087000047B704700400E4080B400AF00BFBD460F
:100880005DF8047B704780B400AF00BFBD465DF8E3
:10089000047B704780B586B000AF78600B46FB7074
:1008A00000233B617B681B0A03F00F03013B092B0C
:1008B00032D801A252F823F0E1080000ED08000050
:1008C0001909000019090000E7080000F3080000FA
:1008D000FD080000190900000709000013090000C5
:1008E0001A4B7B611EE01A4B7B611BE0194B7B614D
:1008F00018E0194B7B6101233B6113E0174B7B61CF
:1009000010233B610EE0164B7B614FF480333B615B
:1009100008E0144B7B6105E041F23C111248FFF7FF
:1009200009FD10E07B681B0B03F01F03FB603B69B4
:10093000002B02D03869FFF783FFFB781A46F9686D
:100940007869FFF7FDFC1837BD4680BD00400E40BA
:10095000B0400E40C0400E40E0400E40E8400E4027
:10096000F0400E4050410E400081000080B584B040
:1009700000AF78607B6803F47813B3F5A01F7DD0D7
:10098000B3F5A01F1AD8B3F5202F50D0B3F5202F00
:1009900008D8B3F5003F4ED0B3F5802F38D0002BE8
:1009A00032D0D8E0B3F5602F00F0C880B3F5801FD7
:1009B00000F0C880B3F5402F4CD0CCE0B3F5001F59
:1009C00000F08B80B3F5001F0AD8B3F5D01F00F0FC
:1009D0008980B3F5F01F4CD0B3F5B01F5CD0BAE0FE
:1009E000B3F5381F6AD0B3F5381F04D8B3F5101F1C
:1009F00000F09F80AFE0B3F5401F00F08680B3F5B4
:100A0000481F00F0A380A6E0FFF71CFCF860AAE0F6
:100A1000FFF718FCF860564BD3F80C311B0AC3F3F0
:100A200008030133FA68B2FBF3F3FB609BE0FFF7C6
:100A300009FCF86097E0FFF705FCF8604C4BD3F831
:100A400008311B0AC3F308030133FA68B2FBF3F35E
:100A5000FB6088E0FFF7F6FBF860454BD3F81431F4
:100A60001B0A03F01F030133FA68B2FBF3F3FB60C8
:100A700079E04048FFF75AFEF86074E03E48FFF71F
:100A800055FEF8603A4BD3F8303103F00303FA68AF
:100A900022FA03F3FB6066E03648FFF747FEF86092
:100AA000334BD3F8203103F00F031846FFF774FCE3
:100AB0000246FB68B3FBF2F3FB6054E02D48FFF7FE
:100AC00035FEF8602A4BD3F820311B0903F00303ED
:100AD000FA6822FA03F3FB6045E02848FFF726FE98
:100AE000F86040E02548FFF721FEF860204BD3F87E
:100AF00028311B0903F003031846FFF74DFC02469B
:100B0000FB68B3FBF2F3FB602DE01C48FFF70EFE21
:100B1000F860174BD3F828311B0A03F003030433A2
:100B20001846FFF739FC0246FB68B3FBF2F3FB60A3
:100B300019E01148FFF7FAFDF86014E0FFF7B6FC82
:100B4000F86010E0FFF78CFCF8600CE00020FFF785
:100B5000D3FCF86007E00023FB6041F26221084803
:100B6000FFF7E8FB00BFFB6818461037BD4680BDA5
:100B700000400E4002001E0005002400030020007B
:100B80000081000080B584B000AF78600123FB7362
:100B90007B6803F00F03BB60BB68013B072B00F2CF
:100BA000C48001A252F823F0C90B00001F0C000002
:100BB0004F0C00002B0D0000950C0000C50C000030
:100BC0002B0D0000E90C00005E4BD3F8943003F0CD
:100BD0000703023B052B1ED801A252F823F000BFE9
:100BE000050C0000FF0B0000F90B00000B0C0000CF
:100BF000170C0000110C00000223FB730EE003230E
:100C0000FB730BE00423FB7308E00B23FB7305E08D
:100C10000C23FB7302E00523FB7300BF8DE0494BFF
:100C2000D3F8803003F00703022B06D0042B07D043
:100C3000012B08D10323FB7308E00223FB7305E0BB
:100C40000A23FB7302E00123FB7300BF75E03D4BF9
:100C5000D3F8843003F00703013B032B16D801A21D
:100C600052F823F0750C00007B0C0000870C00008C
:100C7000810C00000323FB730BE00223FB7308E0ED
:100C80000A23FB7305E00623FB7302E00123FB73D9
:100C900000BF52E02B4BD3F8883003F00703022B40
:100CA00006D0042B07D0012B08D10323FB7308E0E7
:100CB0000223FB7305E00A23FB7302E00123FB73AD
:100CC00000BF3AE01F4B1B6F03F00103002B04D061
:100CD000012B05D10923FB7305E00723FB7302E019
:100CE0000123FB7300BF28E0164BD3F85C3103F0FF
:100CF0003003102B0CD0102B02D8002B05D010E0A5
:100D0000202B08D0302B09D00BE00123FB730BE024
:100D10000723FB7308E00423FB7305E00823FB7340
:100D200002E00123FB7300BF07E00023FB7341F2E5
:100D300076610548FFF7FEFA00BFFB7B18461037C7
:100D4000BD4680BD00400E400081000080B58AB0E5
:100D500000AF78600B46FB7003237B62032387F8A8
:100D600023300023BB6100237B617B68112B19D1E9
:100D7000FB78042B03D1FFF79DFA78610BE0FB7839
:100D8000052B08D100F0F8F90246BB4B9A4202D974
:100D900000F0F2F978617B69002B03D000217869BB
:100DA00000F070FF7B6803F00F033B613B69013B80
:100DB000072B00F2578101A252F823F0DD0D00004D
:100DC000E90E00001B0F000065100000FD0E000082
:100DD000BD0F000065100000E70F0000FB78023B2C
:100DE0000A2B49D801A252F823F000BF190E0000C7
:100DF000250E0000310E0000430E0000790E0000A9
:100E0000790E0000790E0000790E00006D0E0000D2
:100E1000550E0000610E000004237B62002387F85A
:100E200023302FE003237B62012387F8233029E05E
:100E300002237B62022387F823309048FFF7DEFA13
:100E400020E001237B62032387F823308B48FFF7E0
:100E5000D5FA17E005237B62032387F8233011E0DE
:100E600007237B62062387F823300BE041F23471BD
:100E70008348FFF75FFAFBE041F239718048FFF7E2
:100E800059FAF5E097F82330062B06D097F823306F
:100E900001220121184600F0BDFAFFF7C5FBFFF75C
:100EA000EBFC7B69002B01D0FFF78CFA754A7B6A5B
:100EB00053677548FFF75AFD03461846FFF79EFA39
:100EC000FFF796F9F860FFF78BFA03461946F868C2
:100ED000FFF7CCFB7B69002B03D10121002000F040
:100EE000D1FEFFF7D0FCC3E0684BBB61FB78062B5B
:100EF00004D141F275716248FFF71CFABB69002BFF
:100F000001D0BB6900E0624BBB61FB78062B04D1CA
:100F100041F289715A48FFF70DFABB69002B01D0E5
:100F2000BB6900E05B4BBB61FB78013B092B3BD805
:100F300001A252F823F000BF610F0000670F00000C
:100F4000770F0000A90F0000A90F0000870F000015
:100F5000A90F0000A90F0000A90F0000A30F0000B7
:100F60000023FB6126E001220121002000F052FA5B
:100F70000223FB611EE001220121012000F04AFA58
:100F80000123FB6116E0FFF733F903461846FFF72C
:100F900035FA012202214048FFF7D2F90323FB6111
:100FA00008E00423FB6105E041F2AE713448FFF72D
:100FB000C1F95DE0BB69FA691A6059E0FB78072B5B
:100FC00002D0092B04D007E02E4B00221A6709E05B
:100FD0002C4B01221A6705E041F638012848FFF73B
:100FE000A9F945E044E0FB78013B072B28D801A292
:100FF00052F823F0151000004110000041100000CD
:101000002B10000041100000411000001B100000D8
:101010003B1000000023FB6118E0012201210420A5
:1010200000F0F8F90123FB6110E001220121022008
:1010300000F0F0F90223FB6108E00323FB6105E007
:1010400041F696010E48FFF775F911E00D4BD3F804
:101050005C3123F03002FB691B010A491343C1F8DC
:101060005C3105E041F66D110548FFF763F900BFFB
:101070002837BD4680BD00BF002D31010148E80181
:101080000081000000400E4000250A0080400E4014
:1010900088400E4084400E40B0400E4080B483B083
:1010A00000AF78607B68294A93422FD0274A934249
:1010B00010D8274A934221D0254A934203D8254A83
:1010C00093421BD03AE0244A934217D0234A9342DA
:1010D00018D033E0224A934224D0214A934206D8C2
:1010E000204A934216D0204A934217D026E01F4A46
:1010F00093421BD01E4A93421CD01FE01D4BD3F8D5
:1011000080301CE01B4BD3F88C3018E0194BD3F81F
:10111000983014E0174BD3F89C3010E0154BD3F8FF
:10112000A0300CE0134BD3F8A83008E0114BD3F8F3
:10113000AC3004E00F4BD3F8B03000E00023184689
:101140000C37BD465DF8047B704700BF405DC600AC
:1011500080841E0040420F0000093D00C0CF6A009D
:1011600080BA8C010024F400C0EA21010048E801A3
:1011700080D54302B081E00F80B400AF034B1B6801
:101180001846BD465DF8047B704700BF0C00002088
:1011900080B586B000AF78607868FFF77FFF786130
:1011A0007B69002B03D07B69B3F1FF3F04D141F68B
:1011B000FF214F48FFF7BEF84E4B1B683B614D4A7D
:1011C0007B6813601120FFF7DDFC0346052B03D17C
:1011D000FFF72AFAFFF750FB00BF18214648FFF738
:1011E000C6F80346002BF8D17B69B3F1FF3F04D169
:1011F00041F610313E48FFF79DF87B683F4A934225
:101200000DD03F4A934211D03E4A934200D012E0A3
:101210007B6923F0C06343F080637B610BE07B69F3
:1012200023F0C06343F000737B6104E07B6923F02B
:10123000C0637B6100BF1120FFF7A4FC0346052BB0
:1012400002D17868FFF7DAF87A683B699A4203D9E5
:101250000121786800F016FD2B4A7B69136111208B
:10126000FFF790FC0346052B26D1FEF7C1FFF8607F
:10127000FA687B689A4204D941F63C311C48FFF772
:1012800059F81C4B1B68FA689A4204D941F63D3163
:101290001748FFF74FF8174B1B687A689A4204D03B
:1012A00041F63E311248FFF745F8FFF799F803463B
:1012B0001946F868FFF7DAF91448FFF757FB0346B9
:1012C0001846FFF79BF87A683B699A4203D80121D8
:1012D000002000F0D7FC1120FFF754FC0346052B3B
:1012E00001D1FFF7D0FA00BF1837BD4680BD00BF5F
:1012F000008100000C00002040410E4080841E0050
:1013000000093D0040420F0000400E4000250A0049
:1013100090B585B000AF78601120FFF733FC03462D
:10132000042B04D141F61D413748FFF703F8012291
:101330000021022000F06EF87B685B78002B07D15B
:101340007B689B78002B03D17B68DB78002B04D073
:1013500041F65B412C48FEF7EDFF0023FB607B6804
:101360001B7C012B04D14FF4E3512748FEF7E2FF29
:101370007B681B7C022B01D10123FB60234B5B6A42
:1013800023F001022149FB6813434B627B681B7801
:101390001A4608211E48FEF7D3FF7B689B88DB02B4
:1013A0007A68527A1146194A0B43D362174B1B6B6A
:1013B00003F07F627B68DB88DB0213437A68927AF2
:1013C0001A437B681B7ADB0142EA03047B681B7AC1
:1013D0001846FFF76BF903460C4A234313637B68F7
:1013E0005B7B1A037B689B7B1B0113437A68D27B70
:1013F0001A437B681B7B1B04044913434B6300BFE8
:101400001437BD4690BD00BF0081000000400E4073
:1014100024400E4080B588B000AF0346FB710B46F8
:10142000BB7113467B71FB79042B3CD801A252F8A7
:1014300023F000BF911400007F1400005B14000033
:10144000491400006D14000001237B6102233B61FD
:101450000123FB610023BB612BE004237B61082394
:101460003B610323FB610223BB6122E010237B610C
:1014700020233B610523FB610423BB6119E040236A
:101480007B6180233B610723FB610623BB6110E086
:101490004FF480737B614FF400733B610923FB6160
:1014A0000823BB6105E041F665514548FEF742FF60
:1014B00083E0BB79002B64D00023FB73FB79022B04
:1014C0001AD1FFF70FF90346002B15D13D4BDB6B0B
:1014D00003F48063002B04D141F674513848FEF7C1
:1014E00029FF0123FB73384B5B6A03F00103012BD7
:1014F00002D10120FFF704F9334A7B69136600BF6C
:10150000B9693248FEF733FF0346002BF8D07B79E8
:10151000002B52D000BFF9692C48FEF728FF034684
:10152000002BF8D0FB79022B47D1FB7B002B44D05A
:10153000254B5B6A03F00103012B05D10122202119
:10154000022000F087F903E00021022000F028F9D2
:10155000022000F03DF8B860012200210220FFF7D0
:1015600059FFB968022000F071F8174A7B691366C9
:1015700000BFF9691548FEF7FAFE0346002BF8D0C4
:101580001BE0114A3B69136600BF0F4BD3F8903044
:101590000121BA6901FA02F21340002BF5D17B79DF
:1015A000002B0AD000BF084BD3F890300121FA6914
:1015B00001FA02F21340002BF5D12037BD4680BD61
:1015C0000081000000300E4000400E4090400E4070
:1015D00080B584B000AF0346FB71FB79013B032B60
:1015E00023D801A252F823F0F91500001D160000BF
:1015F0000516000011160000124B1B6AC3F3080306
:10160000FB601AE00F4B1B6903F07F03FB6014E0E3
:101610000C4B9B6903F07F03FB600EE0094BD3F892
:101620009C30C3F30A03FB6007E00023FB6041F634
:10163000F1510548FEF77EFE00BFFB6818461037E3
:10164000BD4680BD00400E400081000080B584B0E2
:1016500000AF03463960FB71FB79013B032B00F2BD
:101660008C8001A252F823F0791600002D1700009B
:10167000B9160000F31600003B68B3F5007F04D3F1
:1016800041F617614248FEF755FE3B68C3F3080375
:101690003B6000BF1A213F48FEF769FE0346002B5E
:1016A000F8D13D4B1B6A23F4FF7323F001033A4941
:1016B0003A6813430B6266E03B687F2B04D941F61E
:1016C00024613348FEF736FE3B6803F07F033B603E
:1016D00000BF18212F48FEF74AFE0346002BF8D121
:1016E0002D4B1B6923F07F022B493B6813430B6191
:1016F00049E03B687F2B04D941F63F612448FEF75F
:1017000019FE3B6803F07F033B6000BF19212148AD
:10171000FEF72DFE0346002BF8D11F4B9B6923F0EB
:101720007F021D493B6813438B612CE01A4BD3F8B1
:10173000903003F00403002B04D041F64E611448AE
:10174000FEF7F8FD144B5B6A23F03003124A43F0B6
:10175000100353623B68DB0903F00F031846FEF7E2
:10176000A5FFF8600C4B1A6B0C4B13403A681A43F8
:101770000949FB6813430B6305E041F668610448BF
:10178000FEF7D8FD00BF00BF1037BD4680BD00BFCB
:101790000081000040410E4000400E4000F8FF0F65
:1017A00080B584B000AF03460A46FB711346BB7197
:1017B000FB79022B04D04FF4F4512348FEF7BAFD15
:1017C000FEF790FF0346002B03D14FF44003FB606C
:1017D0001BE0BB79202B04D0302B0AD0002B04D087
:1017E0000BE04FF40003FB600FE04FF44003FB609D
:1017F0000BE04FF44003FB6007E0144BFB6041F645
:101800009B611148FEF796FD00BF00BF104BD3F857
:101810009020FB681340FA689A42F7D1FB6803F402
:101820008003002B0AD00A4BD3F8A03003F4806366
:10183000002B14BF01230023DBB200E00123184674
:101840001037BD4680BD00BF00810000FF33E107B7
:1018500000400E4080B582B000AF0346FB710B46DE
:10186000BB7113467B71FB79022B15D1BB79002B21
:1018700007D00F4B4FF48062C3F8A8200C4ABB7905
:1018800053667B79002B0DD0BA79FB791146184647
:10189000FFF786FF034607E041F6D1610548FEF7F2
:1018A00049FD00E000BF012318460837BD4680BD52
:1018B00000400E400081000080B500AFFEF798FCAC
:1018C00000BF80BD80B487B000AFF860B9607A60B7
:1018D000FB6803F10473DA00BB6813449B007B616F
:1018E0007B697A681A6000BF1C37BD465DF8047BCF
:1018F000704780B485B000AF786039607B6803F1D1
:101900000473DA003B6813449B00FB60FB681B68B0
:1019100018461437BD465DF8047B704780B500AFAC
:1019200000BF12210348FFF7E4FF0346002BF8D164
:1019300000BF80BD04300E4080B500AFFFF7EEFF62
:10194000034B5B681B0C03F00303DBB2184680BD3E
:1019500000300E4080B483B000AF7860044A7B68EA
:10196000D36200BF0C37BD465DF8047B704700BFF3
:1019700000300E4080B400AF034B5B6A1846BD4692
:101980005DF8047B704700BF00300E4080B400AFAC
:10199000044B0022C3F8802100BFBD465DF8047BE4
:1019A000704700BF00400E4080B400AF044B45F6C6
:1019B0000E02C3F8802100BFBD465DF8047B70476E
:1019C00000400E4080B483B000AF0346FB71FB794A
:1019D000C3F10203102202FA03F318460C37BD4686
:1019E0005DF8047B7047000090B585B000AF0346FA
:1019F000FB71FB79002B1BD1484BD3F89030484A40
:101A000013601120FFF7BEF803461A46454B1A70C3
:101A1000FFF784FF444B5B681B0CDBB203F003034E
:101A2000DAB2424B1A703D4B1B69414A136070E0B9
:101A30003E4B1B783C4C1846FFF7C4FF034623611E
:101A4000364BD3F8803103F00103FB60FFF7ACFFA6
:101A50000023BB60324B1B6803F00103BA681343D9
:101A6000BB602F4B1B6803F01003BA681343BB60C5
:101A70002B4B1B6803F04003BA681343BB60284B31
:101A80001B6803F00403BA681343BB60244B1B6854
:101A900003F48073BA681343BB60204ABB681366C3
:101AA000FFF73CFF204B1B6803F01003002B18D0FE
:101AB00000BF1A4BD3F8403103F08073002BF8D1EC
:101AC000164A1B4B1B681361164B1B78052B08D15C
:101AD000184B1C68FFF730FF034619462046FEF7F7
:101AE000C5FD104B1B78052B05D00E4B1B781946F6
:101AF0001120FFF72BF90A4B1B6803F00103002BA1
:101B000002D1064B02221A66FB68002B01D0FFF7B8
:101B10003DFF00BF1437BD4690BD00BF00400E40E2
:101B2000140200201802002000300E40190200208C
:101B30001C0200200C00002080B582B000AFFFF72F
:101B4000EDFE104B1B681B0A03F003037B600D4B7B
:101B50005B681B0C03F003033B607A683B689A42A6
:101B600006D9084B1B68074A43F01003136005E0D1
:101B7000044B1B68034A23F01003136000BF0837AF
:101B8000BD4680BD00300E4080B483B000AF0C4B2A
:101B90001B6803F01003002B0BD00A4B1B691B0CB6
:101BA00003F01F037B607B68082B02D1064B074ABA
:101BB0001A6000BF0C37BD465DF8047B704700BF5C
:101BC00000300E4000400E400C000020C0EA210111
:101BD00080B582B000AF0346FB71FB79002B02D0C9
:101BE0000020FFF701FFFFF7A7FF0B4B1B690A4A15
:101BF00043F00403136130BFFB79002B03D00120B5
:101C0000FFF7F2FE03E0FFF7BFFFFFF755FE00BF4F
:101C10000837BD4680BD00BF00ED00E080B584B050
:101C200000AF0346FB71FB79002B02D00020FFF7C9
:101C3000DBFEFFF781FF114BD3F8803103F0010386
:101C4000FB60FFF7B1FEFB68002B01D0FFF79EFEA3
:101C50000B4B1B690A4A43F00403136130BFFB7945
:101C6000002B03D00120FFF7BFFE03E0FFF78CFF3E
:101C7000FFF722FE00BF1037BD4680BD00400E407A
:101C800000ED00E080B584B000AF78600B46FB70DB
:101C9000154BD3F800311B0A03F01F030133BB605F
:101CA0007B68002B07D1FEF7CDFA0246BB6802FB2A
:101CB00003F3FB6001E07B68FB600C4B1B78002B9F
:101CC00009D0FB680A4A934205D8FB7819460220DE
:101CD00000F010F804E0FB781946002000F00AF844
:101CE00000BF1037BD4680BD00400E4010020020EE
:101CF000FF2C310190B587B000AF03460A46FB7157
:101D00001346BB711F4BD3F800311B0A03F01F03AE
:101D100001337B61FEF796FA3861FFF70DFE03464B
:101D2000FB73FA7BFB799A4228D03B697A6902FB04
:101D300003F3BB60FB79022B0CD1BB68124A9342C0
:101D400004D940F2B3411148FEF7F4FA0221386990
:101D5000FEF78CFC0E4CFB791846FFF733FE03466A
:101D60002361BB79002B01D0FFF7D8FDFB79002B55
:101D700005D100213869FEF779FC00E000BF1C376F
:101D8000BD4690BD00400E40002D31013C81000059
:101D900000300E4080B582B000AF78600E4B1B68FB
:101DA00023F440727B685B781B020B4913430B6082
:101DB0007B685B78022B0AD1084B5B6A03F0005307
:101DC000002B04D040F2ED410548FEF7B3FA00BF06
:101DD0000837BD4680BD00BF00300E4000400E40B9
:101DE0003C81000080B400AF01231846BD465DF879
:101DF000047B704780B582B000AF0C4BDB6E0B4AA2
:101E000043F08073D36600210948FFF772FD7860C4
:101E10007B68002B03D0042000F040FD02E000208E
:101E200000F03CFD00BF0837BD4680BD00300E40CD
:101E30004C300E4080B58AB000AF01237B627B6AD4
:101E40001B053B62404BDB6C1B0A03F00F03FB617D
:101E50003E4B1B881A463D4B1B8828335B081344B6
:101E600003F12801FB695A1C13469B001344B1FB84
:101E7000F3F3013BBB61BB697B6107233B613A69BB
:101E80007B69934228BF1346BB61BB691B06BB61DC
:101E9000BB6923F0E063002B04D040F2CE612C48F4
:101EA000FEF748FA3B6A23F4E003002B04D040F22B
:101EB000CF612748FEF73EFA234BDB6C23F0EE623E
:101EC000B9693B6A0B4320491343CB64214BB3F9F7
:101ED0000030002B33DB1F4BB3F90030FB81FA8954
:101EE000FB8928335B08134403F12802FB690133A3
:101EF0005900FB6901335B080B44B2FBF3F3BB6091
:101F0000BB687B6007233B603A687B68934228BFCD
:101F10001346BB60BB681B01BB60BB6823F070034A
:101F2000002B04D040F2E7610948FEF703FA064BA4
:101F30001B6D23F070020449BB6813430B6500BF9F
:101F40002837BD4680BD00BF00300E40080200208B
:101F50003C8100000C02002080B483B000AF7860A8
:101F60000B467B807B689AB2054B1A80054A7B88BA
:101F7000138000BF0C37BD465DF8047B704700BF7F
:101F8000080200200C02002080B582B000AF03469A
:101F9000FB71FB79002B02D0012B04D007E0094B29
:101FA000094A9A6509E0074B084A9A6505E040F23C
:101FB00013710748FEF7BEF900BF00BF0837BD46E2
:101FC00080BD00BF00300E4077402057372110B74A
:101FD0003C81000080B584B000AF0346FB710B4626
:101FE000BB7113467B71334BD3F88031FB60BB79F7
:101FF000032B1DD801A252F823F000BF0D200000D2
:10200000152000001F20000029200000FB68DBB223
:10201000FB6014E0FB681B0ADBB2FB600FE0FB68AF
:102020001B0CDBB2FB600AE0FB681B0EFB6006E0EA
:1020300040F257712048FEF77DF9002336E07B79A6
:10204000002B16D1FB681B03FB60FB6823F4704375
:10205000002B06D040F262711748FEF76BF900239F
:1020600024E0164BDB6E23F470421449FB681343E3
:10207000CB667B79012B18D1FB681B03FB60FB68E7
:1020800023F47043002B06D040F26E710A48FEF72D
:1020900051F900230AE0094BD3F8EC3023F47042E5
:1020A0000649FB681343C1F8EC300123184610378A
:1020B000BD4680BDB081E00F3C81000000300E4085
:1020C00080B588B000AFF860B96011461A460B467B
:1020D000FB711346BB710023FB610023BB61BB791D
:1020E0001B02FA79002A01D0012200E000221343EA
:1020F0007B617B6940F2011293422AD0B3F5817F64
:1021000007D2012B19D0012B47D3B3F5807F50D0D4
:1021100073E040F20122934227D040F20122934221
:1021200003D8B3F5007F50D067E0B3F5407F58D0B7
:1021300040F20132934224D05FE0384BD3F874313F
:10214000FB61FB691B0ADBB2BB61FB69DBB2FB61B4
:1021500059E0324BD3F87431FB61FB691B0EBB6154
:10216000FB691B0CDBB2FB614DE02C4BD3F87831E3
:10217000FB61FB691B0ADBB2BB61FB69DBB2FB6184
:1021800041E0264BD3F87831FB61FB691B0EBB6144
:10219000FB691B0CDBB2FB6135E0204BD3F86C31E3
:1021A000FB61FB691B0ADBB2BB61FB69DBB2FB6154
:1021B00029E01A4BD3F86C31FB61FB691B0EBB6144
:1021C000FB691B0CDBB2FB611DE0144BD3F87031D3
:1021D000FB61FB691B0ADBB2BB61FB69DBB2FB6124
:1021E00011E00E4BD3F87031FB61FB691B0EBB6134
:1021F000FB691B0CDBB2FB6105E040F2D3710848C0
:10220000FEF798F800BFFB68FA691A60BB68BA6904
:102210001A6000BF2037BD4680BD00BFB081E00F0F
:102220003C81000080B584B000AF0346FB7100BF65
:10223000364B9B6F03F00103002BF9D1334B1B6C22
:1022400003F00303FB60FB68002B04D001220D2187
:102250002F48FFF737FBFB68DBB2FA799A4208D1C7
:10226000FB79002B4ED100220D212948FFF72AFBD4
:1022700048E0FB68032B02D0FB68002B20D1FB79E0
:10228000022B02D0FB79012B1AD14FF40020FFF76B
:1022900061FB00BF1D4B9B6F03F00103002BF9D1C5
:1022A0001A4B1B6C23F00303184A43F00103136419
:1022B00000BFFFF75FFB034603F40023002BF8D0B9
:1022C00000BF124B9B6F03F00103002BF9D10F4BA2
:1022D0001B6C23F00302FB790C4913430B6400BF12
:1022E0000A4B9B6F03F00103002BF9D1FB79002B04
:1022F00014BF01230023DBB21A460D210448FFF767
:10230000E1FA00E000BF1037BD4680BD00300E404E
:1023100054300E4080B584B000AF78606B4B022221
:102320009A636A4B9B6B03F00F03022B06D040F6B7
:102330006D016748FDF7FEFF0023C3E0FFF752FD84
:102340007B681B89C82B04D940F677016048FDF7EC
:10235000F1FF7B689A887B681B899A4204D940F612
:1023600078015B48FDF7E6FF7B68B3F90C30C82BBA
:1023700004DD40F679015648FDF7DCFF7B685B78A9
:10238000012B09D17B689B88C82B12D940F67D01AF
:102390004F48FDF7CFFF0CE07B685B78022B08D13C
:1023A0007B689B880A2B04D940F682014848FDF7D8
:1023B000C1FF7B68DB8842F21072934204D940F679
:1023C0008A014348FDF7B6FF7B68DB884A2B02D8B9
:1023D0000023FB6015E07B68DB88B3F5FA7F03D24E
:1023E0004FF08053FB600CE07B68DB8840F6C31243
:1023F000934203D84FF00053FB6002E04FF040538C
:10240000FB60324BDB6C23F0405323F001037A680E
:10241000B2F90C20002A01DB012100E00021FA685A
:102420000A432A491343CB64284BD3F8EC30274A9C
:1024300043F44073C2F8EC30FFF7DCFC7B681B8987
:102440001A467B68B3F90C3019461046FFF784FD35
:102450007B689A881F4B1A807B689B88184600F01F
:10246000A9F97B689B7B1846FFF78EFD7B685B882C
:1024700001220121184600F031F8034683F00103E0
:10248000DBB2002B06D040F6C1011148FDF752FF28
:10249000002317E00D4BDB6B0C4A43F48063D363DE
:1024A0007B685B781846FFF7BDFE7B689B7A202B24
:1024B00001D1012300E000231A4605210648FFF759
:1024C00001FA012318461037BD4680BD00300E408A
:1024D0003C8100000A0200203C300E4090B595B0CF
:1024E00000AF78600B46FB701346BB700023FB64A3
:1024F00000237B6407F1240300221A605A609A606B
:1025000007F1180300221A605A609A6007F10C0361
:1025100000221A605A609A6007F1080300210A46F7
:102520001A800A469A707B68B3F5E16F06D37B6820
:1025300040F6B832934201D8012300E0002387F827
:10254000433097F8433003F0010387F8433097F89E
:10255000433083F00103DBB2002B06D040F60611B6
:102560009148FDF7E7FE002319E17B68B3F5E16FC1
:102570008CBF0123002387F8423097F84230002BAC
:102580000AD04FF4E163FB6440F6B8337B647A6CA5
:10259000FB6CD31ABB6409E04FF49663FB644FF401
:1025A000E1637B647A6CFB6CD31ABB6497F84230AE
:1025B000002B0BD07D4BD3F868313B623B6A1B0E7E
:1025C0007B613B6A1B0CDBB23B620AE0774BD3F8C2
:1025D00068313B623B6A1B0ADBB27B613B6ADBB260
:1025E0003B62734BDB6C1B0FDBB203F00303DBB20C
:1025F0003B723B7A97F8422007F10C0107F1180073
:10260000FFF75EFD6A4BD3F8EC301B0ADBB203F038
:102610000303DBB27B727C7A97F8422007F10C034C
:10262000191D07F11803181D2346FFF749FD7A68A5
:10263000FB6CD31A79693A6A8A1A02FB03F2BB6C03
:10264000B2FBF3F3FB62FA6A3B6A1344FB627A68FB
:10265000FB6CD31AF968BA698A1A02FB03F2BB6CE5
:10266000B2FBF3F37B627A6ABB6913447B627A68DC
:10267000FB6CD31A3969FA698A1A02FB03F2BB6C44
:10268000B2FBF3F3BB62BA6AFB691344BB62FA6A3A
:102690007B699A4213D8FA6A3B6A9A420FD3BA6AA4
:1026A0003B699A420BD8BA6AFB699A4207D37A6AA5
:1026B000FB689A4203D87A6ABB699A4206D240F60E
:1026C00054113948FDF736FE002368E0BB78002B33
:1026D00012D0374BDB6D23F4FE4323F00203FA6A7A
:1026E0001202134397F84220002A01D0022200E090
:1026F00000222F491343CB65FB78002B4ED0397A4B
:1027000097F8423000221846FFF764FC034683F036
:102710000103DBB2002B06D040F663112248FDF71F
:1027200009FE00233BE0797A97F8423001221846EF
:10273000FFF750FC034683F00103DBB2002B06D009
:1027400040F66B111848FDF7F5FD002327E07B6A82
:10275000FB63BB6ABB63BA6BFB6B934238BF134628
:102760007B627B6A7B63E7233B633A6B7B6B9342C1
:1027700028BF13467B620E4B5B6E23F4FF7323F07E
:1027800001037A6A5200134397F84220002A01D0CD
:10279000012200E00022064913434B66012318463C
:1027A0005437BD4690BD00BF3C810000B081E00FB2
:1027B00000300E4080B584B000AF78600023FB602D
:1027C000344B1B6F03F00703BB60324BDB6C03F031
:1027D0000103002B14D0BB68012B11D97B68132B8C
:1027E00002D80423FB603DE07B68132B05D97B688E
:1027F000272B02D80823FB6034E01023FB6031E074
:10280000244BDB6C03F00103002B14D1BB68012BBC
:1028100011D87B68092B02D80423FB6022E07B6877
:10282000092B05D97B68132B02D80823FB6019E01C
:102830001023FB6016E0174BDB6C03F00103002B49
:102840000BD0BB68012B08D87B68272B02D8082344
:10285000FB6007E01023FB6004E040F6A9110E487E
:10286000FDF768FDFB68013BFB60FB681A02FB6833
:102870001B031343FB60074BDB6C23F47F420549CA
:10288000FB681343CB64FFF7D5FA00BF1037BD4692
:1028900080BD00BF00300E403C81000080B584B098
:1028A00000AF0346FB7100211148FFF722F8F860E2
:1028B000FB68002B02D1FB79012B07D9FB68002BA9
:1028C00004D140F6C8110B48FDF734FD0A4B1B6FCD
:1028D00023F00702FB79084913430B67074B1B885A
:1028E0001846FFF767FF00BF1037BD4680BD00BF29
:1028F0004C300E403C81000000300E400A020020A7
:1029000080B485B000AF786039607B6803F1C06344
:10291000FB60FB683A681A6000BF1437BD465DF87B
:10292000047B704780B485B000AF786039607B6805
:1029300003F18063FB60FB683A681A6000BF1437DC
:10294000BD465DF8047B704780B584B000AFF86089
:10295000B9607A60B968F868FFF7E4FF7968F868E9
:10296000FFF7CEFF00BF1037BD4680BD80B582B0F7
:1029700000AF03463960FB71FB79002B38D0FB793F
:10298000012B32D0FB79022B2CD0FB79032B26D0E4
:10299000FB79042B21D0FB79052B1BD0FB79062B6F
:1029A00016D0FB79072B11D0FB79082B0CD0FB79C3
:1029B000092B06D0FB790A2B01D107231AE000234B
:1029C00018E04FF4404315E00F2313E0002311E01B
:1029D00000230FE04FF6FF730CE000230AE04FF4F2
:1029E0007F4307E040F6FF7304E04FF6C07301E059
:1029F00040F2FF333A68134103F00103002B04D186
:102A000040F2DD310C48FDF795FCFA7913465B0086
:102A100013441B010C3303F1804303F520430121D0
:102A20003A6801FA02F211461846FFF77BFF00BF31
:102A30000837BD4680BD00BF5081000080B582B020
:102A400000AF03463960FB71FB79002B38D0FB796E
:102A5000012B32D0FB79022B2CD0FB79032B26D013
:102A6000FB79042B21D0FB79052B1BD0FB79062B9E
:102A700016D0FB79072B11D0FB79082B0CD0FB79F2
:102A8000092B06D0FB790A2B01D107231AE000237A
:102A900018E04FF4404315E00F2313E0002311E04A
:102AA00000230FE04FF6FF730CE000230AE04FF421
:102AB0007F4307E040F6FF7304E04FF6C07301E088
:102AC00040F2FF333A68134103F00103002B04D1B5
:102AD00040F20C410C48FDF72DFCFA7913465B00DF
:102AE00013441B010C3303F1804303F52043012100
:102AF0003A6801FA02F211461846FFF701FF00BFDB
:102B00000837BD4680BD00BF5081000080B582B04F
:102B100000AF03463960FB71FB79002B1DD0FB79B8
:102B2000012B1AD0FB79022B17D0FB79032B14D081
:102B3000FB79042B16D0FB79052B0ED0FB79062BE5
:102B400010D0FB79072B0DD0FB79082B05D0FB7932
:102B5000092B02D0FB790A2B04D13B6823F0011327
:102B6000002B03D083210B48FDF7E4FBFA791346D1
:102B70005B0013441B0103F1804303F520433A68D3
:102B80004FF001111846FFF7DFFE00BF0837BD46C2
:102B900080BD00BFA881000080B584B000AFB960DF
:102BA0007B600346FB731346BB73FB7B002B38D063
:102BB000FB7B012B32D0FB7B022B2CD0FB7B032B2E
:102BC00026D0FB7B042B21D0FB7B052B1BD0FB7B72
:102BD000062B16D0FB7B072B11D0FB7B082B0CD0D0
:102BE000FB7B092B06D0FB7B0A2B01D107231AE0C4
:102BF000002318E04FF4404315E00F2313E00023B7
:102C000011E000230FE04FF6FF730CE000230AE011
:102C10004FF47F4307E040F6FF7304E04FF6C073C4
:102C200001E040F2FF33BA68134103F00103002BC7
:102C300004D140F213113948FDF77CFBBB7B002B1C
:102C40000DD07B68002B05D0FB7BB9681846FFF7D9
:102C5000F5FE04E0FB7BB9681846FFF787FEBB680A
:102C6000072B20D82E49FA7B13465B0013441B0127
:102C70000B4404331A68BB689B000F2101FA03F36D
:102C8000DB431340B97BBA68920001FA02F21146A5
:102C90002348FA7B194313465B0013441B0103448A
:102CA0000433196025E01E49FA7B13465B00134488
:102CB0001B010B4408331A68BB6803F18043083BCF
:102CC0009B000F2101FA03F3DB4302EA0301BA7B05
:102CD000BB6803F18043083B9B0002FA03F31048F2
:102CE000FA7B194313465B0013441B01034408336A
:102CF0001960BB7B002B0DD17B68002B05D0FB7BC3
:102D0000B9681846FFF79AFE04E0FB7BB9681846DD
:102D1000FFF72CFE00BF1037BD4680BDA881000024
:102D200000A0004080B483B000AF786039607B6859
:102D30003A68DA6300BF0C37BD465DF8047B704724
:102D400080B487B000AFF860B9607A60FB6803F1C7
:102D50000473DA00BB6813449B007B617B697A686B
:102D60001A6000BF1C37BD465DF8047B704780B415
:102D700085B000AF786039607B6803F1C063FB60A9
:102D8000FB683A681A6000BF1437BD465DF8047BE3
:102D9000704780B485B000AF786039607B6803F11C
:102DA0008063FB60FB683A681A6000BF1437BD4659
:102DB0005DF8047B704780B584B000AFF860B960FF
:102DC0007A60B968F868FFF7E4FF7968F868FFF798
:102DD000CEFF00BF1037BD4680BD000080B588B073
:102DE00000AFF860B9607A60FB707B68002B04D19B
:102DF00040F215115448FDF79DFA7B68002B00F056
:102E00009E80FB7803F00303FB70FB681B6823F4D0
:102E10004072FB681A60F868FB781B021A464FF490
:102E20004071FFF7C8FFBB68002B16D1FB68474A0B
:102E3000934204D14648FDF799FDB8600DE0FB6868
:102E4000444A934204D14448FDF790FDB86004E041
:102E500040F22F113C48FDF76DFA4FF0FF33FB6154
:102E6000FB681B6803F00203002B10D0FB78012BDA
:102E700007D0022B08D0002B00D019E0374BFB61A4
:102E800016E0374BFB6113E0364BFB6110E0FB783B
:102E9000012B07D0022B08D0002B00D008E02F4BCD
:102EA000FB6105E0304BFB6102E0304BFB6100BF92
:102EB000BA68FB699A4204D84FF4B2712248FDF710
:102EC00039FAFB782A4AD35C7B617B697A6802FB1A
:102ED00003F33B613B69002B05D140F275111A48A1
:102EE000FDF728FA2CE07B68DB00BA68D21A3B6950
:102EF00013445A1E3B69B2FBF3F3013BBB61BB6950
:102F0000002B04DA40F27B110F48FDF713FABB697E
:102F1000B3F5007F04D34FF4BE710B48FDF70AFAF6
:102F2000FB681B6803F00203002B04D0BB69002B75
:102F300001D10123BB61BA69FB681A6100E000BFDF
:102F40002037BD4680BD00BFC081000000C00040EA
:102F50000082040000C400400092040080841E002F
:102F6000404B4C00809FD50040548900002D31011A
:102F7000BC81000080B582B000AF78600B46FB706A
:102F80007B680B4A934208D07B680A4A934204D07C
:102F900040F295110848FDF7CDF97B68FA780021D9
:102FA0001846FFF7CDFE00BF0837BD4680BD00BF05
:102FB00000C0004000C40040C081000080B582B065
:102FC00000AF786039607B68174A934208D07B680D
:102FD000164A934204D04FF4D5711548FDF7AAF96B
:102FE0007B6800221A6413497868FFF79BFE7868B3
:102FF0003B685B7883F00103DBB21A460121FFF7DF
:103000009FFE3B6859683B689A683B681B7B786801
:10301000FFF7E4FE3B681B7819467868FFF7AAFFC4
:1030200000BF0837BD4680BD00C0004000C400405E
:10303000C0810000FFFF070080B586B000AFF860D8
:10304000B9607A60FB68114A934207D1BB68012BD3
:1030500004D87B681B0C1B04002B03D0BD210C483B
:10306000FDF768F9BB68002B02D0012B04D00AE001
:10307000FB6810337B6103E0FB6814337B6100BFA6
:103080007B697A681A601837BD4680BD00600440CD
:10309000D481000080B582B000AF78600B46FB7031
:1030A0007B680A4A934203D0EA210948FDF742F9B6
:1030B000FB78002B03D07B6801225A6002E07B681A
:1030C00002225A6000BF0837BD4680BD0060044040
:1030D000D481000080B584B000AF786039600023EF
:1030E000FB607B68374A934204D04FF4A5713648A1
:1030F000FDF720F93B681B7883F00103DBB2002B5E
:1031000008D07B689B6803F00103002B02D07B682A
:1031100002225A603B685B78002B03D0FB6843F4C3
:103120008053FB603B689B78002B03D13B68DB68D6
:10313000002B07D0FB6843F40073FB603B68DA6840
:103140007B681A613B68DB78002B03D0FB6843F493
:103150008073FB603B681B79002B03D0FB6843F056
:103160004003FB603B685B79002B03D0FB6843F0B6
:103170008003FB603B689B799B001A46FB68134306
:10318000FB603B68DB791B011A46FB681343FB605D
:103190003B681B7A1A46FB681343FB607B68FA683E
:1031A0001A603B681B78002B08D07B689B6803F093
:1031B0000103002B02D17B6801225A6000BF103747
:1031C000BD4680BD00600440D481000080B483B05F
:1031D00000AF786039607B681B6C03F00103002B43
:1031E00007D100BF7B685A6C3B681340002BF9D1B4
:1031F00000E000BF0C37BD465DF8047B704700005F
:1032000080B586B000AFF860B9607A607B68002B4B
:1032100004D14FF482711D48FDF78CF8BB68002B78
:1032200010D1FB681A4A934206D11A4B7B61786928
:10323000FDF79CFBB86005E04FF496711348FDF76D
:1032400079F81FE0BB685A017B68B2FBF3F33B617E
:103250003B69203B3B613B69DB003B613B690E4ABC
:10326000934204D940F239110848FDF763F83A69EE
:10327000094B13403B610421F868FFF7A7FFFB6887
:103280003A69DA601837BD4680BD00BFEC810000A6
:1032900000A0044090171A00F8FF010080B483B02A
:1032A00000AF78600B46FB70FB78002B08D000BFA6
:1032B0007B685B6C002BFBD17B6801221A6402E007
:1032C0007B6800221A6400BF0C37BD465DF8047BA2
:1032D0007047000080B582B000AF786039607B68CD
:1032E0001B4A934204D04FF4DF711A48FDF722F8CD
:1032F00002217868FFF76AFF7B680A225A60012181
:103300007868FFF7CBFF7B681B6823F01C033A68E3
:10331000127B13433A68527B13433A68927B1A43F9
:103320007B681A603B6859683B689B681A467868F6
:10333000FFF766FF3B681B781A467B685A600021DE
:103340007868FFF7ABFF00BF0837BD4680BD00BF00
:1033500000A00440EC81000080B485B000AF78602C
:1033600039607B6803F1C063FB60FB683A681A60F0
:1033700000BF1437BD465DF8047B704780B485B04C
:1033800000AF786039607B6803F18063FB60FB68A5
:103390003A681A6000BF1437BD465DF8047B704779
:1033A00080B582B000AF03463960FB71FB79002B1A
:1033B00038D0FB79012B32D0FB79022B2CD0FB7952
:1033C000032B26D0FB79042B21D0FB79052B1BD0B6
:1033D000FB79062B16D0FB79072B11D0FB79082B34
:1033E0000CD0FB79092B06D0FB790A2B01D10723DE
:1033F0001AE0002318E04FF4404315E00F2313E0D8
:10340000002311E000230FE04FF6FF730CE00023D0
:103410000AE04FF47F4307E040F6FF7304E04FF605
:10342000C07301E040F2FF333A68134103F0010337
:10343000002B04D140F2DD310C48FCF77BFFFA7918
:1034400013465B0013441B010C3303F1804303F567
:10345000204301213A6801FA02F211461846FFF7AB
:103460008DFF00BF0837BD4680BD00BF048200004D
:1034700080B582B000AF03463960FB71FB79002B49
:1034800038D0FB79012B32D0FB79022B2CD0FB7981
:10349000032B26D0FB79042B21D0FB79052B1BD0E5
:1034A000FB79062B16D0FB79072B11D0FB79082B63
:1034B0000CD0FB79092B06D0FB790A2B01D107230D
:1034C0001AE0002318E04FF4404315E00F2313E007
:1034D000002311E000230FE04FF6FF730CE0002300
:1034E0000AE04FF47F4307E040F6FF7304E04FF635
:1034F000C07301E040F2FF333A68134103F0010367
:10350000002B04D140F20C410C48FCF713FFFA7970
:1035100013465B0013441B010C3303F1804303F596
:10352000204301213A6801FA02F211461846FFF7DA
:1035300013FF00BF0837BD4680BD00BF04820000F6
:1035400080B500AF01F054FD01F056FE00F044FBE1
:1035500000F06CFB0749084800F010F801F08AFD04
:103560004021202000F0D4F8102001F04DFD00BFD4
:1035700080BD00BFCDCCCC3D6666464080B58CB0EA
:1035800000AF786039607B683B613B687B611C23DE
:10359000BB720023FB7200233B7300237B73002369
:1035A0007B7200233B72012387F8283000233B768F
:1035B000002387F820300123FB6102237B62042370
:1035C000FB6207F108031946034801F007F800BF42
:1035D0003037BD4680BD00BF0060044080B500AFFD
:1035E000012001F025FD7F210248FCF7A3FE00BF6A
:1035F00080BD00BF5C82000080B500AF022001F0FA
:1036000017FD91210248FCF795FE00BF80BD00BF69
:103610005C82000080B500AF01F020FD034603F09E
:103620000403002B03D1A1210448FCF783FE0420EE
:1036300001F0FEFC01F04CFD00BF80BD5C8200008B
:1036400080B582B000AF01F009FD034603F0080326
:10365000002B03D1B3210F48FCF76CFE082001F0CA
:10366000E7FC01F049FD7860D7ED017A9FED0A7A19
:10367000F4EEC77AF1EE10FA04DB05210520FFF71E
:10368000F7FE03E005210520FFF78AFE00BF08379B
:10369000BD4680BD5C8200000000A04280B500AF46
:1036A000102001F0C5FC01F049FB00F073F800F0B8
:1036B0007DF9054800F060F8044800F05DF8044822
:1036C00000F05AF800BF80BD7882000088820000B8
:1036D000A082000080B500AF01F0C0FC034603F0FB
:1036E0002003002B03D1EE210748FCF723FE202006
:1036F00001F09EFC0121054801F03CF8002000F09B
:10370000B1F900BF80BD00BF5C82000000600440D2
:1037100080B58EB000AF786039604FF41653BB604F
:1037200000233B7305237B730023BB7300233B61A2
:1037300000233B754FF490537B621223FB610123FE
:10374000BB6201233B62012387F82D30012387F8F8
:103750002C307B687B633B683B6307F108031946A9
:10376000044801F0B5F800F021F900BF3837BD4634
:1037700080BD00BF00A0044080B582B000AF78607B
:10378000786800F029F9002000F06CF900BF0837D4
:10379000BD4680BD80B58AB000AF3223FB601923DF
:1037A000BB6005237B606F4B00229A646D4B002247
:1037B000DA6400237B620BE07B6ADBB20133D9B2AF
:1037C000694A7B6A13440A461A707B6A01337B623A
:1037D0007A6AFB689A42EFDB00233B620CE03B6AAB
:1037E000DBB21433D9B2604A3B6A134440330A4611
:1037F0001A703B6A01333B623A6ABB689A42EEDB5D
:103800000023FB610CE0FB69DBB22333D9B2564ADB
:10381000FB69134480330A461A70FB690133FB616C
:10382000FA697B689A42EEDB4F4800F0D5F8012038
:1038300000F018F90346FB70FB7883F00103DBB25C
:10384000002B04D14FF4B1714848FCF773FD0023FD
:10385000BB6112E0444ABB6913441A784249BB6910
:103860000B44C0331B789A4204D04FF4B2713F48E6
:10387000FCF760FDBB690133BB61BA69FB689A4222
:10388000E8DB3B4800F0A8F83A4800F0A5F8012032
:1038900000F0E8F80346FB70FB7883F00103DBB22D
:1038A000002B04D14FF4BB713048FCF743FD0023DB
:1038B0007B6113E02C4A7B69134440331A782A4910
:1038C0007B690B44C0331B789A4204D04FF4BC711F
:1038D0002648FCF72FFD7B6901337B617A69BB6861
:1038E0009A42E7DB012000F0BDF80346FB70FB784D
:1038F00083F00103DBB2002B04D140F27F111B489F
:10390000FCF718FD00233B6113E0174A3B691344A1
:1039100080331A7814493B690B44C0331B789A42B0
:1039200004D040F281111148FCF704FD3B690133DA
:103930003B613A697B689A42E7DB012000F092F82C
:103940000346FB70FB78012B04D04FF4C771074886
:10395000FCF7F0FC0848FFF70FFF00BF2837BD4613
:1039600080BD00BF7403002074020020AC82000000
:10397000B4020020F40200200884000080B400AFEC
:10398000094BDB6CDAB2084B9B6CDBB2D31ADBB2AF
:10399000DB43DAB2044B93F840301340DBB21846F5
:1039A000BD465DF8047B70477403002080B400AF0F
:1039B000084B40225A64074B3F2283F84020054BB6
:1039C00000229A64034B0022DA6400BFBD465DF812
:1039D000047B70477403002090B585B000AF786019
:1039E000FFF7CCFF03461C46786802F067FE0346EB
:1039F00001339C4205D24FF4E4711848FCF79AFC5D
:103A000027E0786802F05AFE0346DAB2144BDB6C0A
:103A10000132D1B2124AD1540121114800F0B2F85A
:103A20000023FB600EE0FB687A681A440C4BDB6CE9
:103A300011780B4AD1540121094800F0A3F8FB6822
:103A40000133FB60786802F039FE0246FB689A4257
:103A5000E9D800BF1437BD4690BD00BFAC8200005E
:103A600074030020B0B588B000AF0346FB716B460D
:103A70001D46414BDA6C404B9B6C9A4201D10123AD
:103A800074E03E4801F028F90346002B01D00023E2
:103A90006CE0394B9B6C384AD35C013B7B61012164
:103AA000354800F084F87B69581C0346013B3B61B4
:103AB00001464FF000024FF000034FF00004D40025
:103AC00044EA5174CB0001464FF000024FF000036E
:103AD0004FF00004D40044EA5174CB00C31DDB084E
:103AE000DB00ADEB030D6B460033FB600023BB61D5
:103AF0000FE0214B9B6C204AD15CFA68BB691344F0
:103B00000A461A7001211C4800F051F8BB690133C4
:103B1000BB61BB697A699A42EBD8FA687B69134446
:103B200000221A70FB79002B14D00023FB610CE0FB
:103B3000FA68FB6913441978114AFB691344C033CE
:103B40000A461A70FB690133FB61FB697A699A4284
:103B5000EED80AE0FC68FB68184602F0AFFD0346A9
:103B60001A462146054800F0C5FF0023AD46184619
:103B70002037BD46B0BD00BF7403002000A0044044
:103B80007402002080B483B000AF786039607B6835
:103B9000DA6C3B6813447A6892F840201A407B68DC
:103BA000DA6400BF0C37BD465DF8047B704780B413
:103BB00083B000AF786039607B689A6C3B681344CF
:103BC0007A6892F840201A407B689A6400BF0C37EC
:103BD000BD465DF8047B704780B500AF01210F48FA
:103BE000FCF758FE002200210120FDF713FC012202
:103BF00001210020FDF70EFC02210948FDF7A6F87F
:103C00000A210848FDF7A2F801210748FCF742FE07
:103C100001210248FCF73EFE00BF80BD4041050087
:103C20000300200002001E0000250A0080B500AF3E
:103C300001212048FCF72EFE00210520FEF766FF3B
:103C40000023042204210520FEF7A6FF0021052001
:103C5000FEF75CFF0023042205210520FEF79CFFF0
:103C60004FF001110120FEF751FF012304220A2128
:103C70000120FEF791FF012308220B210220FEF70D
:103C80008BFF012308220A210220FEF785FF4FF453
:103C900080310320FEF73AFF012304220A2103208A
:103CA000FEF77AFF002301220B210320FEF774FFA9
:103CB00000BF80BD00350A0080B483B000AF03466A
:103CC000FB7197F90730002B0BDBFB7903F01F0228
:103CD000074997F907305B09012000FA02F241F821
:103CE000232000BF0C37BD465DF8047B704700BF42
:103CF00000E100E080B485B000AF786039607B6897
:103D000003F10473DA003B6813449B00FB60FB681B
:103D10001B6818461437BD465DF8047B704780B4B5
:103D200085B000AF786039607B6803F1C063FB60E9
:103D3000FB683A681A6000BF1437BD465DF8047B23
:103D4000704780B485B000AF786039607B6803F15C
:103D50008063FB60FB683A681A6000BF1437BD4699
:103D60005DF8047B7047000080B582B000AF034669
:103D70003960FB71FB79002B38D0FB79012B32D0F5
:103D8000FB79022B2CD0FB79032B26D0FB79042B5B
:103D900021D0FB79052B1BD0FB79062B16D0FB79A4
:103DA000072B11D0FB79082B0CD0FB79092B06D0FF
:103DB000FB790A2B01D107231AE0002318E04FF406
:103DC000404315E00F2313E0002311E000230FE030
:103DD0004FF6FF730CE000230AE04FF47F4307E047
:103DE00040F6FF7304E04FF6C07301E040F2FF338A
:103DF0003A68134103F00103002B04D140F2AE31C5
:103E00000A48FCF797FAFA7913465B0013441B0142
:103E10001C3303F1804303F5204339681846FFF74C
:103E200069FF034618460837BD4680BD2884000058
:103E300080B582B000AF03463960FB71FB79002B7F
:103E400038D0FB79012B32D0FB79022B2CD0FB79B7
:103E5000032B26D0FB79042B21D0FB79052B1BD01B
:103E6000FB79062B16D0FB79072B11D0FB79082B99
:103E70000CD0FB79092B06D0FB790A2B01D1072343
:103E80001AE0002318E04FF4404315E00F2313E03D
:103E9000002311E000230FE04FF6FF730CE0002336
:103EA0000AE04FF47F4307E040F6FF7304E04FF66B
:103EB000C07301E040F2FF333A68134103F001039D
:103EC000002B04D140F2DD310C48FCF733FAFA79CB
:103ED00013465B0013441B010C3303F1804303F5CD
:103EE000204301213A6801FA02F211461846FFF711
:103EF00028FF00BF0837BD4680BD00BF28840000F2
:103F000080B582B000AF03463960FB71FB79002BAE
:103F100038D0FB79012B32D0FB79022B2CD0FB79E6
:103F2000032B26D0FB79042B21D0FB79052B1BD04A
:103F3000FB79062B16D0FB79072B11D0FB79082BC8
:103F40000CD0FB79092B06D0FB790A2B01D1072372
:103F50001AE0002318E04FF4404315E00F2313E06C
:103F6000002311E000230FE04FF6FF730CE0002365
:103F70000AE04FF47F4307E040F6FF7304E04FF69A
:103F8000C07301E040F2FF333A68134103F00103CC
:103F9000002B04D140F20C410C48FCF7CBF9FA7924
:103FA00013465B0013441B010C3303F1804303F5FC
:103FB000204301213A6801FA02F211461846FFF740
:103FC000AEFE00BF0837BD4680BD00BF288400009C
:103FD00080B588B000AFF860B9607A603B60574A3E
:103FE0003B681360FB68564A934203D10121554850
:103FF000FCF750FCFB68544A934203D1012153481B
:10400000FCF748FCFB685B6B03F00103002B10D14D
:10401000FB6801229A63FB685B6B03F00103002BD2
:1040200003D14C214A48FCF785F9FB680122DA6389
:104030000CE0FB680122DA63FB685B6B03F00103B1
:10404000002B03D051214248FCF774F9BB681B7860
:104050003B77BB685B783B74BB685B68BB61BB68E4
:104060001B7A7B74BB68DB687B6107F11003194620
:10407000F868FEF7A3FFBB685B8A1A46FB689A6480
:10408000FB689B6CBA68928A1A43FB689A64BB68A7
:104090001B7C002B06D0FB685B6C43F00102FB68C5
:1040A0005A6405E0FB685B6C23F00102FB685A640C
:1040B000BB685B7C002B06D0FB685B6C43F00202A4
:1040C000FB685A6405E0FB685B6C23F00202FB6846
:1040D0005A64FB6800221A64FB684FF4F072DA63DA
:1040E000FB681B6C43F04002FB681A64FB681B6CA6
:1040F00043F08002FB681A64FB681B6C43F02002EB
:10410000FB681A64FB681B6C43F48072FB681A64DA
:10411000FB680B4A934202D11120FFF7CDFDFB68EB
:10412000094A934202D12A20FFF7C6FD7968F86850
:1041300000F010F800BF2037BD4680BD3C020020D3
:1041400000C000400082040000C40040009204004F
:104150008084000080B584B000AF786039603B682F
:104160001A783B685B6819461046FFF7FDFD034669
:10417000002B03D1AA211D48FCF7DCF83B681A7A12
:104180003B68DB6819461046FFF7EEFD0346002B3F
:1041900003D1AB211548FCF7CDF80023FB601AE0F2
:1041A0003B681A7A3B68DB6819461046FFF7A8FEA1
:1041B0003B681A783B685B6819461046FFF738FE83
:1041C0003B681A783B685B6819461046FFF798FE13
:1041D000FB680133FB60FB68082BE1DD7B68202274
:1041E0005A6000BF1037BD4680BD00BF808400000C
:1041F00080B584B000AFF860B9607A60FB70FB688E
:104200009B6803F0E003002B03D0DC211548FCF78A
:1042100091F8022001F04CF8134AFB685360124AEF
:10422000BB699361104AFB6953610F4ABB68936095
:104230000D4A7B68D3600C4AFB7813740A4B00224A
:104240001A70094B5B6801225A60074B9A68064B4B
:104250005B685200DA62044B01221A7000BF10370B
:10426000BD4680BD808400002002002080B500AFE4
:10427000294B1B78062B46D801A252F823F000BF29
:104280009D420000A9420000BB420000DB4200004A
:10429000E3420000EF420000FB42000040F2011147
:1042A0001E48FCF747F834E01B4B5B681A4AD2689B
:1042B000DA62194B02221A702BE0174B5B6801225D
:1042C0005A60154B9B685A00134B5B6842F0010221
:1042D000DA62114B03221A701BE00F4B04221A7092
:1042E00017E040F213110D48FCF724F811E04FF4E9
:1042F0008B710A48FCF71EF80BE040F219110748D1
:10430000FCF718F805E04FF48E710448FCF712F83A
:1043100000BF00BF80BD00BF2002002080840000DD
:1043200080B500AF274B1B78062B42D801A252F86C
:1043300023F000BF514300005D43000069430000CB
:10434000754300008F4300009B430000A74300001B
:1043500040F22F111C48FBF7EDFF30E04FF499714C
:104360001948FBF7E7FF2AE040F235111648FBF742
:10437000E1FF24E0134B5B6801225A60114B9B68FC
:104380005A00104B5B6842F00102DA6217E04FF40A
:104390009E710D48FBF7CEFF11E040F23F110A4835
:1043A000FBF7C8FF0BE04FF4A1710748FBF7C2FF12
:1043B00005E040F245110448FBF7BCFF00BF00BF19
:1043C00080BD00BF200200208084000080B500AFC7
:1043D000304B1B78062B54D801A252F823F000BFB3
:1043E000FD43000009440000154400002144000082
:1043F0002D4400004B4400007744000040F2571168
:104400002548FBF797FF42E04FF4AD712248FBF7D8
:1044100091FF3CE040F25D111F48FBF78BFF36E057
:104420004FF4B0711C48FBF785FF30E0194B5B6817
:10443000DA69184B5B6912021A60164B5B6804223A
:104440005A60144B05221A7021E0124B5B68D9693F
:10445000104B5B691A680F4B5B690A431A600D4B7E
:104460005B6808225A600B4B5B6802225A60094B5A
:1044700006221A700BE04FF4B8710748FBF75AFF99
:1044800005E040F273110448FBF754FF00BF00BF82
:1044900080BD00BF200200208084000080B500AFF6
:1044A000254B1B78062B3ED801A252F823F000BF03
:1044B000CD440000D9440000E5440000F144000070
:1044C000FD440000094500001545000040F285113B
:1044D0001A48FBF72FFF2CE04FF4C4711748FBF785
:1044E00029FF26E040F28B111448FBF723FF20E060
:1044F0004FF4C7711148FBF71DFF1AE040F291110C
:104500000E48FBF717FF14E04FF4CA710B48FBF796
:1045100011FF0EE0022000F0EDFE094B1B6818466B
:1045200000F072FD05E04FF4CE710448FBF702FF86
:1045300000BF00BF80BD00BF2002002080840000BB
:104540003C02002080B582B000AF144B5A6B134B75
:104550001B6C13407B60114A7B68D3637B6803F05C
:104560004003002B01D0FFF781FE7B6803F080033E
:10457000002B01D0FFF7D4FE7B6803F02003002B53
:1045800001D0FFF723FF7B6803F48073002B01D079
:10459000FFF784FF00BF0837BD4680BD00C0004064
:1045A00080B483B000AF0346FB7197F90730002B4E
:1045B0000BDBFB7903F01F02074997F907305B0912
:1045C000012000FA02F241F8232000BF0C37BD465B
:1045D0005DF8047B704700BF00E100E080B586B065
:1045E00000AF786039607B685B4A934203D1012158
:1045F0005A48FCF74FF90021786800F0BBF87B6857
:1046000001225A6000BF7B685B6B002BFBD17B688B
:104610009B6803F00103002B03D152215048FBF7A4
:1046200089FE7B6802225A600023FB720123BB7261
:104630003B681B787B723B685B783B7200233B7363
:1046400000237B7300233B740323BB730323FB739F
:1046500007F1080319467868FEF73CFD00BF7B6848
:104660005B6B002BFBD13B68D3ED027A9FED3D7A6B
:1046700067EE877AFCEEE77A17EE902A00217868D9
:10468000FEF7DAFC7B680022DA603B68D3ED037A40
:104690009FED347A67EE877AFCEEE77A17EE902A80
:1046A00001217868FEF7C8FC7B6801229A613B68AB
:1046B0001B791A467B681A643B689B781A467B68AC
:1046C0005A647B680022DA623B685A693B68DB699E
:1046D0001A433B685B6A1A437B689A623B681B7C9F
:1046E000002B06D07B68DA6A3B685B691A437B68FB
:1046F000DA623B681B7E002B06D07B68DA6A3B6877
:10470000DB691A437B68DA623B6893F82030002B40
:1047100006D07B68DA6A3B685B6A1A437B68DA62B8
:104720001B20FFF73DFF3B685B690F4A13603B6846
:10473000DB690E4A13603B685B6A0D4A13607B6855
:104740009B6803F00103002B02D0042000F0B0FDB1
:1047500000BF1837BD4680BD0060044080061600CB
:104760009C84000000007A444002002044020020A3
:104770004802002080B582B000AF78600B46FB7025
:10478000FB78002B12D07B689B6803F00103002BA1
:104790000CD1FB7819467868FEF77CFC00BF7B687B
:1047A0005B6B002BFBD1042000F082FDFB7883F0D3
:1047B0000103DBB2002B12D07B689B6803F001037E
:1047C000002B0CD0FB7819467868FEF763FC00BF1D
:1047D0007B685B6B002BFBD1042000F08BFD00BFDE
:1047E0000837BD4680BD000080B582B000AF244BC5
:1047F0001A6A234BDB6A13407B60214A7B68936211
:104800007B6803F00103002B0ED01D4B1B6A03F0E5
:104810000103002B03D0D4211A48FBF78BFD1A4B60
:104820001B68184600F0F0FB7B6803F00203002BC6
:104830000ED0134B1B6A03F00203002B03D0DA21C6
:104840001048FBF777FD114B1B68184600F0DCFBA6
:104850007B6803F00403002B0ED0094B1B6A03F0A6
:104860000403002B03D0E0210648FBF763FD084B4F
:104870001B68184600F0C8FB00BF0837BD4680BD66
:10488000006004409C84000040020020440200209C
:104890004802002080B483B000AF0346FB7197F953
:1048A0000730002B0BDBFB7903F01F02074997F958
:1048B00007305B09012000FA02F241F8232000BF13
:1048C0000C37BD465DF8047B704700BF00E100E097
:1048D00080B586B000AF786039607B68804A9342CB
:1048E00003D101217F48FBF7D5FF7B681B6903F0EB
:1048F0000103002B1AD17B6801221A6100BF7B687B
:104900005B6C002BFBD17B681B6903F00103002B60
:1049100003D15B217448FBF70DFD7B6800221A610F
:1049200000BF7B685B6C002BFBD114E07B681B69CC
:1049300023F001027B681A6100BF7B685B6C002B6F
:10494000FBD17B681B6903F00103002B03D06321BB
:104950006548FBF7EFFC3B689B6A644A13603B6861
:10496000DB6A634A13603B681B683B613B681B79E9
:104970003B753B685B793B723B689B797B753B6819
:104980009B68FB603B681B7BBB7507F108031946FE
:104990007868FEF79FFC00BF7B685B6C002BFBD147
:1049A0003B6893F82530002B06D000BF7B689B68DE
:1049B00003F00203002BF9D03B6893F82430002B5E
:1049C00006D000BF7B689B6803F00103002BF9D081
:1049D0003B685A697B689A657B689A6D3B68DB69BE
:1049E0001A437B689A653B681B6A002B06D07B687C
:1049F0005B6D43F002027B685A6505E07B685B6D86
:104A000023F002027B685A653B689B69002B06D045
:104A10007B685B6D43F001027B685A6505E07B684B
:104A20005B6D23F001027B685A657B6880225A60C7
:104A300000BF7B685B6C002BFBD17B6840225A6017
:104A400000BF7B685B6C002BFBD17B6800229A6304
:104A50007B6803225A637B689B6B43F001027B688F
:104A60009A637B681E4A934202D11620FFF712FF19
:104A70003B6893F82430002B0AD07B689B6803F0D6
:104A80000103002B0ED1AF211748FBF753FC09E0BF
:104A90007B689B6803F00103002B03D0B12112480F
:104AA000FBF748FC3B6893F82530002B0AD07B6865
:104AB0009B6803F00203002B0ED1B5210A48FBF7D7
:104AC00039FC09E07B689B6803F00203002B03D0EC
:104AD000B7210548FBF72EFC00BF1837BD4680BD47
:104AE00000A0044090171A00BC840000A804002015
:104AF000B004002080B584B000AFF860B9607A607F
:104B0000032000F0D5FB114B002283F87020104BDE
:104B100001221A700D4AFB681360B9680D4801F054
:104B2000C5FD0A4A7B689360084B00225A60074B18
:104B3000012283F87020FB689B6B43F00202FB6844
:104B40009A6300BF1037BD4680BD00BF340400200B
:104B5000AC0400204004002080B500AF2A4B93F83D
:104B60007030032B47D801A252F823F07D4B000090
:104B7000874B0000E34B0000ED4B0000E62123488B
:104B8000FBF7D8FB3DE0204B5A681F4B9B689A42CD
:104B900014D21D4B18681C4B5B681B4A13441B7BCB
:104BA000194600F0B5F800BF174B1B685B6C002B73
:104BB000FAD1154B5B680133134A5360124B5A68A4
:104BC000114B9B689A421BD30F4B1B689A6B0E4B81
:104BD0001B6822F002029A630B4B022283F87020BA
:104BE0000EE0F7210948FBF7A5FB0AE0FA21074888
:104BF000FBF7A0FB05E0FD210448FBF79BFB00E071
:104C000000BF00BF80BD00BF34040020BC84000092
:104C100080B500AF1C4B93F87030032B2CD801A249
:104C200052F823F0354C0000414C00004D4C000080
:104C30006D4C00004FF485711448FBF77BFB21E0BD
:104C40004FF487711148FBF775FB1BE0104B0022F6
:104C50001A70032000F04EFB0E4B1B68184600F044
:104C6000D3F9094B032283F870200BE040F21711AF
:104C70000648FBF75FFB05E04FF48D710348FBF737
:104C800059FB00BF00BF80BD34040020BC8400007D
:104C9000AC040020B004002080B582B000AF0D4B02
:104CA000DA6A0C4B9B6B13407B600A4A7B68536348
:104CB0007B6803F00203002B01D0FFF74DFF7B68F8
:104CC00003F00103002B01D0FFF7A2FF00BF08375C
:104CD000BD4680BD00A0044080B582B000AF7860C2
:104CE0007B68084A934203D1074B1B78DBB205E08F
:104CF00040F23F110548FBF71DFB0023184608371B
:104D0000BD4680BD00A00440AC040020BC8400006F
:104D100080B483B000AF78600B46FB7000BF7B6847
:104D2000DB6A03F00203002BF9D0FA787B689A6201
:104D300000BF0C37BD465DF8047B7047B0B5D2B0FC
:104D400000AFA34B1B681A68A14B1B6842F080029E
:104D50001A60232387F84731212387F8463100F072
:104D600089FA0346022B04D940F2ED119948FBF76A
:104D7000E1FA974B1B681A6997F847319A4204D0B9
:104D80004FF4F8719348FBF7D5FA914B1B685A69B9
:104D900097F846319A4204D040F2F1118D48FBF762
:104DA000C9FA8B4B1B689B6803F00403002B04D1EA
:104DB0004FF4F9718748FBF7BDFA854B1B689B6B75
:104DC00003F40073002B04D140F2F3118148FBF788
:104DD000B1FA7F4B1B689B6B03F48063002B04D1FB
:104DE0004FF4FA717B48FBF7A5FA794B1B689B6B74
:104DF00003F00403002B04D140F2F5117548FBF7D2
:104E000099FA734B1B6861229A6200BF704B1B6852
:104E1000DB6A03F00103002BF8D06D4B1B685A6B63
:104E20006B4B1B6842F001025A63694B1B682322DB
:104E30009A6200BF664B1B68DB6A03F00103002B1C
:104E4000F8D0634B1B685A6B614B1B6842F0010240
:104E50005A6300BF5E4B1B68DB6A03F00403002B40
:104E6000F8D05B4B1B68DA6997F847319A4204D057
:104E700040F203215748FBF75DFA554B5B68012B65
:104E800004D04FF401715348FBF754FA524B07F129
:104E9000F4041D460FCD0FC495E8030020600434D0
:104EA000218007F585733A220021184600F077FF2C
:104EB0004A4A07F1A40392E80300186004331980FA
:104EC00002330A0C1A7007F1AB034922002118467D
:104ED00000F065FF3E4B1C6807F1F403184601F033
:104EE000EDFB024607F1F40319462046FFF702FEE8
:104EF00000BF3B4B1B78DBB2002BFAD100BF394B14
:104F00001B78DBB2002BFAD140F20E213148FBF7BF
:104F100011FA2F4B1B689B6803F00403002B04D18C
:104F200040F212212B48FBF705FA2F4B07F15404EE
:104F30001D460FCD0FC495E8070003C4228007F17A
:104F40006E0336220021184600F029FF3C1D274A37
:104F5000234607CA03C31A8004F10A03462200212C
:104F6000184600F01CFF1A4B1C6807F15403184642
:104F700001F0A4FB024607F1540319462046FFF74F
:104F8000B9FD00BF164B1B78DBB2002BFAD100BF76
:104F9000144B1B78DBB2002BFAD140F219210D48DB
:104FA000FBF7C8F90A4B1B681B68094B1B680022FA
:104FB0001A6000F05FF90346022B04D940F21D216C
:104FC0000448FBF7B7F900BF07F5A477BD46B0BDAD
:104FD000C4030020BC840000DC8400002C85000099
:104FE000AC040020AD0400207C850000CC850000CE
:104FF00080B400AF034B00221A6000BFBD465DF8CD
:10500000047B70474C02002080B483B000AF78600E
:1050100072B6064B1A687B681343044A136062B683
:1050200000BF0C37BD465DF8047B70474C02002082
:1050300080B483B000AF786072B67B68DA43064B09
:105040001B681340044A136062B600BF0C37BD46AC
:105050005DF8047B704700BF4C02002080B400AFB5
:10506000034B1B681846BD465DF8047B704700BFC4
:105070004C02002080B58AB000AF0B23FB610223F5
:105080003B760A237B62022387F8203001233B70A2
:1050900001237B700C4B7B6001233B720023FB6080
:1050A00001237B7401233B744FF47063BB820F2395
:1050B0007B8207F11802394608230448FEF788FF6F
:1050C00000BF2837BD4680BDDDFB050000C00040A5
:1050D00080B582B002AF064B0193022300930123F7
:1050E000F32240210348FFF783F800BFBD4680BD8F
:1050F0005002002000C0004090B58BB000AF324B92
:105100001B6807EE903AF8EE677A17EE900A00F007
:1051100049FB27A3D3E9002300F09CFB03460C4680
:10512000184621464FF00002284B00F0BDFC034614
:105130000C461846214620A3D3E9002300F0D2F9FB
:1051400003460C461846214600F096FD03467B6256
:10515000786A00F027FB1AA3D3E9002300F07AFB5A
:1051600003460C46184621464FF00002184B00F04B
:10517000BBF903460C461846214600F07DFD034668
:105180003B62386A00F00EFB03460C46C7E9063462
:10519000381DD7E906230F4901F068FA3B1D184670
:1051A000FEF7EAFA3B6A18462C37BD4690BD00BFB1
:1051B000D7A3703D0AF76540CDCCCCCCCC6C474032
:1051C000CDCCCCCCCCCCFC3F500200200000F04039
:1051D000000040401C86000080B400AF054B1B69F6
:1051E000044A23F00403136130BF00BFBD465DF8DD
:1051F000047B704700ED00E080B483B000AF002373
:105200007B6007E0084A7B68002142F823107B6836
:1052100001337B607B68042BF4DD00BF0C37BD4697
:105220005DF8047B704700BF5402002080B500AFDA
:105230000F4B1B68002B17DC0D4B5B68002B15DC3C
:105240000B4B9B68002B02DDFFF7C6FF0FE0084BFE
:10525000DB68002B03DD0120FCF7BAFC07E001202E
:10526000FCF7DCFC00BF02E000BF00E000BF80BD37
:105270005402002080B483B000AF00237B600AE0BA
:105280000A4A7B6852F82330002B01D07B6806E085
:105290007B6801337B607B68042BF1DD04231846B7
:1052A0000C37BD465DF8047B704700BF54020020F8
:1052B00080B582B000AF786072B60C4A7B6852F855
:1052C00023305A1C09497B6841F82320074A7B6830
:1052D00052F82330092B03DD94210548FBF72AF807
:1052E00062B600BF0837BD4680BD00BF5402002033
:1052F0002C86000080B582B000AF786072B60C4A90
:105300007B6852F823305A1E09497B6841F82320F4
:10531000074A7B6852F82330002B03DAA6210548A0
:10532000FBF708F862B600BF0837BD4680BD00BF76
:10533000540200202C86000080B400AF044BDB6CCC
:105340001B0EDBB21846BD465DF8047B704700BFFC
:10535000B081E00F80B582B000AF164B01225A64D5
:10536000FFF7EAFF0346FB71FB79002B0CD1124BD0
:105370004AF6E8521A60114B1B68104A43F00403C6
:1053800013600D4B00221A60FB79012B05D80C4BE2
:105390001B680B4A43F4005313600A4B1B6A23F447
:1053A0004413084A43F48813136200BF0837BD460C
:1053B00080BD00BF00000E4090310E4098310E407D
:1053C00064310E4000400E40B0B58AB000AF3F4B94
:1053D00007F118040FCB84E80F003D4B3C1D1D4620
:1053E0000FCD0FC42B682380FFF7B4FF00233B7061
:1053F00000237B7007F118031846FCF78BFF02238C
:105400007B703B461846FCF7C5FC3B1D1846FBF776
:105410007FFF3048FBF7BCFE012201210320FBF790
:10542000F9FF05211120FBF791FC00220021022049
:10543000FBF7F0FFFEF784F8FFF710FE034603F0DA
:105440001003002B03D140212348FAF773FFFFF725
:1054500005FE034603F01003002B01D0FEF71EF9F2
:10546000FFF7FCFD0346002B01D1FFF7DFFEFFF73E
:10547000F5FD034603F00103002B01D0FEF7AEF863
:10548000FFF7ECFD034603F00203002B01D0FEF70B
:10549000B3F8FFF7E3FD034603F00403002B01D04C
:1054A000FEF7B8F8FFF7DAFD034603F00803002B18
:1054B00001D0FEF7C5F8FFF7D1FD034603F0200346
:1054C000002BC4D0FEF706F9C1E700BF64860000D8
:1054D0007486000080BA8C015486000081F000417F
:1054E00002E000BF83F0004330B54FEA41044FEAC9
:1054F000430594EA050F08BF90EA020F1FBF54EA64
:10550000000C55EA020C7FEA645C7FEA655C00F0FF
:10551000E2804FEA5454D4EB5555B8BF6D420CDDD0
:105520002C4480EA020281EA030382EA000083EA53
:10553000010180EA020281EA0303362D88BF30BDF3
:1055400011F0004F4FEA01314FF4801C4CEA113149
:1055500002D0404261EB410113F0004F4FEA0333A8
:105560004CEA133302D0524263EB430394EA050F33
:1055700000F0A780A4F10104D5F1200E0DDB02FAA2
:105580000EFC22FA05F2801841F1000103FA0EF236
:10559000801843FA05F359410EE0A5F120050EF1FC
:1055A000200E012A03FA0EFC28BF4CF0020C43FA2D
:1055B00005F3C01851EBE37101F0004507D54FF03A
:1055C000000EDCF1000C7EEB00006EEB0101B1F58A
:1055D000801F1BD3B1F5001F0CD349085FEA3000D0
:1055E0004FEA3C0C04F101044FEA445212F5800FDB
:1055F00080F09A80BCF1004F08BF5FEA500C50F178
:10560000000041EB045141EA050130BD5FEA4C0C5A
:10561000404141EB010111F4801FA4F10104E9D1E3
:1056200091F0000F04BF01460020B1FA81F308BFDA
:105630002033A3F10B03B3F120020CDA0C3208DDA6
:1056400002F1140CC2F10C0201FA0CF021FA02F181
:105650000CE002F11402D8BFC2F1200C01FA02F1F1
:1056600020FA0CFCDCBF41EA0C019040E41AA2BF16
:1056700001EB0451294330BD6FEA04041F3C1CDADE
:105680000C340EDC04F11404C4F1200220FA04F0FE
:1056900001FA02F340EA030021FA04F345EA0301A8
:1056A00030BDC4F10C04C4F1200220FA02F001FA6A
:1056B00004F340EA0300294630BD21FA04F02946EC
:1056C00030BD94F0000F83F4801306BF81F4801185
:1056D0000134013D4EE77FEA645C18BF7FEA655CF8
:1056E00029D094EA050F08BF90EA020F05D054EACA
:1056F000000C04BF1946104630BD91EA030F1EBFCF
:105700000021002030BD5FEA545C05D140004941D2
:1057100028BF41F0004130BD14F580043CBF01F5C5
:10572000801130BD01F0004545F0FE4141F47001AB
:105730004FF0000030BD7FEA645C1ABF1946104686
:105740007FEA655C1CBF0B46024650EA013406BF87
:1057500052EA033591EA030F41F4002130BD00BF46
:1057600090F0000F04BF0021704730B54FF4806403
:1057700004F132044FF000054FF0000150E700BF84
:1057800090F0000F04BF0021704730B54FF48064E3
:1057900004F1320410F0004548BF40424FF00001D0
:1057A0003EE700BF42004FEAE2014FEA31014FEA13
:1057B00002701FBF12F07F4393F07F4F81F0605162
:1057C000704732F07F4208BF704793F07F4F04BFAD
:1057D00041F40021704730B54FF4607401F000458A
:1057E00021F000411CE700BF50EA010208BF7047EA
:1057F00030B54FF000050AE050EA010208BF7047DB
:1058000030B511F0004502D5404261EB41014FF443
:10581000806404F132045FEA915C3FF4D8AE4FF04B
:1058200003025FEADC0C18BF03325FEADC0C18BF2E
:10583000033202EBDC02C2F1200300FA03FC20FA7F
:1058400002F001FA03FE40EA0E0021FA02F11444CC
:10585000BDE600BF70B54FF0FF0C4CF4E06C1CEAE5
:1058600011541DBF1CEA135594EA0C0F95EA0C0F56
:1058700000F0DEF82C4481EA030621EA4C5123EAC9
:105880004C5350EA013518BF52EA033541F48011F8
:1058900043F4801338D0A0FB02CE4FF00005E1FBAB
:1058A00002E506F00042E0FB03E54FF00006E1FBF5
:1058B00003569CF0000F18BF4EF0010EA4F1FF0438
:1058C000B6F5007F64F5407404D25FEA4E0E6D4178
:1058D00046EB060642EAC62141EA55514FEAC52089
:1058E00040EA5E504FEACE2EB4F1FD0C88BFBCF505
:1058F000E06F1ED8BEF1004F08BF5FEA500E50F1B6
:10590000000041EB045170BD06F0004646EA01017B
:1059100040EA020081EA0301B4EB5C04C2BFD4EBAD
:105920000C0541EA045170BD41F480114FF0000EA6
:10593000013C00F3AB8014F1360FDEBF002001F014
:10594000004170BDC4F10004203C35DA0C341BDC8E
:1059500004F11404C4F1200500FA05F320FA04F060
:1059600001FA05F240EA020001F0004221F0004194
:1059700010EBD37021FA04F642EB06015EEA430E07
:1059800008BF20EAD37070BDC4F10C04C4F1200537
:1059900000FA04F320FA05F001FA04F240EA0200EA
:1059A00001F0004110EBD37041F100015EEA430EBB
:1059B00008BF20EAD37070BDC4F1200500FA05F2DB
:1059C0004EEA020E20FA04F301FA05F243EA02035A
:1059D00021FA04F001F0004121FA04F220EA020069
:1059E00000EBD3705EEA430E08BF20EAD37070BDAF
:1059F00094F0000F0FD101F00046400041EB01018F
:105A000011F4801F08BF013CF7D041EA060195F070
:105A1000000F18BF704703F00046520043EB03032A
:105A200013F4801F08BF013DF7D043EA0603704717
:105A300094EA0C0F0CEA135518BF95EA0C0F0CD022
:105A400050EA410618BF52EA4306D1D181EA030168
:105A500001F000414FF0000070BD50EA410606BF62
:105A60001046194652EA430619D094EA0C0F02D1A7
:105A700050EA013613D195EA0C0F05D152EA0336EC
:105A80001CBF104619460AD181EA030101F000410A
:105A900041F0FE4141F470014FF0000070BD41F053
:105AA000FE4141F4780170BD70B54FF0FF0C4CF42D
:105AB000E06C1CEA11541DBF1CEA135594EA0C0F4C
:105AC00095EA0C0F00F0A7F8A4EB050481EA030E99
:105AD00052EA03354FEA013100F088804FEA033380
