S01400004D4D5F46696E616C5F4C6162372E73333758
S113000000000420C1010000ED010000ED0100002A
S1130010ED010000ED010000ED010000ED01000024
S1130020ED010000ED010000ED010000ED01000014
S1130030ED010000ED010000ED010000ED01000004
S1130040ED010000ED010000ED010000ED010000F4
S1130050ED010000ED010000ED010000ED010000E4
S1130060ED010000ED010000ED010000ED010000D4
S1130070ED010000ED010000ED010000ED010000C4
S1130080ED0100005D460000ED010000ED010000FF
S1130090ED010000ED01000035500000ED0100000D
S11300A0ED010000ED010000ED0100000149000038
S11300B0ED010000ED010000ED010000ED01000084
S11300C0ED010000ED010000ED010000ED01000074
S11300D0ED010000ED010000ED010000ED01000064
S11300E0ED010000ED010000ED010000ED01000054
S11300F0ED010000ED010000ED010000ED01000044
S1130100ED010000ED010000ED01000010B5054C0B
S1130110237833B9044B13B10448AFF300800123AF
S1130120237010BDEC01002000000000F08D0000E1
S113013008B5034B1BB103490348AFF3008008BD66
S113014000000000F0010020F08D0000154B002B92
S113015008BF134B9D46A3F5803A00218B460F46FA
S11301601348144A121A06F070F80F4B002B00D0F3
S113017098470E4B002B00D0984700200021040024
S11301800D000D48002802D00C48AFF3008006F0A3
S11301902DF82000290005F065FB06F013F800BFD8
S11301A0000008000000042000000000000000001F
S11301B0EC010020BC04002000000000000000004E
S11301C0064880470649074A074B9A42BEBF51F882
S11301D0040B42F8040BF8E7FFF7B8FFCD02000068
S11301E0FC8D000000000020EC010020FEE700BFB1
S11301F080B582B000AF00F025F878600A4BD3F8E0
S113020008311B0AC3F308033B603B6801337A6877
S1130210B2FBF3F37B60054A7B6813607B68184686
S11302200837BD4680BD00BF00400E4008000020D6
S113023080B400AF024B1846BD465DF8047B70479E
S1130240005A620280B483B000AF164BD3F89430E6
S113025003F00703032B08D0042B02D0022B08D091
S11302600BE0114B1B687B600BE04FF400437B6099
S113027007E00E4B1B687B6003E00D4B1B687B6043
S113028000BF084BD3F800311B0A03F01F030133EE
S11302907A68B2FBF3F318460C37BD465DF8047B6D
S11302A0704700BF00400E40040000200000002002
S11302B00C00002080B400AF034B1B681846BD46F9
S11302C05DF8047B704700BF0000002080B400AFDD
S11302D0074B084A9A60064BD3F88830044A43F423
S11302E07003C2F8883000BFBD465DF8047B7047D8
S11302F000ED00E00000000080B400AF4FF40043C4
S11303001846BD465DF8047B704780B400AF4FF4D7
S11303107A731846BD465DF8047B704780B400AF1D
S1130320034B1B681846BD465DF8047B704700BF4D
S11303300400002080B483B000AF78603960FEE729
S113034080B487B000AFF860B9607A60FB6803F1ED
S11303500473DA00BB6813449B007B617B697A6891
S11303601A6000BF1C37BD465DF8047B704780B43B
S113037085B000AF786039607B6803F10473DA00FC
S11303803B6813449B00FB60FB681B6818461437EA
S1130390BD465DF8047B704780B582B000AF7860DD
S11303A07B681F2B04D940F64E210548FFF7C2FF96
S11303B001227B6802FA03F318460837BD4680BD64
S11303C06885000080B500AF00BF12210348FFF725
S11303D0CEFF0346002BF8D100BF80BD04300E4091
S11303E080B500AFFFF7EEFF034B5B681B0C03F017
S11303F00303DBB2184680BD00300E4080B584B0E4
S113040000AF78600123FB607B68124A934204D8F2
S11304100023FB600023BB6008E07B680E4A934224
S113042002D80123BB6001E00223BB60FA681021FB
S11304300A48FFF785FF094BD3F8003123F0807297
S1130440BB681B0605491343C1F8003100BF1037D0
S1130450BD4680BD0048E8010090D00300400E4036
S113046080B483B000AF054B1B687B607B68184683
S11304700C37BD465DF8047B704700BF10000020B8
S113048080B582B000AFFFF7DDFE7860064BD3F88D
S113049000311B0A03F01F0301337A6802FB03F3E4
S11304A018460837BD4680BD00400E4080B582B076
S11304B000AF0F4800F066FB0346FB70FB78072B88
S11304C005D0092B07D1FFF7BDFE78600BE0FFF7DD
S11304D0C7FF786007E000237B6040F69A21054857
S11304E0FFF728FF00BF7B6818460837BD4680BD6C
S11304F006000E00C085000080B584B000AF7860AF
S11305007B68002B1CD1204800F03CFB0346FB72A7
S113051000BFFB7A013B072B28D801A252F823F035
S11305204F0500006D0500006D0500005D0500002D
S11305306D0500006D05000055050000650500000F
S113054040F6BA211148FFF7F5FE002317E0002317
S1130550FB6013E0FFF784FFF8600FE0FFF7AAFEEB
S1130560F8600BE0FFF78CFFF86007E00023FB6006
S113057040F6D1210548FFF7DDFE00BFFB681846B1
S11305801037BD4680BD00BFB8003200C0850000F2
S113059080B584B000AF78603960204B5B6803F0AD
S11305A04073FB600023BB6012E01D4ABB68DB00A4
S11305B013441A793B68DBB29A4206D1184ABB68E5
S11305C052F833307A689A4206D9BB680133BB606B
S11305D0BB68042BE9D900E000BFBB68052B07D139
S11305E00323FB6040F6D8310E48FFF7A3FE05E075
S11305F00B4ABB68DB0013445B79FB60FB681B069A
S1130600FB60064B5B6823F040720449FB681343AC
S11306104B6000BF1037BD4680BD00BF00000E40D8
S1130620D4850000C085000080B582B000AF0E4BB9
S11306301B6C002B14BF01230023FB710A4B41F6F2
S113064071321A64FFF7F4FD034600211846FFF7E0
S11306509FFFFB79002B02D0034B00221A6400BFDA
S11306600837BD4680BD00BF00000E4080B584B091
S113067000AF786039600C4B1B6C002B14BF012356
S11306800023FB73084B41F671321A6439687868A9
S1130690FFF77EFFFB7B002B02D0034B00221A6482
S11306A000BF1037BD4680BD00000E4080B487B047
S11306B000AF78600F237B617B6803333B617B6908
S11306C0FB60FA683B69934228BF1346BB60BB6872
S11306D01B07BB60BB6818461C37BD465DF8047B2E
S11306E07047000080B400AF044B5B6A1B0903F041
S11306F003031846BD465DF8047B704700400E4076
S113070080B483B000AF7860074B5B6A23F030029B
S11307107B681B01044913434B6200BF0C37BD4681
S11307205DF8047B704700BF00400E4090B585B073
S113073000AF78600023BB607B683C4A93420BD0D7
S11307403B4A934208D03B4A934205D040F6C94104
S11307503948FFF7EFFD00E000BF786800F012FAB7
S11307600346FB607B68314A93420CD0304A934283
S113077010D0304A934214D1304BD3F8803003F078
S11307800703FB6013E02D4BD3F8843003F0070319
S1130790FB600CE0294BD3F8883003F00703FB60BF
S11307A005E040F6F8412448FFF7C4FD00BFFB68AC
S11307B0042B2ED801A252F823F000BF0D0800002C
S11307C0D1070000D9070000E9070000E107000095
S11307D0FFF792FDB86024E0FFF7A0FDB86020E0C9
S11307E0FFF793FDB8601CE0FFF702FD0446134BCE
S11307F0D3F800311B0E03F0010301331846FFF751
S1130800CBFD0346B4FBF3F3BB600AE00023BB60FB
S113081007E00023BB6040F64A510748FFF78AFD12
S113082000BFBB6818461437BD4690BD03002000C6
S11308300500240002001E00C085000000400E4098
S113084080B483B000AF78600A4BD3F8443103F02E
S11308500103002B08D100BF064BD3F840217B686D
S11308601340002BF8D100E000BF0C37BD465DF803
S1130870047B704700400E4080B400AF00BFBD460B
S11308805DF8047B704780B400AF00BFBD465DF8DF
S1130890047B704780B586B000AF78600B46FB7070
S11308A000233B617B681B0A03F00F03013B092B08
S11308B032D801A252F823F0E1080000ED0800004C
S11308C01909000019090000E7080000F3080000F6
S11308D0FD080000190900000709000013090000C1
S11308E01A4B7B611EE01A4B7B611BE0194B7B6149
S11308F018E0194B7B6101233B6113E0174B7B61CB
S113090010233B610EE0164B7B614FF480333B6157
S113091008E0144B7B6105E041F23C111248FFF7FB
S113092009FD10E07B681B0B03F01F03FB603B69B0
S1130930002B02D03869FFF783FFFB781A46F96869
S11309407869FFF7FDFC1837BD4680BD00400E40B6
S1130950B0400E40C0400E40E0400E40E8400E4023
S1130960F0400E4050410E40C085000080B584B078
S113097000AF78607B6803F47813B3F5A01F7DD0D3
S1130980B3F5A01F1AD8B3F5202F50D0B3F5202FFC
S113099008D8B3F5003F4ED0B3F5802F38D0002BE4
S11309A032D0D8E0B3F5602F00F0C880B3F5801FD3
S11309B000F0C880B3F5402F4CD0CCE0B3F5001F55
S11309C000F08B80B3F5001F0AD8B3F5D01F00F0F8
S11309D08980B3F5F01F4CD0B3F5B01F5CD0BAE0FA
S11309E0B3F5381F6AD0B3F5381F04D8B3F5101F18
S11309F000F09F80AFE0B3F5401F00F08680B3F5B0
S1130A00481F00F0A380A6E0FFF71CFCF860AAE0F2
S1130A10FFF718FCF860564BD3F80C311B0AC3F3EC
S1130A2008030133FA68B2FBF3F3FB609BE0FFF7C2
S1130A3009FCF86097E0FFF705FCF8604C4BD3F82D
S1130A4008311B0AC3F308030133FA68B2FBF3F35A
S1130A50FB6088E0FFF7F6FBF860454BD3F81431F0
S1130A601B0A03F01F030133FA68B2FBF3F3FB60C4
S1130A7079E04048FFF75AFEF86074E03E48FFF71B
S1130A8055FEF8603A4BD3F8303103F00303FA68AB
S1130A9022FA03F3FB6066E03648FFF747FEF8608E
S1130AA0334BD3F8203103F00F031846FFF774FCDF
S1130AB00246FB68B3FBF2F3FB6054E02D48FFF7FA
S1130AC035FEF8602A4BD3F820311B0903F00303E9
S1130AD0FA6822FA03F3FB6045E02848FFF726FE94
S1130AE0F86040E02548FFF721FEF860204BD3F87A
S1130AF028311B0903F003031846FFF74DFC024697
S1130B00FB68B3FBF2F3FB602DE01C48FFF70EFE1D
S1130B10F860174BD3F828311B0A03F0030304339E
S1130B201846FFF739FC0246FB68B3FBF2F3FB609F
S1130B3019E01148FFF7FAFDF86014E0FFF7B6FC7E
S1130B40F86010E0FFF78CFCF8600CE00020FFF781
S1130B50D3FCF86007E00023FB6041F262210848FF
S1130B60FFF7E8FB00BFFB6818461037BD4680BDA1
S1130B7000400E4002001E00050024000300200077
S1130B80C085000080B584B000AF78600123FB739A
S1130B907B6803F00F03BB60BB68013B072B00F2CB
S1130BA0C48001A252F823F0C90B00001F0C0000FE
S1130BB04F0C00002B0D0000950C0000C50C00002C
S1130BC02B0D0000E90C00005E4BD3F8943003F0C9
S1130BD00703023B052B1ED801A252F823F000BFE5
S1130BE0050C0000FF0B0000F90B00000B0C0000CB
S1130BF0170C0000110C00000223FB730EE003230A
S1130C00FB730BE00423FB7308E00B23FB7305E089
S1130C100C23FB7302E00523FB7300BF8DE0494BFB
S1130C20D3F8803003F00703022B06D0042B07D03F
S1130C30012B08D10323FB7308E00223FB7305E0B7
S1130C400A23FB7302E00123FB7300BF75E03D4BF5
S1130C50D3F8843003F00703013B032B16D801A219
S1130C6052F823F0750C00007B0C0000870C000088
S1130C70810C00000323FB730BE00223FB7308E0E9
S1130C800A23FB7305E00623FB7302E00123FB73D5
S1130C9000BF52E02B4BD3F8883003F00703022B3C
S1130CA006D0042B07D0012B08D10323FB7308E0E3
S1130CB00223FB7305E00A23FB7302E00123FB73A9
S1130CC000BF3AE01F4B1B6F03F00103002B04D05D
S1130CD0012B05D10923FB7305E00723FB7302E015
S1130CE00123FB7300BF28E0164BD3F85C3103F0FB
S1130CF03003102B0CD0102B02D8002B05D010E0A1
S1130D00202B08D0302B09D00BE00123FB730BE020
S1130D100723FB7308E00423FB7305E00823FB733C
S1130D2002E00123FB7300BF07E00023FB7341F2E1
S1130D3076610548FFF7FEFA00BFFB7B18461037C3
S1130D40BD4680BD00400E40C085000080B58AB01D
S1130D5000AF78600B46FB7003237B62032387F8A4
S1130D6023300023BB6100237B617B68112B19D1E5
S1130D70FB78042B03D1FFF79DFA78610BE0FB7835
S1130D80052B08D100F0F8F90246BB4B9A4202D970
S1130D9000F0F2F978617B69002B03D000217869B7
S1130DA000F070FF7B6803F00F033B613B69013B7C
S1130DB0072B00F2578101A252F823F0DD0D000049
S1130DC0E90E00001B0F000065100000FD0E00007E
S1130DD0BD0F000065100000E70F0000FB78023B28
S1130DE00A2B49D801A252F823F000BF190E0000C3
S1130DF0250E0000310E0000430E0000790E0000A5
S1130E00790E0000790E0000790E00006D0E0000CE
S1130E10550E0000610E000004237B62002387F856
S1130E2023302FE003237B62012387F8233029E05A
S1130E3002237B62022387F823309048FFF7DEFA0F
S1130E4020E001237B62032387F823308B48FFF7DC
S1130E50D5FA17E005237B62032387F8233011E0DA
S1130E6007237B62062387F823300BE041F23471B9
S1130E708348FFF75FFAFBE041F239718048FFF7DE
S1130E8059FAF5E097F82330062B06D097F823306B
S1130E9001220121184600F0BDFAFFF7C5FBFFF758
S1130EA0EBFC7B69002B01D0FFF78CFA754A7B6A57
S1130EB053677548FFF75AFD03461846FFF79EFA35
S1130EC0FFF796F9F860FFF78BFA03461946F868BE
S1130ED0FFF7CCFB7B69002B03D10121002000F03C
S1130EE0D1FEFFF7D0FCC3E0684BBB61FB78062B57
S1130EF004D141F275716248FFF71CFABB69002BFB
S1130F0001D0BB6900E0624BBB61FB78062B04D1C6
S1130F1041F289715A48FFF70DFABB69002B01D0E1
S1130F20BB6900E05B4BBB61FB78013B092B3BD801
S1130F3001A252F823F000BF610F0000670F000008
S1130F40770F0000A90F0000A90F0000870F000011
S1130F50A90F0000A90F0000A90F0000A30F0000B3
S1130F600023FB6126E001220121002000F052FA57
S1130F700223FB611EE001220121012000F04AFA54
S1130F800123FB6116E0FFF733F903461846FFF728
S1130F9035FA012202214048FFF7D2F90323FB610D
S1130FA008E00423FB6105E041F2AE713448FFF729
S1130FB0C1F95DE0BB69FA691A6059E0FB78072B57
S1130FC002D0092B04D007E02E4B00221A6709E057
S1130FD02C4B01221A6705E041F638012848FFF737
S1130FE0A9F945E044E0FB78013B072B28D801A28E
S1130FF052F823F0151000004110000041100000C9
S11310002B10000041100000411000001B100000D4
S11310103B1000000023FB6118E0012201210420A1
S113102000F0F8F90123FB6110E001220121022004
S113103000F0F0F90223FB6108E00323FB6105E003
S113104041F696010E48FFF775F911E00D4BD3F800
S11310505C3123F03002FB691B010A491343C1F8D8
S11310605C3105E041F66D110548FFF763F900BFF7
S11310702837BD4680BD00BF002D31010148E8017D
S1131080C085000000400E4000250A0080400E404C
S113109088400E4084400E40B0400E4080B483B07F
S11310A000AF78607B68294A93422FD0274A934245
S11310B010D8274A934221D0254A934203D8254A7F
S11310C093421BD03AE0244A934217D0234A9342D6
S11310D018D033E0224A934224D0214A934206D8BE
S11310E0204A934216D0204A934217D026E01F4A42
S11310F093421BD01E4A93421CD01FE01D4BD3F8D1
S113110080301CE01B4BD3F88C3018E0194BD3F81B
S1131110983014E0174BD3F89C3010E0154BD3F8FB
S1131120A0300CE0134BD3F8A83008E0114BD3F8EF
S1131130AC3004E00F4BD3F8B03000E00023184685
S11311400C37BD465DF8047B704700BF405DC600A8
S113115080841E0040420F0000093D00C0CF6A0099
S113116080BA8C010024F400C0EA21010048E8019F
S113117080D54302B081E00F80B400AF034B1B68FD
S11311801846BD465DF8047B704700BF0C00002084
S113119080B586B000AF78607868FFF77FFF78612C
S11311A07B69002B03D07B69B3F1FF3F04D141F687
S11311B0FF214F48FFF7BEF84E4B1B683B614D4A79
S11311C07B6813601120FFF7DDFC0346052B03D178
S11311D0FFF72AFAFFF750FB00BF18214648FFF734
S11311E0C6F80346002BF8D17B69B3F1FF3F04D165
S11311F041F610313E48FFF79DF87B683F4A934221
S11312000DD03F4A934211D03E4A934200D012E09F
S11312107B6923F0C06343F080637B610BE07B69EF
S113122023F0C06343F000737B6104E07B6923F027
S1131230C0637B6100BF1120FFF7A4FC0346052BAC
S113124002D17868FFF7DAF87A683B699A4203D9E1
S11312500121786800F016FD2B4A7B691361112087
S1131260FFF790FC0346052B26D1FEF7C1FFF8607B
S1131270FA687B689A4204D941F63C311C48FFF76E
S113128059F81C4B1B68FA689A4204D941F63D315F
S11312901748FFF74FF8174B1B687A689A4204D037
S11312A041F63E311248FFF745F8FFF799F8034637
S11312B01946F868FFF7DAF91448FFF757FB0346B5
S11312C01846FFF79BF87A683B699A4203D80121D4
S11312D0002000F0D7FC1120FFF754FC0346052B37
S11312E001D1FFF7D0FA00BF1837BD4680BD00BF5B
S11312F0C08500000C00002040410E4080841E0088
S113130000093D0040420F0000400E4000250A0045
S113131090B585B000AF78601120FFF733FC034629
S1131320042B04D141F61D413748FFF703F801228D
S11313300021022000F06EF87B685B78002B07D157
S11313407B689B78002B03D17B68DB78002B04D06F
S113135041F65B412C48FEF7EDFF0023FB607B6800
S11313601B7C012B04D14FF4E3512748FEF7E2FF25
S11313707B681B7C022B01D10123FB60234B5B6A3E
S113138023F001022149FB6813434B627B681B78FD
S11313901A4608211E48FEF7D3FF7B689B88DB02B0
S11313A07A68527A1146194A0B43D362174B1B6B66
S11313B003F07F627B68DB88DB0213437A68927AEE
S11313C01A437B681B7ADB0142EA03047B681B7ABD
S11313D01846FFF76BF903460C4A234313637B68F3
S11313E05B7B1A037B689B7B1B0113437A68D27B6C
S11313F01A437B681B7B1B04044913434B6300BFE4
S11314001437BD4690BD00BFC085000000400E40AB
S113141024400E4080B588B000AF0346FB710B46F4
S1131420BB7113467B71FB79042B3CD801A252F8A3
S113143023F000BF911400007F1400005B1400002F
S1131440491400006D14000001237B6102233B61F9
S11314500123FB610023BB612BE004237B61082390
S11314603B610323FB610223BB6122E010237B6108
S113147020233B610523FB610423BB6119E0402366
S11314807B6180233B610723FB610623BB6110E082
S11314904FF480737B614FF400733B610923FB615C
S11314A00823BB6105E041F665514548FEF742FF5C
S11314B083E0BB79002B64D00023FB73FB79022B00
S11314C01AD1FFF70FF90346002B15D13D4BDB6B07
S11314D003F48063002B04D141F674513848FEF7BD
S11314E029FF0123FB73384B5B6A03F00103012BD3
S11314F002D10120FFF704F9334A7B69136600BF68
S1131500B9693248FEF733FF0346002BF8D07B79E4
S1131510002B52D000BFF9692C48FEF728FF034680
S1131520002BF8D0FB79022B47D1FB7B002B44D056
S1131530254B5B6A03F00103012B05D10122202115
S1131540022000F087F903E00021022000F028F9CE
S1131550022000F03DF8B860012200210220FFF7CC
S113156059FFB968022000F071F8174A7B691366C5
S113157000BFF9691548FEF7FAFE0346002BF8D0C0
S11315801BE0114A3B69136600BF0F4BD3F8903040
S11315900121BA6901FA02F21340002BF5D17B79DB
S11315A0002B0AD000BF084BD3F890300121FA6910
S11315B001FA02F21340002BF5D12037BD4680BD5D
S11315C0C085000000300E4000400E4090400E40A8
S11315D080B584B000AF0346FB71FB79013B032B5C
S11315E023D801A252F823F0F91500001D160000BB
S11315F00516000011160000124B1B6AC3F3080302
S1131600FB601AE00F4B1B6903F07F03FB6014E0DF
S11316100C4B9B6903F07F03FB600EE0094BD3F88E
S11316209C30C3F30A03FB6007E00023FB6041F630
S1131630F1510548FEF77EFE00BFFB6818461037DF
S1131640BD4680BD00400E40C085000080B584B01A
S113165000AF03463960FB71FB79013B032B00F2B9
S11316608C8001A252F823F0791600002D17000097
S1131670B9160000F31600003B68B3F5007F04D3ED
S113168041F617614248FEF755FE3B68C3F3080371
S11316903B6000BF1A213F48FEF769FE0346002B5A
S11316A0F8D13D4B1B6A23F4FF7323F001033A493D
S11316B03A6813430B6266E03B687F2B04D941F61A
S11316C024613348FEF736FE3B6803F07F033B603A
S11316D000BF18212F48FEF74AFE0346002BF8D11D
S11316E02D4B1B6923F07F022B493B6813430B618D
S11316F049E03B687F2B04D941F63F612448FEF75B
S113170019FE3B6803F07F033B6000BF19212148A9
S1131710FEF72DFE0346002BF8D11F4B9B6923F0E7
S11317207F021D493B6813438B612CE01A4BD3F8AD
S1131730903003F00403002B04D041F64E611448AA
S1131740FEF7F8FD144B5B6A23F03003124A43F0B2
S1131750100353623B68DB0903F00F031846FEF7DE
S1131760A5FFF8600C4B1A6B0C4B13403A681A43F4
S11317700949FB6813430B6305E041F668610448BB
S1131780FEF7D8FD00BF00BF1037BD4680BD00BFC7
S1131790C085000040410E4000400E4000F8FF0F9D
S11317A080B584B000AF03460A46FB711346BB7193
S11317B0FB79022B04D04FF4F4512348FEF7BAFD11
S11317C0FEF790FF0346002B03D14FF44003FB6068
S11317D01BE0BB79202B04D0302B0AD0002B04D083
S11317E00BE04FF40003FB600FE04FF44003FB6099
S11317F00BE04FF44003FB6007E0144BFB6041F641
S11318009B611148FEF796FD00BF00BF104BD3F853
S11318109020FB681340FA689A42F7D1FB6803F4FE
S11318208003002B0AD00A4BD3F8A03003F4806362
S1131830002B14BF01230023DBB200E00123184670
S11318401037BD4680BD00BFC0850000FF33E107EF
S113185000400E4080B582B000AF0346FB710B46DA
S1131860BB7113467B71FB79022B15D1BB79002B1D
S113187007D00F4B4FF48062C3F8A8200C4ABB7901
S113188053667B79002B0DD0BA79FB791146184643
S1131890FFF786FF034607E041F6D1610548FEF7EE
S11318A049FD00E000BF012318460837BD4680BD4E
S11318B000400E40C085000080B500AFFEF798FCE4
S11318C000BF80BD80B487B000AFF860B9607A60B3
S11318D0FB6803F10473DA00BB6813449B007B616B
S11318E07B697A681A6000BF1C37BD465DF8047BCB
S11318F0704780B485B000AF786039607B6803F1CD
S11319000473DA003B6813449B00FB60FB681B68AC
S113191018461437BD465DF8047B704780B500AFA8
S113192000BF12210348FFF7E4FF0346002BF8D160
S113193000BF80BD04300E4080B500AFFFF7EEFF5E
S1131940034B5B681B0C03F00303DBB2184680BD3A
S113195000300E4080B483B000AF7860044A7B68E6
S1131960D36200BF0C37BD465DF8047B704700BFEF
S113197000300E4080B400AF034B5B6A1846BD468E
S11319805DF8047B704700BF00300E4080B400AFA8
S1131990044B0022C3F8802100BFBD465DF8047BE0
S11319A0704700BF00400E4080B400AF044B45F6C2
S11319B00E02C3F8802100BFBD465DF8047B70476A
S11319C000400E4080B483B000AF0346FB71FB7946
S11319D0C3F10203102202FA03F318460C37BD4682
S11319E05DF8047B7047000090B585B000AF0346F6
S11319F0FB71FB79002B1BD1484BD3F89030484A3C
S1131A0013601120FFF7BEF803461A46454B1A70BF
S1131A10FFF784FF444B5B681B0CDBB203F003034A
S1131A20DAB2424B1A703D4B1B69414A136070E0B5
S1131A303E4B1B783C4C1846FFF7C4FF034623611A
S1131A40364BD3F8803103F00103FB60FFF7ACFFA2
S1131A500023BB60324B1B6803F00103BA681343D5
S1131A60BB602F4B1B6803F01003BA681343BB60C1
S1131A702B4B1B6803F04003BA681343BB60284B2D
S1131A801B6803F00403BA681343BB60244B1B6850
S1131A9003F48073BA681343BB60204ABB681366BF
S1131AA0FFF73CFF204B1B6803F01003002B18D0FA
S1131AB000BF1A4BD3F8403103F08073002BF8D1E8
S1131AC0164A1B4B1B681361164B1B78052B08D158
S1131AD0184B1C68FFF730FF034619462046FEF7F3
S1131AE0C5FD104B1B78052B05D00E4B1B781946F2
S1131AF01120FFF72BF90A4B1B6803F00103002B9D
S1131B0002D1064B02221A66FB68002B01D0FFF7B4
S1131B103DFF00BF1437BD4690BD00BF00400E40DE
S1131B20140200201802002000300E401902002088
S1131B301C0200200C00002080B582B000AFFFF72B
S1131B40EDFE104B1B681B0A03F003037B600D4B77
S1131B505B681B0C03F003033B607A683B689A42A2
S1131B6006D9084B1B68074A43F01003136005E0CD
S1131B70044B1B68034A23F01003136000BF0837AB
S1131B80BD4680BD00300E4080B483B000AF0C4B26
S1131B901B6803F01003002B0BD00A4B1B691B0CB2
S1131BA003F01F037B607B68082B02D1064B074AB6
S1131BB01A6000BF0C37BD465DF8047B704700BF58
S1131BC000300E4000400E400C000020C0EA21010D
S1131BD080B582B000AF0346FB71FB79002B02D0C5
S1131BE00020FFF701FFFFF7A7FF0B4B1B690A4A11
S1131BF043F00403136130BFFB79002B03D00120B1
S1131C00FFF7F2FE03E0FFF7BFFFFFF755FE00BF4B
S1131C100837BD4680BD00BF00ED00E080B584B04C
S1131C2000AF0346FB71FB79002B02D00020FFF7C5
S1131C30DBFEFFF781FF114BD3F8803103F0010382
S1131C40FB60FFF7B1FEFB68002B01D0FFF79EFE9F
S1131C500B4B1B690A4A43F00403136130BFFB7941
S1131C60002B03D00120FFF7BFFE03E0FFF78CFF3A
S1131C70FFF722FE00BF1037BD4680BD00400E4076
S1131C8000ED00E080B584B000AF78600B46FB70D7
S1131C90154BD3F800311B0A03F01F030133BB605B
S1131CA07B68002B07D1FEF7CDFA0246BB6802FB26
S1131CB003F3FB6001E07B68FB600C4B1B78002B9B
S1131CC009D0FB680A4A934205D8FB7819460220DA
S1131CD000F010F804E0FB781946002000F00AF840
S1131CE000BF1037BD4680BD00400E4010020020EA
S1131CF0FF2C310190B587B000AF03460A46FB7153
S1131D001346BB711F4BD3F800311B0A03F01F03AA
S1131D1001337B61FEF796FA3861FFF70DFE034647
S1131D20FB73FA7BFB799A4228D03B697A6902FB00
S1131D3003F3BB60FB79022B0CD1BB68124A9342BC
S1131D4004D940F2B3411148FEF7F4FA022138698C
S1131D50FEF78CFC0E4CFB791846FFF733FE034666
S1131D602361BB79002B01D0FFF7D8FDFB79002B51
S1131D7005D100213869FEF779FC00E000BF1C376B
S1131D80BD4690BD00400E40002D3101FC85000091
S1131D9000300E4080B582B000AF78600E4B1B68F7
S1131DA023F440727B685B781B020B4913430B607E
S1131DB07B685B78022B0AD1084B5B6A03F0005303
S1131DC0002B04D040F2ED410548FEF7B3FA00BF02
S1131DD00837BD4680BD00BF00300E4000400E40B5
S1131DE0FC85000080B400AF01231846BD465DF8B1
S1131DF0047B704780B582B000AF0C4BDB6E0B4A9E
S1131E0043F08073D36600210948FFF772FD7860C0
S1131E107B68002B03D0042000F040FD02E000208A
S1131E2000F03CFD00BF0837BD4680BD00300E40C9
S1131E304C300E4080B58AB000AF01237B627B6AD0
S1131E401B053B62404BDB6C1B0A03F00F03FB6179
S1131E503E4B1B881A463D4B1B8828335B081344B2
S1131E6003F12801FB695A1C13469B001344B1FB80
S1131E70F3F3013BBB61BB697B6107233B613A69B7
S1131E807B69934228BF1346BB61BB691B06BB61D8
S1131E90BB6923F0E063002B04D040F2CE612C48F0
S1131EA0FEF748FA3B6A23F4E003002B04D040F227
S1131EB0CF612748FEF73EFA234BDB6C23F0EE623A
S1131EC0B9693B6A0B4320491343CB64214BB3F9F3
S1131ED00030002B33DB1F4BB3F90030FB81FA8950
S1131EE0FB8928335B08134403F12802FB6901339F
S1131EF05900FB6901335B080B44B2FBF3F3BB608D
S1131F00BB687B6007233B603A687B68934228BFC9
S1131F101346BB60BB681B01BB60BB6823F0700346
S1131F20002B04D040F2E7610948FEF703FA064BA0
S1131F301B6D23F070020449BB6813430B6500BF9B
S1131F402837BD4680BD00BF00300E400802002087
S1131F50FC8500000C02002080B483B000AF7860E0
S1131F600B467B807B689AB2054B1A80054A7B88B6
S1131F70138000BF0C37BD465DF8047B704700BF7B
S1131F80080200200C02002080B582B000AF034696
S1131F90FB71FB79002B02D0012B04D007E0094B25
S1131FA0094A9A6509E0074B084A9A6505E040F238
S1131FB013710748FEF7BEF900BF00BF0837BD46DE
S1131FC080BD00BF00300E4077402057372110B746
S1131FD0FC85000080B584B000AF0346FB710B465E
S1131FE0BB7113467B71334BD3F88031FB60BB79F3
S1131FF0032B1DD801A252F823F000BF0D200000CE
S1132000152000001F20000029200000FB68DBB21F
S1132010FB6014E0FB681B0ADBB2FB600FE0FB68AB
S11320201B0CDBB2FB600AE0FB681B0EFB6006E0E6
S113203040F257712048FEF77DF9002336E07B79A2
S1132040002B16D1FB681B03FB60FB6823F4704371
S1132050002B06D040F262711748FEF76BF900239B
S113206024E0164BDB6E23F470421449FB681343DF
S1132070CB667B79012B18D1FB681B03FB60FB68E3
S113208023F47043002B06D040F26E710A48FEF729
S113209051F900230AE0094BD3F8EC3023F47042E1
S11320A00649FB681343C1F8EC3001231846103786
S11320B0BD4680BDB081E00FFC85000000300E40BD
S11320C080B588B000AFF860B96011461A460B4677
S11320D0FB711346BB710023FB610023BB61BB7919
S11320E01B02FA79002A01D0012200E000221343E6
S11320F07B617B6940F2011293422AD0B3F5817F60
S113210007D2012B19D0012B47D3B3F5807F50D0D0
S113211073E040F20122934227D040F2012293421D
S113212003D8B3F5007F50D067E0B3F5407F58D0B3
S113213040F20132934224D05FE0384BD3F874313B
S1132140FB61FB691B0ADBB2BB61FB69DBB2FB61B0
S113215059E0324BD3F87431FB61FB691B0EBB6150
S1132160FB691B0CDBB2FB614DE02C4BD3F87831DF
S1132170FB61FB691B0ADBB2BB61FB69DBB2FB6180
S113218041E0264BD3F87831FB61FB691B0EBB6140
S1132190FB691B0CDBB2FB6135E0204BD3F86C31DF
S11321A0FB61FB691B0ADBB2BB61FB69DBB2FB6150
S11321B029E01A4BD3F86C31FB61FB691B0EBB6140
S11321C0FB691B0CDBB2FB611DE0144BD3F87031CF
S11321D0FB61FB691B0ADBB2BB61FB69DBB2FB6120
S11321E011E00E4BD3F87031FB61FB691B0EBB6130
S11321F0FB691B0CDBB2FB6105E040F2D3710848BC
S1132200FEF798F800BFFB68FA691A60BB68BA6900
S11322101A6000BF2037BD4680BD00BFB081E00F0B
S1132220FC85000080B584B000AF0346FB7100BF9D
S1132230364B9B6F03F00103002BF9D1334B1B6C1E
S113224003F00303FB60FB68002B04D001220D2183
S11322502F48FFF737FBFB68DBB2FA799A4208D1C3
S1132260FB79002B4ED100220D212948FFF72AFBD0
S113227048E0FB68032B02D0FB68002B20D1FB79DC
S1132280022B02D0FB79012B1AD14FF40020FFF767
S113229061FB00BF1D4B9B6F03F00103002BF9D1C1
S11322A01A4B1B6C23F00303184A43F00103136415
S11322B000BFFFF75FFB034603F40023002BF8D0B5
S11322C000BF124B9B6F03F00103002BF9D10F4B9E
S11322D01B6C23F00302FB790C4913430B6400BF0E
S11322E00A4B9B6F03F00103002BF9D1FB79002B00
S11322F014BF01230023DBB21A460D210448FFF763
S1132300E1FA00E000BF1037BD4680BD00300E404A
S113231054300E4080B584B000AF78606B4B02221D
S11323209A636A4B9B6B03F00F03022B06D040F6B3
S11323306D016748FDF7FEFF0023C3E0FFF752FD80
S11323407B681B89C82B04D940F677016048FDF7E8
S1132350F1FF7B689A887B681B899A4204D940F60E
S113236078015B48FDF7E6FF7B68B3F90C30C82BB6
S113237004DD40F679015648FDF7DCFF7B685B78A5
S1132380012B09D17B689B88C82B12D940F67D01AB
S11323904F48FDF7CFFF0CE07B685B78022B08D138
S11323A07B689B880A2B04D940F682014848FDF7D4
S11323B0C1FF7B68DB8842F21072934204D940F675
S11323C08A014348FDF7B6FF7B68DB884A2B02D8B5
S11323D00023FB6015E07B68DB88B3F5FA7F03D24A
S11323E04FF08053FB600CE07B68DB8840F6C3123F
S11323F0934203D84FF00053FB6002E04FF0405388
S1132400FB60324BDB6C23F0405323F001037A680A
S1132410B2F90C20002A01DB012100E00021FA6856
S11324200A432A491343CB64284BD3F8EC30274A98
S113243043F44073C2F8EC30FFF7DCFC7B681B8983
S11324401A467B68B3F90C3019461046FFF784FD31
S11324507B689A881F4B1A807B689B88184600F01B
S1132460A9F97B689B7B1846FFF78EFD7B685B8828
S113247001220121184600F031F8034683F00103DC
S1132480DBB2002B06D040F6C1011148FDF752FF24
S1132490002317E00D4BDB6B0C4A43F48063D363DA
S11324A07B685B781846FFF7BDFE7B689B7A202B20
S11324B001D1012300E000231A4605210648FFF755
S11324C001FA012318461037BD4680BD00300E4086
S11324D0FC8500000A0200203C300E4090B595B007
S11324E000AF78600B46FB701346BB700023FB649F
S11324F000237B6407F1240300221A605A609A6067
S113250007F1180300221A605A609A6007F10C035D
S113251000221A605A609A6007F1080300210A46F3
S11325201A800A469A707B68B3F5E16F06D37B681C
S113253040F6B832934201D8012300E0002387F823
S1132540433097F8433003F0010387F8433097F89A
S1132550433083F00103DBB2002B06D040F60611B2
S11325609148FDF7E7FE002319E17B68B3F5E16FBD
S11325708CBF0123002387F8423097F84230002BA8
S11325800AD04FF4E163FB6440F6B8337B647A6CA1
S1132590FB6CD31ABB6409E04FF49663FB644FF4FD
S11325A0E1637B647A6CFB6CD31ABB6497F84230AA
S11325B0002B0BD07D4BD3F868313B623B6A1B0E7A
S11325C07B613B6A1B0CDBB23B620AE0774BD3F8BE
S11325D068313B623B6A1B0ADBB27B613B6ADBB25C
S11325E03B62734BDB6C1B0FDBB203F00303DBB208
S11325F03B723B7A97F8422007F10C0107F118006F
S1132600FFF75EFD6A4BD3F8EC301B0ADBB203F034
S11326100303DBB27B727C7A97F8422007F10C0348
S1132620191D07F11803181D2346FFF749FD7A68A1
S1132630FB6CD31A79693A6A8A1A02FB03F2BB6CFF
S1132640B2FBF3F3FB62FA6A3B6A1344FB627A68F7
S1132650FB6CD31AF968BA698A1A02FB03F2BB6CE1
S1132660B2FBF3F37B627A6ABB6913447B627A68D8
S1132670FB6CD31A3969FA698A1A02FB03F2BB6C40
S1132680B2FBF3F3BB62BA6AFB691344BB62FA6A36
S11326907B699A4213D8FA6A3B6A9A420FD3BA6AA0
S11326A03B699A420BD8BA6AFB699A4207D37A6AA1
S11326B0FB689A4203D87A6ABB699A4206D240F60A
S11326C054113948FDF736FE002368E0BB78002B2F
S11326D012D0374BDB6D23F4FE4323F00203FA6A76
S11326E01202134397F84220002A01D0022200E08C
S11326F000222F491343CB65FB78002B4ED0397A47
S113270097F8423000221846FFF764FC034683F032
S11327100103DBB2002B06D040F663112248FDF71B
S113272009FE00233BE0797A97F8423001221846EB
S1132730FFF750FC034683F00103DBB2002B06D005
S113274040F66B111848FDF7F5FD002327E07B6A7E
S1132750FB63BB6ABB63BA6BFB6B934238BF134624
S11327607B627B6A7B63E7233B633A6B7B6B9342BD
S113277028BF13467B620E4B5B6E23F4FF7323F07A
S113278001037A6A5200134397F84220002A01D0C9
S1132790012200E00022064913434B660123184638
S11327A05437BD4690BD00BFFC850000B081E00FEA
S11327B000300E4080B584B000AF78600023FB6029
S11327C0344B1B6F03F00703BB60324BDB6C03F02D
S11327D00103002B14D0BB68012B11D97B68132B88
S11327E002D80423FB603DE07B68132B05D97B688A
S11327F0272B02D80823FB6034E01023FB6031E070
S1132800244BDB6C03F00103002B14D1BB68012BB8
S113281011D87B68092B02D80423FB6022E07B6873
S1132820092B05D97B68132B02D80823FB6019E018
S11328301023FB6016E0174BDB6C03F00103002B45
S11328400BD0BB68012B08D87B68272B02D8082340
S1132850FB6007E01023FB6004E040F6A9110E487A
S1132860FDF768FDFB68013BFB60FB681A02FB682F
S11328701B031343FB60074BDB6C23F47F420549C6
S1132880FB681343CB64FFF7D5FA00BF1037BD468E
S113289080BD00BF00300E40FC85000080B584B0D0
S11328A000AF0346FB7100211148FFF722F8F860DE
S11328B0FB68002B02D1FB79012B07D9FB68002BA5
S11328C004D140F6C8110B48FDF734FD0A4B1B6FC9
S11328D023F00702FB79084913430B67074B1B8856
S11328E01846FFF767FF00BF1037BD4680BD00BF25
S11328F04C300E40FC85000000300E400A020020DF
S113290080B485B000AF786039607B6803F1C06340
S1132910FB60FB683A681A6000BF1437BD465DF877
S1132920047B704780B485B000AF786039607B6801
S113293003F18063FB60FB683A681A6000BF1437D8
S1132940BD465DF8047B704780B584B000AFF86085
S1132950B9607A60B968F868FFF7E4FF7968F868E5
S1132960FFF7CEFF00BF1037BD4680BD80B582B0F3
S113297000AF03463960FB71FB79002B38D0FB793B
S1132980012B32D0FB79022B2CD0FB79032B26D0E0
S1132990FB79042B21D0FB79052B1BD0FB79062B6B
S11329A016D0FB79072B11D0FB79082B0CD0FB79BF
S11329B0092B06D0FB790A2B01D107231AE0002347
S11329C018E04FF4404315E00F2313E0002311E017
S11329D000230FE04FF6FF730CE000230AE04FF4EE
S11329E07F4307E040F6FF7304E04FF6C07301E055
S11329F040F2FF333A68134103F00103002B04D182
S1132A0040F2DD310C48FDF795FCFA7913465B0082
S1132A1013441B010C3303F1804303F520430121CC
S1132A203A6801FA02F211461846FFF77BFF00BF2D
S1132A300837BD4680BD00BF1086000080B582B057
S1132A4000AF03463960FB71FB79002B38D0FB796A
S1132A50012B32D0FB79022B2CD0FB79032B26D00F
S1132A60FB79042B21D0FB79052B1BD0FB79062B9A
S1132A7016D0FB79072B11D0FB79082B0CD0FB79EE
S1132A80092B06D0FB790A2B01D107231AE0002376
S1132A9018E04FF4404315E00F2313E0002311E046
S1132AA000230FE04FF6FF730CE000230AE04FF41D
S1132AB07F4307E040F6FF7304E04FF6C07301E084
S1132AC040F2FF333A68134103F00103002B04D1B1
S1132AD040F20C410C48FDF72DFCFA7913465B00DB
S1132AE013441B010C3303F1804303F520430121FC
S1132AF03A6801FA02F211461846FFF701FF00BFD7
S1132B000837BD4680BD00BF1086000080B582B086
S1132B1000AF03463960FB71FB79002B1DD0FB79B4
S1132B20012B1AD0FB79022B17D0FB79032B14D07D
S1132B30FB79042B16D0FB79052B0ED0FB79062BE1
S1132B4010D0FB79072B0DD0FB79082B05D0FB792E
S1132B50092B02D0FB790A2B04D13B6823F0011323
S1132B60002B03D083210B48FDF7E4FBFA791346CD
S1132B705B0013441B0103F1804303F520433A68CF
S1132B804FF001111846FFF7DFFE00BF0837BD46BE
S1132B9080BD00BF6886000080B584B000AFB96016
S1132BA07B600346FB731346BB73FB7B002B38D05F
S1132BB0FB7B012B32D0FB7B022B2CD0FB7B032B2A
S1132BC026D0FB7B042B21D0FB7B052B1BD0FB7B6E
S1132BD0062B16D0FB7B072B11D0FB7B082B0CD0CC
S1132BE0FB7B092B06D0FB7B0A2B01D107231AE0C0
S1132BF0002318E04FF4404315E00F2313E00023B3
S1132C0011E000230FE04FF6FF730CE000230AE00D
S1132C104FF47F4307E040F6FF7304E04FF6C073C0
S1132C2001E040F2FF33BA68134103F00103002BC3
S1132C3004D140F213113948FDF77CFBBB7B002B18
S1132C400DD07B68002B05D0FB7BB9681846FFF7D5
S1132C50F5FE04E0FB7BB9681846FFF787FEBB6806
S1132C60072B20D82E49FA7B13465B0013441B0123
S1132C700B4404331A68BB689B000F2101FA03F369
S1132C80DB431340B97BBA68920001FA02F21146A1
S1132C902348FA7B194313465B0013441B01034486
S1132CA00433196025E01E49FA7B13465B00134484
S1132CB01B010B4408331A68BB6803F18043083BCB
S1132CC09B000F2101FA03F3DB4302EA0301BA7B01
S1132CD0BB6803F18043083B9B0002FA03F31048EE
S1132CE0FA7B194313465B0013441B010344083366
S1132CF01960BB7B002B0DD17B68002B05D0FB7BBF
S1132D00B9681846FFF79AFE04E0FB7BB9681846D9
S1132D10FFF72CFE00BF1037BD4680BD688600005B
S1132D2000A0004080B483B000AF786039607B6855
S1132D303A68DA6300BF0C37BD465DF8047B704720
S1132D4080B487B000AFF860B9607A60FB6803F1C3
S1132D500473DA00BB6813449B007B617B697A6867
S1132D601A6000BF1C37BD465DF8047B704780B411
S1132D7085B000AF786039607B6803F1C063FB60A5
S1132D80FB683A681A6000BF1437BD465DF8047BDF
S1132D90704780B485B000AF786039607B6803F118
S1132DA08063FB60FB683A681A6000BF1437BD4655
S1132DB05DF8047B704780B584B000AFF860B960FB
S1132DC07A60B968F868FFF7E4FF7968F868FFF794
S1132DD0CEFF00BF1037BD4680BD000080B588B06F
S1132DE000AFF860B9607A60FB707B68002B04D197
S1132DF040F215115448FDF79DFA7B68002B00F052
S1132E009E80FB7803F00303FB70FB681B6823F4CC
S1132E104072FB681A60F868FB781B021A464FF48C
S1132E204071FFF7C8FFBB68002B16D1FB68474A07
S1132E30934204D14648FDF799FDB8600DE0FB6864
S1132E40444A934204D14448FDF790FDB86004E03D
S1132E5040F22F113C48FDF76DFA4FF0FF33FB6150
S1132E60FB681B6803F00203002B10D0FB78012BD6
S1132E7007D0022B08D0002B00D019E0374BFB61A0
S1132E8016E0374BFB6113E0364BFB6110E0FB7837
S1132E90012B07D0022B08D0002B00D008E02F4BC9
S1132EA0FB6105E0304BFB6102E0304BFB6100BF8E
S1132EB0BA68FB699A4204D84FF4B2712248FDF70C
S1132EC039FAFB782A4AD35C7B617B697A6802FB16
S1132ED003F33B613B69002B05D140F275111A489D
S1132EE0FDF728FA2CE07B68DB00BA68D21A3B694C
S1132EF013445A1E3B69B2FBF3F3013BBB61BB694C
S1132F00002B04DA40F27B110F48FDF713FABB697A
S1132F10B3F5007F04D34FF4BE710B48FDF70AFAF2
S1132F20FB681B6803F00203002B04D0BB69002B71
S1132F3001D10123BB61BA69FB681A6100E000BFDB
S1132F402037BD4680BD00BF8086000000C0004021
S1132F500082040000C400400092040080841E002B
S1132F60404B4C00809FD50040548900002D310116
S1132F707C86000080B582B000AF78600B46FB70A1
S1132F807B680B4A934208D07B680A4A934204D078
S1132F9040F295110848FDF7CDF97B68FA780021D5
S1132FA01846FFF7CDFE00BF0837BD4680BD00BF01
S1132FB000C0004000C400408086000080B582B09C
S1132FC000AF786039607B68174A934208D07B6809
S1132FD0164A934204D04FF4D5711548FDF7AAF967
S1132FE07B6800221A6413497868FFF79BFE7868AF
S1132FF03B685B7883F00103DBB21A460121FFF7DB
S11330009FFE3B6859683B689A683B681B7B7868FD
S1133010FFF7E4FE3B681B7819467868FFF7AAFFC0
S113302000BF0837BD4680BD00C0004000C400405A
S113303080860000FFFF070080B586B000AFF8600F
S1133040B9607A60FB68114A934207D1BB68012BCF
S113305004D87B681B0C1B04002B03D0BD210C4837
S1133060FDF768F9BB68002B02D0012B04D00AE0FD
S1133070FB6810337B6103E0FB6814337B6100BFA2
S11330807B697A681A601837BD4680BD00600440C9
S11330909486000080B582B000AF78600B46FB7068
S11330A07B680A4A934203D0EA210948FDF742F9B2
S11330B0FB78002B03D07B6801225A6002E07B6816
S11330C002225A6000BF0837BD4680BD006004403C
S11330D09486000080B584B000AF78603960002326
S11330E0FB607B68374A934204D04FF4A57136489D
S11330F0FDF720F93B681B7883F00103DBB2002B5A
S113310008D07B689B6803F00103002B02D07B6826
S113311002225A603B685B78002B03D0FB6843F4BF
S11331208053FB603B689B78002B03D13B68DB68D2
S1133130002B07D0FB6843F40073FB603B68DA683C
S11331407B681A613B68DB78002B03D0FB6843F48F
S11331508073FB603B681B79002B03D0FB6843F052
S11331604003FB603B685B79002B03D0FB6843F0B2
S11331708003FB603B689B799B001A46FB68134302
S1133180FB603B68DB791B011A46FB681343FB6059
S11331903B681B7A1A46FB681343FB607B68FA683A
S11331A01A603B681B78002B08D07B689B6803F08F
S11331B00103002B02D17B6801225A6000BF103743
S11331C0BD4680BD006004409486000080B483B096
S11331D000AF786039607B681B6C03F00103002B3F
S11331E007D100BF7B685A6C3B681340002BF9D1B0
S11331F000E000BF0C37BD465DF8047B704700005B
S113320080B586B000AFF860B9607A607B68002B47
S113321004D14FF482711D48FDF78CF8BB68002B74
S113322010D1FB681A4A934206D11A4B7B61786924
S1133230FDF79CFBB86005E04FF496711348FDF769
S113324079F81FE0BB685A017B68B2FBF3F33B617A
S11332503B69203B3B613B69DB003B613B690E4AB8
S1133260934204D940F239110848FDF763F83A69EA
S1133270094B13403B610421F868FFF7A7FFFB6883
S11332803A69DA601837BD4680BD00BFAC860000DD
S113329000A0044090171A00F8FF010080B483B026
S11332A000AF78600B46FB70FB78002B08D000BFA2
S11332B07B685B6C002BFBD17B6801221A6402E003
S11332C07B6800221A6400BF0C37BD465DF8047B9E
S11332D07047000080B582B000AF786039607B68C9
S11332E01B4A934204D04FF4DF711A48FDF722F8C9
S11332F002217868FFF76AFF7B680A225A6001217D
S11333007868FFF7CBFF7B681B6823F01C033A68DF
S1133310127B13433A68527B13433A68927B1A43F5
S11333207B681A603B6859683B689B681A467868F2
S1133330FFF766FF3B681B781A467B685A600021DA
S11333407868FFF7ABFF00BF0837BD4680BD00BFFC
S113335000A00440AC86000080B485B000AF786063
S113336039607B6803F1C063FB60FB683A681A60EC
S113337000BF1437BD465DF8047B704780B485B048
S113338000AF786039607B6803F18063FB60FB68A1
S11333903A681A6000BF1437BD465DF8047B704775
S11333A080B582B000AF03463960FB71FB79002B16
S11333B038D0FB79012B32D0FB79022B2CD0FB794E
S11333C0032B26D0FB79042B21D0FB79052B1BD0B2
S11333D0FB79062B16D0FB79072B11D0FB79082B30
S11333E00CD0FB79092B06D0FB790A2B01D10723DA
S11333F01AE0002318E04FF4404315E00F2313E0D4
S1133400002311E000230FE04FF6FF730CE00023CC
S11334100AE04FF47F4307E040F6FF7304E04FF601
S1133420C07301E040F2FF333A68134103F0010333
S1133430002B04D140F2DD310C48FCF77BFFFA7914
S113344013465B0013441B010C3303F1804303F563
S1133450204301213A6801FA02F211461846FFF7A7
S11334608DFF00BF0837BD4680BD00BFC486000085
S113347080B582B000AF03463960FB71FB79002B45
S113348038D0FB79012B32D0FB79022B2CD0FB797D
S1133490032B26D0FB79042B21D0FB79052B1BD0E1
S11334A0FB79062B16D0FB79072B11D0FB79082B5F
S11334B00CD0FB79092B06D0FB790A2B01D1072309
S11334C01AE0002318E04FF4404315E00F2313E003
S11334D0002311E000230FE04FF6FF730CE00023FC
S11334E00AE04FF47F4307E040F6FF7304E04FF631
S11334F0C07301E040F2FF333A68134103F0010363
S1133500002B04D140F20C410C48FCF713FFFA796C
S113351013465B0013441B010C3303F1804303F592
S1133520204301213A6801FA02F211461846FFF7D6
S113353013FF00BF0837BD4680BD00BFC48600002E
S113354080B500AF01F0B4FF02F0A4F800F0D0FBA6
S113355000F0F8FB0749084800F010F801F0EAFF12
S11335604021202000F054F9102001F0ADFF00BFED
S113357080BD00BFCDCCCC3D6666464080B58CB0E6
S113358000AF786039607B683B613B687B611C23DA
S1133590BB720023FB7200233B7300237B73002365
S11335A07B7200233B72012387F8283000233B768B
S11335B0002387F820300123FB6102237B6204236C
S11335C0FB6207F108031946034801F093F800BFB2
S11335D03037BD4680BD00BF0060044080B500AFF9
S11335E0012001F085FF8F210248FCF7A3FE00BFF4
S11335F080BD00BF1C87000080B500AF022001F031
S113360077FFA1210248FCF795FE00BF80BD00BFF3
S11336101C87000080B500AF01F080FF034603F073
S11336200403002B03D1B1210448FCF783FE0420DA
S113363001F05EFF01F0ACFF00BF80BD1C870000FD
S113364090B58BB000AF01F069FF034603F00803A7
S1133650002B03D1C4212E48FCF76CFE082001F096
S113366047FF01F0A9FF78624FF000034FF0000418
S1133670C7E90634274B1B78DBB2002B0DD0786AE0
S113368002F0E6FA03460C46C7E90634381DD7E9CA
S11336900623214903F040FA1AE0786A02F0D8FAC6
S11336A04FF000021D4B02F073F903460C46184616
S11336B0214615A3D3E9002302F022FB03460C465E
S11336C0C7E90634381DD7E90623154903F024FA5F
S11336D03B1D184600F0DCF8D7ED097A9FED117A0E
S11336E0F4EEC77AF1EE10FA04DB05210520FFF7AA
S11336F0BFFE03E005210520FFF752FE00BF2C3773
S1133700BD4690BDAFF30080721CC7711CC7E13F7A
S11337101C8700007402002038870000000040402D
S1133720488700000000A04280B500AF102001F0DF
S1133730DFFE01F0E7FC00F0B9F800F0C3F905483A
S113374000F0A6F8044800F0A3F8044800F0A0F83C
S113375000BF80BD58870000688700008087000094
S113376080B500AF01F0DAFE034603F02003002B1E
S113377004D140F20D110748FCF7DCFD202001F0D4
S1133780B7FE0121044801F081F8002000F0F6F9A9
S113379000BF80BD1C8700000060044080B594B069
S11337A000AF01F0BBFE034603F04003002B04D13D
S11337B040F221111248FCF7BDFD402001F098FEB3
S11337C03B46184601F066FE3B460E49184603F098
S11337D0C3F90346002B03D10B4B01221A700AE0F4
S11337E03B460A49184603F0B7F90346002B02D1B9
S11337F0054B00221A7000BF5037BD4680BD00BF84
S11338001C8700008C87000074020020948700004D
S113381080B58EB000AF786039604FF41653BB604A
S113382000233B7305237B730023BB7300233B619D
S113383000233B754FF490537B621223FB610123F9
S1133840BB6201233B62012387F82D30012387F8F3
S11338502C307B687B633B683B630123FB7523232C
S11338603B7601237B762123BB7601237B750123E1
S1133870BB7507F108031946044801F0B5F800F0D8
S113388021F900BF3837BD4680BD00BF00A0044009
S113389080B582B000AF7860786800F029F9002024
S11338A000F06CF900BF0837BD4680BD80B58AB012
S11338B000AF3223FB601923BB6005237B606F4B91
S11338C000229A646D4B0022DA6400237B620BE0D1
S11338D07B6ADBB20133D9B2694A7B6A13440A4674
S11338E01A707B6A01337B627A6AFB689A42EFDB67
S11338F000233B620CE03B6ADBB21433D9B2604A6A
S11339003B6A134440330A461A703B6A01333B62F4
S11339103A6ABB689A42EEDB0023FB610CE0FB6968
S1133920DBB22333D9B2564AFB69134480330A46C7
S11339301A70FB690133FB61FA697B689A42EEDB1A
S11339404F4800F0D5F8012000F018F90346FB7049
S1133950FB7883F00103DBB2002B04D14FF4B77181
S11339604848FCF7E7FC0023BB6112E0444ABB690A
S113397013441A784249BB690B44C0331B789A42FA
S113398004D04FF4B8713F48FCF7D4FCBB69013351
S1133990BB61BA69FB689A42E8DB3B4800F0A8F8CF
S11339A03A4800F0A5F8012000F0E8F80346FB705F
S11339B0FB7883F00103DBB2002B04D14FF4C17117
S11339C03048FCF7B7FC00237B6113E02C4A7B6989
S11339D0134440331A782A497B690B44C0331B785B
S11339E09A4204D04FF4C2712648FCF7A3FC7B69C9
S11339F001337B617A69BB689A42E7DB012000F0FE
S1133A00BDF80346FB70FB7883F00103DBB2002BA7
S1133A1004D140F28B111B48FCF78CFC00233B6162
S1133A2013E0174A3B69134480331A7814493B69FD
S1133A300B44C0331B789A4204D040F28D111148D4
S1133A40FCF778FC3B6901333B613A697B689A4235
S1133A50E7DB012000F092F80346FB70FB78012BB2
S1133A6004D04FF4CD710748FCF764FC0848FFF715
S1133A700FFF00BF2837BD4680BD00BF780300207C
S1133A80780200209C870000B8020020F802002081
S1133A90F888000080B400AF094BDB6CDAB2084B45
S1133AA09B6CDBB2D31ADBB2DB43DAB2044B93F880
S1133AB040301340DBB21846BD465DF8047B7047C6
S1133AC07803002080B400AF084B40225A64074BAF
S1133AD03F2283F84020054B00229A64034B0022C6
S1133AE0DA6400BFBD465DF8047B704778030020AC
S1133AF090B585B000AF7860FFF7CCFF03461C4655
S1133B00786803F03BF8034601339C4205D24FF436
S1133B10EA711848FCF70EFC27E0786803F02EF8E9
S1133B200346DAB2144BDB6C0132D1B2124AD154DF
S1133B300121114800F0B2F80023FB600EE0FB689D
S1133B407A681A440C4BDB6C11780B4AD15401216E
S1133B50094800F0A3F8FB680133FB60786803F0C0
S1133B600DF80246FB689A42E9D800BF1437BD46F7
S1133B7090BD00BF9C87000078030020B0B588B0DA
S1133B8000AF0346FB716B461D46414BDA6C404B5C
S1133B909B6C9A4201D1012374E03E4801F080FA03
S1133BA00346002B01D000236CE0394B9B6C384A50
S1133BB0D35C013B7B610121354800F084F87B69CB
S1133BC0581C0346013B3B6101464FF000024FF095
S1133BD000034FF00004D40044EA5174CB000146C2
S1133BE04FF000024FF000034FF00004D40044EA09
S1133BF05174CB00C31DDB08DB00ADEB030D6B463A
S1133C000033FB600023BB610FE0214B9B6C204A17
S1133C10D15CFA68BB6913440A461A7001211C4836
S1133C2000F051F8BB690133BB61BB697A699A4200
S1133C30EBD8FA687B69134400221A70FB79002BD5
S1133C4014D00023FB610CE0FA68FB691344197873
S1133C50114AFB691344C0330A461A70FB690133E5
S1133C60FB61FB697A699A42EED80AE0FC68FB685A
S1133C70184602F083FF03461A462146054801F020
S1133C8025F80023AD4618462037BD46B0BD00BF19
S1133C907803002000A004407802002080B483B0A0
S1133CA000AF786039607B68DA6C3B6813447A68EB
S1133CB092F840201A407B68DA6400BF0C37BD4696
S1133CC05DF8047B704780B483B000AF78603960DE
S1133CD07B689A6C3B6813447A6892F840201A40D7
S1133CE07B689A6400BF0C37BD465DF8047B70475F
S1133CF080B500AF01210F48FCF7CCFD0022002164
S1133D000120FDF787FB012201210020FDF782FB42
S1133D1002210948FDF71AF80A210848FDF716F8A8
S1133D2001210748FCF7B6FD01210248FCF7B2FD6A
S1133D3000BF80BD404105000300200002001E00BA
S1133D4000250A0080B500AF01212048FCF7A2FD40
S1133D5000210520FEF7DAFE0023042204210520B9
S1133D60FEF71AFF00210520FEF7D0FE00230422EF
S1133D7005210520FEF710FF4FF001110120FEF789
S1133D80C5FE012304220A210120FEF705FF0123B9
S1133D9008220B210220FEF7FFFE012308220A213C
S1133DA00220FEF7F9FE4FF480310320FEF7AEFE49
S1133DB0012304220A210320FEF7EEFE0023012240
S1133DC00B210320FEF7E8FE00BF80BD00350A008A
S1133DD080B483B000AF0346FB7197F90730002B22
S1133DE00BDBFB7903F01F02074997F907305B09E6
S1133DF0012000FA02F241F8232000BF0C37BD462F
S1133E005DF8047B704700BF00E100E080B485B03A
S1133E1000AF786039607B6803F10473DA003B68B3
S1133E2013449B00FB60FB681B6818461437BD46AF
S1133E305DF8047B704780B485B000AF786039606A
S1133E407B6803F1C063FB60FB683A681A6000BFDB
S1133E501437BD465DF8047B704780B485B000AF6D
S1133E60786039607B6803F18063FB60FB683A68C3
S1133E701A6000BF1437BD465DF8047B704700002C
S1133E8080B582B000AF03463960FB71FB79002B2B
S1133E9038D0FB79012B32D0FB79022B2CD0FB7963
S1133EA0032B26D0FB79042B21D0FB79052B1BD0C7
S1133EB0FB79062B16D0FB79072B11D0FB79082B45
S1133EC00CD0FB79092B06D0FB790A2B01D10723EF
S1133ED01AE0002318E04FF4404315E00F2313E0E9
S1133EE0002311E000230FE04FF6FF730CE00023E2
S1133EF00AE04FF47F4307E040F6FF7304E04FF617
S1133F00C07301E040F2FF333A68134103F0010348
S1133F10002B04D140F2AE310A48FCF70BFAFA79CF
S1133F2013465B0013441B011C3303F1804303F568
S1133F30204339681846FFF769FF034618460837D7
S1133F40BD4680BD1889000080B582B000AF03462D
S1133F503960FB71FB79002B38D0FB79012B32D00F
S1133F60FB79022B2CD0FB79032B26D0FB79042B75
S1133F7021D0FB79052B1BD0FB79062B16D0FB79BE
S1133F80072B11D0FB79082B0CD0FB79092B06D019
S1133F90FB790A2B01D107231AE0002318E04FF420
S1133FA0404315E00F2313E0002311E000230FE04A
S1133FB04FF6FF730CE000230AE04FF47F4307E061
S1133FC040F6FF7304E04FF6C07301E040F2FF33A4
S1133FD03A68134103F00103002B04D140F2DD31B0
S1133FE00C48FCF7A7F9FA7913465B0013441B014C
S1133FF00C3303F1804303F5204301213A6801FAAD
S113400002F211461846FFF728FF00BF0837BD46E5
S113401080BD00BF1889000080B582B000AF0346A0
S11340203960FB71FB79002B38D0FB79012B32D03E
S1134030FB79022B2CD0FB79032B26D0FB79042BA4
S113404021D0FB79052B1BD0FB79062B16D0FB79ED
S1134050072B11D0FB79082B0CD0FB79092B06D048
S1134060FB790A2B01D107231AE0002318E04FF44F
S1134070404315E00F2313E0002311E000230FE079
S11340804FF6FF730CE000230AE04FF47F4307E090
S113409040F6FF7304E04FF6C07301E040F2FF33D3
S11340A03A68134103F00103002B04D140F20C41A0
S11340B00C48FCF73FF9FA7913465B0013441B01E3
S11340C00C3303F1804303F5204301213A6801FADC
S11340D002F211461846FFF7AEFE00BF0837BD4690
S11340E080BD00BF1889000080B588B000AFF860BB
S11340F0B9607A603B60574A3B681360FB68564A74
S1134100934203D101215548FCF7C4FBFB68544A90
S1134110934203D101215348FCF7BCFBFB685B6B62
S113412003F00103002B10D1FB6801229A63FB68A2
S11341305B6B03F00103002B03D159214A48FCF7C0
S1134140F9F8FB680122DA630CE0FB680122DA6308
S1134150FB685B6B03F00103002B03D05E21424834
S1134160FCF7E8F8BB681B783B77BB685B783B746B
S1134170BB685B68BB61BB681B7A7B74BB68DB682C
S11341807B6107F110031946F868FEF717FFBB6857
S11341905B8A1A46FB689A64FB689B6CBA68928ACD
S11341A01A43FB689A64BB681B7C002B06D0FB682F
S11341B05B6C43F00102FB685A6405E0FB685B6CCE
S11341C023F00102FB685A64BB685B7C002B06D0B9
S11341D0FB685B6C43F00202FB685A6405E0FB6811
S11341E05B6C23F00202FB685A64FB6800221A64C9
S11341F0FB684FF4F072DA63FB681B6C43F0400217
S1134200FB681A64FB681B6C43F08002FB681A6449
S1134210FB681B6C43F02002FB681A64FB681B6C90
S113422043F48072FB681A64FB680B4A934202D120
S11342301120FFF7CDFDFB68094A934202D12A20E1
S1134240FFF7C6FD7968F86800F010F800BF203762
S1134250BD4680BD3C02002000C000400082040036
S113426000C40040009204007089000080B584B04E
S113427000AF786039603B681A783B685B68194620
S11342801046FFF7FDFD0346002B03D1B7211D485F
S1134290FCF750F83B681A7A3B68DB68194610460D
S11342A0FFF7EEFD0346002B03D1B8211548FCF7B8
S11342B041F80023FB601AE03B681A7A3B68DB682C
S11342C019461046FFF7A8FE3B681A783B685B68FE
S11342D019461046FFF738FE3B681A783B685B685E
S11342E019461046FFF798FEFB680133FB60FB6834
S11342F0082BE1DD7B6820225A6000BF1037BD46E1
S113430080BD00BF7089000080B584B000AFF86044
S1134310B9607A60FB70FB689B6803F0E003002BD4
S113432003D0E9211548FCF705F8022001F00EFA44
S1134330134AFB685360124ABB699361104AFB69D4
S113434053610F4ABB6893600D4A7B68D3600C4A83
S1134350FB7813740A4B00221A70094B5B68012224
S11343605A60074B9A68064B5B685200DA62044B4A
S113437001221A7000BF1037BD4680BD708900004D
S11343802002002080B500AF294B1B78062B46D8AD
S113439001A252F823F000BFB5430000C14300005E
S11343A0D3430000F3430000FB4300000744000034
S11343B0134400004FF487711E48FBF7BBFF34E041
S11343C01B4B5B681A4AD268DA62194B02221A70D4
S11343D02BE0174B5B6801225A60154B9B685A000F
S11343E0134B5B6842F00102DA62114B03221A702C
S11343F01BE00F4B04221A7017E04FF490710D4824
S1134400FBF798FF11E040F223110A48FBF792FFF3
S11344100BE04FF493710748FBF78CFF05E040F283
S113442029110448FBF786FF00BF00BF80BD00BF11
S1134430200200207089000080B500AF274B1B7854
S1134440062B42D801A252F823F000BF69440000B1
S113445075440000814400008D440000A74400001E
S1134460B3440000BF4400004FF49E711C48FBF7A6
S113447061FF30E040F23F111948FBF75BFF2AE08F
S11344804FF4A1711648FBF755FF24E0134B5B680A
S113449001225A60114B9B685A00104B5B6842F032
S11344A00102DA6217E040F249110D48FBF742FFBE
S11344B011E04FF4A6710A48FBF73CFF0BE040F211
S11344C04F110748FBF736FF05E04FF4A971044884
S11344D0FBF730FF00BF00BF80BD00BF20020020FB
S11344E07089000080B500AF304B1B78062B54D880
S11344F001A252F823F000BF154500002145000039
S11345002D45000039450000454500006345000085
S11345108F4500004FF4B2712548FBF70BFF42E0D2
S113452040F267112248FBF705FF3CE04FF4B571F8
S11345301F48FBF7FFFE36E040F26D111C48FBF705
S1134540F9FE30E0194B5B68DA69184B5B691202BB
S11345501A60164B5B6804225A60144B05221A70C9
S113456021E0124B5B68D969104B5B691A680F4BE9
S11345705B690A431A600D4B5B6808225A600B4B57
S11345805B6802225A60094B06221A700BE040F263
S11345907D110748FBF7CEFE05E04FF4C0710448D7
S11345A0FBF7C8FE00BF00BF80BD00BF2002002093
S11345B07089000080B500AF254B1B78062B3ED8D0
S11345C001A252F823F000BFE5450000F1450000C8
S11345D0FD45000009460000154600002146000084
S11345E02D4600004FF4C9711A48FBF7A3FE2CE0D6
S11345F040F295111748FBF79DFE26E04FF4CC716D
S11346001448FBF797FE20E040F29B111148FBF79A
S113461091FE1AE04FF4CF710E48FBF78BFE14E0C5
S113462040F2A1110B48FBF785FE0EE0022001F0D9
S1134630AFF8094B1B68184600F046FF05E040F24E
S1134640A9110448FBF776FE00BF00BF80BD00BF80
S113465020020020708900003C02002080B582B056
S113466000AF144B5A6B134B1B6C13407B60114A05
S11346707B68D3637B6803F04003002B01D0FFF712
S113468081FE7B6803F08003002B01D0FFF7D4FE8A
S11346907B6803F02003002B01D0FFF723FF7B6826
S11346A003F48073002B01D0FFF784FF00BF0837A9
S11346B0BD4680BD00C0004080B483B000AF034657
S11346C0FB7197F90730002B0BDBFB7903F01F021A
S11346D0074997F907305B09012000FA02F241F813
S11346E0232000BF0C37BD465DF8047B704700BF34
S11346F000E100E080B586B000AF786039607B6887
S11347005B4A934203D101215A48FCF7C3F80021C4
S1134710786800F0BBF87B6801225A6000BF7B68B0
S11347205B6B002BFBD17B689B6803F00103002BC0
S113473003D15D215048FBF7FDFD7B6802225A60DE
S11347400023FB720123BB723B681B787B723B68BE
S11347505B783B7200233B7300237B7300233B7421
S11347600323BB730323FB7307F10803194678681B
S1134770FEF7B0FC00BF7B685B6B002BFBD13B6892
S1134780D3ED027A9FED3D7A67EE877AFCEEE77A05
S113479017EE902A00217868FEF74EFC7B68002211
S11347A0DA603B68D3ED037A9FED347A67EE877A5B
S11347B0FCEEE77A17EE902A01217868FEF73CFCBC
S11347C07B6801229A613B681B791A467B681A64EC
S11347D03B689B781A467B685A647B680022DA62DD
S11347E03B685A693B68DB691A433B685B6A1A4356
S11347F07B689A623B681B7C002B06D07B68DA6A74
S11348003B685B691A437B68DA623B681B7E002B5A
S113481006D07B68DA6A3B68DB691A437B68DA6234
S11348203B6893F82030002B06D07B68DA6A3B683B
S11348305B6A1A437B68DA621B20FFF73DFF3B6823
S11348405B690F4A13603B68DB690E4A13603B687F
S11348505B6A0D4A13607B689B6803F00103002BBD
S113486002D0042000F072FF00BF1837BD4680BD9F
S113487000600440800616008C89000000007A4421
S113488040020020440200204802002080B582B08B
S113489000AF78600B46FB70FB78002B12D07B686E
S11348A09B6803F00103002B0CD1FB781946786850
S11348B0FEF7F0FB00BF7B685B6B002BFBD1042091
S11348C000F044FFFB7883F00103DBB2002B12D02D
S11348D07B689B6803F00103002B0CD0FB7819461E
S11348E07868FEF7D7FB00BF7B685B6B002BFBD1BE
S11348F0042000F04DFF00BF0837BD4680BD000016
S113490080B582B000AF244B1A6A234BDB6A134094
S11349107B60214A7B6893627B6803F00103002B70
S11349200ED01D4B1B6A03F00103002B03D0DF21C3
S11349301A48FBF7FFFC1A4B1B68184600F0C4FD2D
S11349407B6803F00203002B0ED0134B1B6A03F0A9
S11349500203002B03D0E5211048FBF7EBFC114BBD
S11349601B68184600F0B0FD7B6803F00403002BBD
S11349700ED0094B1B6A03F00403002B03D0EB2178
S11349800648FBF7D7FC084B1B68184600F09CFD53
S113499000BF0837BD4680BD006004408C8900001C
S11349A040020020440200204802002080B483B06A
S11349B000AF0346FB7197F90730002B0BDBFB7943
S11349C003F01F02074997F907305B09012000FA39
S11349D002F241F8232000BF0C37BD465DF8047B8A
S11349E0704700BF00E100E080B586B000AF78609A
S11349F039607B689A4A934203D101219948FBF7B5
S1134A0049FF7B681B6903F00103002B1AD17B6803
S1134A1001221A6100BF7B685B6C002BFBD17B68B1
S1134A201B6903F00103002B03D159218E48FBF7C6
S1134A3081FC7B6800221A6100BF7B685B6C002BE1
S1134A40FBD114E07B681B6923F001027B681A61C7
S1134A5000BF7B685B6C002BFBD17B681B6903F098
S1134A600103002B03D061217F48FBF763FC3B6803
S1134A709B6A7E4A13603B68DB6A7D4A13603B682D
S1134A801B683B613B681B793B753B685B793B72F8
S1134A903B689B797B753B689B68FB603B681B7B31
S1134AA0BB7507F1080319467868FEF713FC00BFCD
S1134AB07B685B6C002BFBD13B6893F82530002BA3
S1134AC006D000BF7B689B6803F00203002BF9D07B
S1134AD03B6893F82430002B06D000BF7B689B68AA
S1134AE003F00103002BF9D03B685A697B689A658F
S1134AF07B689A6D3B68DB691A437B689A653B68FF
S1134B001B6A002B06D07B685B6D43F002027B6856
S1134B105A6505E07B685B6D23F002027B685A6589
S1134B203B689B69002B06D07B685B6D43F00102F8
S1134B307B685A6505E07B685B6D23F001027B6846
S1134B405A657B6880225A6000BF7B685B6C002BCF
S1134B50FBD17B6840225A6000BF7B685B6C002BF2
S1134B60FBD13B68DB7B002B09D03B681B7C1A46DE
S1134B707B681A6100BF7B685B6C002BFBD13B68D0
S1134B805B7C002B09D03B689B7C1A467B685A618E
S1134B9000BF7B685B6C002BFBD13B685B7B002B0D
S1134BA00AD07B685B6843F010027B685A6000BFE0
S1134BB07B685B6C002BFBD13B689B7B002B0AD092
S1134BC07B681B6843F480727B681A6000BF7B6853
S1134BD05B6C002BFBD13B6893F82430002B09D08D
S1134BE0244A7B681360234B012283F86C20022043
S1134BF000F0ACFD7B6800229A637B6840F201629E
S1134C005A637B689B6B43F001027B689A637B6801
S1134C109B6B43F400727B689A637B689B6B43F4E1
S1134C2080627B689A637B689B6B43F004027B68B9
S1134C309A637B680A4A934202D11620FFF7B6FEB4
S1134C403B6893F82430002B16D07B689B6803F0F4
S1134C500103002B1AD1D1210348FBF76BFB15E0AC
S1134C6000A0044090171A00AC890000AC04002096
S1134C70B4040020C80300207B689B6803F0010390
S1134C80002B03D0D3211048FBF754FB3B6893F867
S1134C902530002B0AD07B689B6803F00203002BAD
S1134CA00ED1D7210848FBF745FB09E07B689B68D8
S1134CB003F00203002B03D0D9210348FBF73AFB8E
S1134CC000BF1837BD4680BDAC89000080B584B0F4
S1134CD000AFF860B9607A60032000F037FD114B33
S1134CE0002283F87020104B01221A700D4AFB68D1
S1134CF01360B9680D4801F039FF0A4A7B68936074
S1134D00084B00225A60074B012283F87020FB688D
S1134D109B6B43F00202FB689A6300BF1037BD46E9
S1134D2080BD00BF38040020B004002044040020EB
S1134D3080B500AF2C4B93F87030032B4AD801A2F6
S1134D4052F823F0554D0000614D0000BD4D0000A8
S1134D50C94D00004FF484712448FBF7EBFA40E09E
S1134D60214B5A68204B9B689A4214D21E4B1868F8
S1134D701D4B5B681C4A13441B7B194600F0ACF9BD
S1134D8000BF194B1B685B6C002BFAD1164B5B6898
S1134D900133154A5360144B5A68134B9B689A426B
S1134DA01ED3114B1B689A6B0F4B1B6822F0020237
S1134DB09A630D4B022283F8702011E040F219111E
S1134DC00A48FBF7B7FA0CE04FF48E710748FBF77B
S1134DD0B1FA06E040F21F110448FBF7ABFA00E019
S1134DE000BF00BF80BD00BF38040020AC890000B4
S1134DF080B500AF1C4B93F87030032B2CD801A264
S1134E0052F823F0154E0000214E00002D4E0000F4
S1134E104D4E00004FF496711448FBF78BFA21E0D5
S1134E204FF498711148FBF785FA1BE0104B0022F0
S1134E301A70032000F0ACFC0E4B1B68184600F0FF
S1134E4043FB094B032283F870200BE040F2391135
S1134E500648FBF76FFA05E04FF49E710348FBF731
S1134E6069FA00BF00BF80BD38040020AC8900008F
S1134E70B0040020B404002080B500AF1C4B93F8AC
S1134E806C30032B2CD801A252F823F09D4E000065
S1134E90A94E0000BF4E0000D54E000040F24F1155
S1134EA01448FBF747FA21E0114B00225A60124BD9
S1134EB001221A700E4B022283F86C2016E00C4B70
S1134EC000225A600C4B01221A70094B022283F80B
S1134ED06C200BE040F25F110648FBF72BFA05E06B
S1134EE04FF4B1710348FBF725FA00BF00BF80BD42
S1134EF0C8030020AC890000B104002080B500AFD5
S1134F00304B93F86C30032B54D801A252F823F0A1
S1134F10214F00002D4F0000394F0000614F000069
S1134F204FF4BB712848FBF705FA49E040F27911C8
S1134F302548FBF7FFF943E0224B1B68DA69214B54
S1134F405B68D1B21F4A13440A461A721D4B5B6850
S1134F5001331C4A53601B4B022283F86C202FE060
S1134F60184B1B68DA69174B5B68D1B2154A1344B6
S1134F700A461A72134B5B680133124A5360114B91
S1134F805B68104A134400221A720E4B1B685A685D
S1134F900C4B1B6842F010025A600C4B00221A7032
S1134FA00B4B1B68184600F08FFA064B012283F85E
S1134FB06C2005E04FF4C5710348FBF7BBF900BF53
S1134FC000BF80BDC8030020AC890000B1040020EC
S1134FD0AC04002080B500AF144B93F86C30032B65
S1134FE01BD801A252F823F0F94F0000275000000B
S1134FF0055000000F50000040F299110C48FBF7D7
S113500099F911E0094B032283F86C200CE040F27B
S1135010A1110748FBF78EF906E04FF4D27104485A
S1135020FBF788F900E000BF00BF80BDC803002083
S1135030AC89000080B582B000AF184BDA6A174B18
S11350409B6B13407B60154A7B6853637B6803F05A
S11350500203002B01D0FFF76BFE7B6803F0010312
S1135060002B01D0FFF7C4FE7B6803F40073002B10
S113507001D0FFF701FF7B6803F48063002B01D0AC
S1135080FFF7A8FF7B6803F00403002B01D0FFF7B0
S113509035FF00BF0837BD4680BD00BF00A00440F7
S11350A080B582B000AF78607B68084A934203D130
S11350B0074B1B78DBB205E04FF4EA710548FBF7B8
S11350C039F9002318460837BD4680BD00A00440C6
S11350D0B0040020AC89000080B483B000AF7860D5
S11350E00B46FB7000BF7B68DB6A03F00203002BF6
S11350F0F9D0FA787B689A6200BF0C37BD465DF838
S1135100047B7047F0B5DFB000AFB84B1B681A687A
S1135110B64B1B6842F080021A6000BFB34B1B6899
S11351205B6C002BFAD1232387F86F31212387F896
S11351306E3100F0EDFA0346022B04D940F28121CE
S1135140AB48FBF7F7F8A94B1B681A6997F86F315E
S11351509A4204D04FF42171A548FBF7EBF8A34B16
S11351601B685A6997F86E319A4204D040F285213F
S11351709F48FBF7DFF89D4B1B689B6803F0040313
S1135180002B04D140F286219948FBF7D3F8974BC2
S11351901B689B6B03F40073002B04D140F287213E
S11351A09348FBF7C7F8914B1B689B6B03F4806330
S11351B0002B04D14FF422718D48FBF7BBF88B4BC5
S11351C01B689B6B03F00403002B04D140F289217C
S11351D08748FBF7AFF872B6844B1B6861229A626A
S11351E000BF824B1B68DB6A03F00103002BF8D07D
S11351F07E4B1B685A6B7D4B1B6842F001025A635D
S11352007A4B1B6823229A6200BF784B1B68DB6AC7
S113521003F00103002BF8D0744B1B685A6B734BDB
S11352201B6842F001025A6300BF704B1B68DB6AC3
S113523003F00403002BF8D06C4B1B68DA6997F871
S11352406F319A4204D040F299216948FBF772F811
S113525062B6684B07F58E741D460FCD0FC495E8F2
S1135260030020600434218007F599733A22002159
S1135270184600F0EAFF604A07F1CC0392E8030005
S113528018600433198002330A0C1A7007F1D3032F
S113529049220021184600F0D8FF544B1C6807F53A
S11352A08E73184601F06AFC024607F58E731946A0
S11352B02046FFF70BFD00BF504B1B78DBB2002BE1
S11352C0FAD100BF4E4B1B78DBB2002BFAD14D480C
S11352D001F054FC044607F1CC03184601F04EFCDF
S11352E003469C4204D040F2A6214148FBF722F831
S11352F00023C7F8743117E03C4AD7F874311344DB
S113530008331A7807F1CC01D7F874310B441B78B1
S11353109A4204D04FF42A713548FBF70BF8D7F8BA
S113532074310133C7F87431364801F027FC024662
S1135330D7F874319A42DFD82C4B1B689B6803F072
S11353400403002B04D140F2AD212948FAF7F2FFFF
S113535007F168062C4B34461D460FCD0FC495E863
S1135360070003C4228006F11A034A2200211846CA
S113537000F06BFF3C1D254A234607CA03C31A806D
S113538004F10A035A220021184600F05EFF174B6D
S11353901C6807F16803184601F0F0FB024607F1A8
S11353A0680319462046FFF791FC00BF134B1B7896
S11353B0DBB2002BFAD100BF114B1B78DBB2002B00
S11353C0FAD1104801F0DAFB04463B1D184601F0FF
S11353D0D5FB03469C4204D04FF42D710448FAF7E0
S11353E0A9FF0023C7F8703129E000BFC8030020DB
S11353F0AC890000CC8900001C8A0000B0040020A5
S1135400B1040020D00300206C8A0000D08A000080
S11354101D4AD7F87031134408331A78391DD7F868
S113542070310B441B789A4204D040F2B6211748DD
S1135430FAF780FFD7F870310133C7F87031144898
S113544001F09CFB0246D7F870319A42E0D80E4B2B
S11354501B681A680C4B1B6822F080021A6000BF9C
S1135460094B1B685B6C002BFAD100F051F9034621
S1135470022B04D94FF42F710448FAF75BFF00BFE5
S113548007F5BE77BD46F0BDC8030020AC89000017
S1135490D003002080B582B000AF786003497868FB
S11354A001F064FB00BF0837BD4680BDD003002077
S11354B080B400AF034B00221A6000BFBD465DF804
S11354C0047B70474C02002080B483B000AF786046
S11354D072B6064B1A687B681343044A136062B6BB
S11354E000BF0C37BD465DF8047B70474C020020BA
S11354F080B483B000AF786072B67B68DA43064B41
S11355001B681340044A136062B600BF0C37BD46E3
S11355105DF8047B704700BF4C02002080B400AFEC
S1135520034B1B681846BD465DF8047B704700BFFB
S11355304C02002080B58AB000AF0B23FB6102232C
S11355403B760A237B62022387F8203001233B70D9
S113555001237B700C4B7B6001233B720023FB60B7
S113556001237B7401233B744FF47063BB820F23CC
S11355707B8207F11802394608230448FEF7B4FD7C
S113558000BF2837BD4680BDDDFB050000C00040DC
S113559080B582B002AF064B01930223009301232E
S11355A0F32240210348FEF7AFFE00BFBD4680BD95
S11355B05002002000C0004090B583B000AF2A4BD9
S11355C01B6807EE903AF8EE677A17EE900A00F03F
S11355D03FFB1FA3D3E9002300F092FB03460C46D4
S11355E0184621464FF00002204B00F0B3FC03465E
S11355F00C461846214618A3D3E9002300F0C8F945
S113560003460C461846214600F08CFD03467B6099
S1135610786800F01DFB12A3D3E9002300F070FBAF
S113562003460C46184621464FF00002104B00F08A
S1135630B1F903460C461846214600F073FD0346B3
S11356403B603B6818460C37BD4690BDAFF3008005
S1135650D7A3703D0AF76540CDCCCCCCCC6C474089
S1135660CDCCCCCCCCCCFC3F500200200000F04090
S11356700000404080B400AF054B1B69044A23F08E
S11356800403136130BF00BFBD465DF8047B70475F
S113569000ED00E080B483B000AF00237B6007E03E
S11356A0084A7B68002142F823107B6801337B6041
S11356B07B68042BF4DD00BF0C37BD465DF8047B2A
S11356C0704700BF5402002080B500AF0F4B1B6829
S11356D0002B17DC0D4B5B68002B15DC0B4B9B6818
S11356E0002B02DDFFF7C6FF0FE0084BDB68002B41
S11356F003DD0120FCF76CFA07E00120FCF78EFAC9
S113570000BF02E000BF00E000BF80BD54020020E3
S113571080B483B000AF00237B600AE00A4A7B6850
S113572052F82330002B01D07B6806E07B680133FC
S11357307B607B68042BF1DD042318460C37BD46DF
S11357405DF8047B704700BF5402002080B582B02E
S113575000AF786072B60C4A7B6852F823305A1C4A
S113576009497B6841F82320074A7B6852F82330B3
S1135770092B03DD9D210548FAF7DCFD62B600BF65
S11357800837BD4680BD00BF54020020348B0000A2
S113579080B582B000AF786072B60C4A7B6852F86C
S11357A023305A1E09497B6841F82320074A7B6845
S11357B052F82330002B03DAAF210548FAF7BAFD7B
S11357C062B600BF0837BD4680BD00BF540200204A
S11357D0348B000080B400AF044BDB6C1B0EDBB2D7
S11357E01846BD465DF8047B704700BFB081E00FEA
S11357F080B582B000AF164B01225A64FFF7EAFF6E
S11358000346FB71FB79002B0CD1124B4AF6E8528C
S11358101A60114B1B68104A43F0040313600D4BCC
S113582000221A60FB79012B05D80C4B1B680B4A2C
S113583043F4005313600A4B1B6A23F44413084ACD
S113584043F48813136200BF0837BD4680BD00BF10
S113585000000E4090310E4098310E4064310E40ED
S113586000400E40B0B58AB000AF434B07F11804B6
S11358700FCB84E80F00414B3C1D1D460FCD0FC4D8
S11358802B682380FFF7B4FF00233B7000237B7059
S113589007F118031846FCF73DFD02237B703B46D5
S11358A01846FCF777FA3B1D1846FBF731FD3448E0
S11358B0FBF76EFC012201210320FBF7ABFD052160
S11358C01120FBF743FA002200210220FBF7A2FD7E
S11358D0FDF736FEFFF722FE034603F01003002B0C
S11358E003D140212748FAF725FDFFF717FE0346A9
S11358F003F01003002B01D0FDF716FFFFF70EFE97
S11359000346002B01D1FFF7DFFEFFF707FE034636
S113591003F00103002B01D0FDF760FEFFF7FEFD4D
S1135920034603F00203002B01D0FDF765FEFFF7E9
S1135930F5FD034603F00403002B01D0FDF76AFED6
S1135940FFF7ECFD034603F00803002B01D0FDF73D
S113595077FEFFF7E3FD034603F02003002B01D09D
S1135960FDF7FEFEFFF7DAFD034603F04003002BCC
S1135970BBD0FDF713FFB8E76C8B00007C8B0000F5
S113598080BA8C015C8B000081F0004102E000BF12
S113599083F0004330B54FEA41044FEA430594EAEB
S11359A0050F08BF90EA020F1FBF54EA000C55EA26
S11359B0020C7FEA645C7FEA655C00F0E2804FEAF7
S11359C05454D4EB5555B8BF6D420CDD2C4480EAD9
S11359D0020281EA030382EA000083EA010180EA09
S11359E0020281EA0303362D88BF30BD11F0004F57
S11359F04FEA01314FF4801C4CEA113102D040428D
S1135A0061EB410113F0004F4FEA03334CEA1333C7
S1135A1002D0524263EB430394EA050F00F0A780DF
S1135A20A4F10104D5F1200E0DDB02FA0EFC22FADA
S1135A3005F2801841F1000103FA0EF2801843FACE
S1135A4005F359410EE0A5F120050EF1200E012ABF
S1135A5003FA0EFC28BF4CF0020C43FA05F3C018FD
S1135A6051EBE37101F0004507D54FF0000EDCF176
S1135A70000C7EEB00006EEB0101B1F5801F1BD31F
S1135A80B1F5001F0CD349085FEA30004FEA3C0C23
S1135A9004F101044FEA445212F5800F80F09A8019
S1135AA0BCF1004F08BF5FEA500C50F1000041EB1D
S1135AB0045141EA050130BD5FEA4C0C404141EB21
S1135AC0010111F4801FA4F10104E9D191F0000F48
S1135AD004BF01460020B1FA81F308BF2033A3F1CB
S1135AE00B03B3F120020CDA0C3208DD02F1140CC2
S1135AF0C2F10C0201FA0CF021FA02F10CE002F1FD
S1135B001402D8BFC2F1200C01FA02F120FA0CFCF5
S1135B10DCBF41EA0C019040E41AA2BF01EB04513E
S1135B20294330BD6FEA04041F3C1CDA0C340EDC3C
S1135B3004F11404C4F1200220FA04F001FA02F37F
S1135B4040EA030021FA04F345EA030130BDC4F13D
S1135B500C04C4F1200220FA02F001FA04F340EA32
S1135B600300294630BD21FA04F0294630BD94F0E3
S1135B70000F83F4801306BF81F480110134013DCA
S1135B804EE77FEA645C18BF7FEA655C29D094EA3B
S1135B90050F08BF90EA020F05D054EA000C04BFB9
S1135BA01946104630BD91EA030F1EBF00210020A4
S1135BB030BD5FEA545C05D14000494128BF41F043
S1135BC0004130BD14F580043CBF01F5801130BDA7
S1135BD001F0004545F0FE4141F470014FF0000032
S1135BE030BD7FEA645C1ABF194610467FEA655CE3
S1135BF01CBF0B46024650EA013406BF52EA033585
S1135C0091EA030F41F4002130BD00BF90F0000F72
S1135C1004BF0021704730B54FF4806404F13204AE
S1135C204FF000054FF0000150E700BF90F0000F67
S1135C3004BF0021704730B54FF4806404F132048E
S1135C4010F0004548BF40424FF000013EE700BF5E
S1135C5042004FEAE2014FEA31014FEA02701FBFEE
S1135C6012F07F4393F07F4F81F06051704732F020
S1135C707F4208BF704793F07F4F04BF41F4002177
S1135C80704730B54FF4607401F0004521F00041D5
S1135C901CE700BF50EA010208BF704730B54FF05F
S1135CA000050AE050EA010208BF704730B511F060
S1135CB0004502D5404261EB41014FF4806404F198
S1135CC032045FEA915C3FF4D8AE4FF003025FEA1E
S1135CD0DC0C18BF03325FEADC0C18BF033202EBA2
S1135CE0DC02C2F1200300FA03FC20FA02F001FAFC
