:1000000000000420C1010000ED010000ED0100002E
:10001000ED010000ED010000ED010000ED01000028
:10002000ED010000ED010000ED010000ED01000018
:10003000ED010000ED010000ED010000ED01000008
:10004000ED010000ED010000ED010000ED010000F8
:10005000ED010000ED010000ED010000ED010000E8
:10006000ED010000ED010000ED010000ED010000D8
:10007000ED010000ED010000ED010000ED010000C8
:10008000ED01000061280000ED010000ED0100001D
:10009000ED010000ED010000492F0000ED0100001E
:1000A000ED010000ED010000ED010000812C0000D9
:1000B000ED010000ED010000ED010000ED01000088
:1000C000ED010000ED010000ED010000ED01000078
:1000D000ED010000ED010000ED010000ED01000068
:1000E000ED010000ED010000ED010000ED01000058
:1000F000ED010000ED010000ED010000ED01000048
:10010000ED010000ED010000ED01000010B5054C0F
:10011000237833B9044B13B10448AFF300800123B3
:10012000237010BDEC0100200000000040630000BF
:1001300008B5034B1BB103490348AFF3008008BD6A
:1001400000000000F001002040630000154B002B70
:1001500008BF134B9D46A3F5803A00218B460F46FE
:100160001348144A121A03F01DFD0F4B002B00D048
:1001700098470E4B002B00D0984700200021040028
:100180000D000D48002802D00C48AFF3008003F0AA
:10019000E5FC2000290002F0FFFF03F0CBFC00BFCC
:1001A0000000080000000420000000000000000023
:1001B000EC010020F0020020000000000000000020
:1001C000064880470649074A074B9A42BEBF51F886
:1001D000040B42F8040BF8E7FFF7B8FF79020000C0
:1001E0004C63000000000020EC010020FEE700BF8F
:1001F00000487047005A62020F4BD3F8943003F066
:100200000703032B14D0042B0FD0022B0AD00B4B67
:100210001868094BD3F80031C3F304230133B0FB52
:10022000F3F07047064B1868F3E7064B1868F0E7E1
:100230004FF40040EDE700BF00400E4008000020F2
:10024000040000200C00002008B5FFF7D5FF054B87
:10025000054AD3F80831C3F308230133B0FBF3F0A8
:10026000106008BD00400E4000000020014B1868DF
:10027000704700BF04000020044B054A9A60D3F881
:10028000882042F47002C3F88820704700ED00E037
:10029000000000004FF40040704700BF4FF47A7038
:1002A000704700BF014B1868704700BF0C0000206A
:1002B000FEE700BF224B98423AD01AD9214B984210
:1002C0003AD00CD8204B984225D003F5371303F5CC
:1002D000D86398422AD11D4BD3F8A00070471C4B1D
:1002E000984214D01B4B984220D1184BD3F8B00041
:1002F0007047194B984215D011D9184B984211D01C
:10030000174B984212D1114BD3F88C0070470F4B0A
:10031000D3F8AC0070470D4BD3F89C007047114BDD
:10032000984203D1094BD3F88000704700207047F2
:10033000064BD3F898007047044BD3F8A8007047D9
:10034000405DC60080BA8C010024F400B081E00F4B
:100350000048E80180D5430280841E0000093D006A
:10036000C0CF6A0040420F0010B5144B144A5B68BE
:100370000024C9B28C42234608D00133052B02F178
:10038000080213D012F8084C8C42F6D152F80C4CEB
:100390008442F2D30B4A02EBC3035B791A06074986
:1003A0004B6823F0407313434B6010BD40F6D831C7
:1003B0000548FFF77DFF4FF04072F0E700000E4068
:1003C000EC5E0000E05E0000CC5E000038B5074C3B
:1003D00041F67133256C2364FFF70AFF0021FFF714
:1003E000C3FF0DB10023236438BD00BF00000E40E1
:1003F00038B5054C41F67133256C2364FFF7B4FF23
:100400000DB10023236438BD00000E40C0F3032368
:10041000013B30B4092B43D8DFE803F00D1542420D
:100420002F3D1D423705214CC0F30430204480008D
:1004300030BC016070471E4CC0F304302044800083
:1004400030BC016070471B4CC0F304302044800076
:1004500030BC01607047184CC0F304301025174BB6
:10046000D3F84421D207E1D4D3F840212A42FBD16A
:100470002044800030BC01607047114CC0F3043050
:100480002044800030BC01607047C0F304300D4C44
:100490004FF48035E3E7C0F304300B4C0125DEE771
:1004A00041F23C11094830BCFFF702BF800AF2104C
:1004B0000000F2100006F2104007F21000400E405B
:1004C0008005F2108007F2100007F210CC5E0000E9
:1004D00000F00F00013808B507284AD8DFE800F01F
:1004E000121F2D49394149042F4BD3F85C3103F0D9
:1004F0003003202B4AD0302B52D0102B0CBF0720BA
:10050000012008BD284BD3F8943003F00703023BC9
:10051000052B43D8DFE803F03A383640423E224B01
:10052000D3F8800000F007000228EAD0042827D082
:1005300001280CBF0320012008BD1B4BD3F88430D9
:1005400003F00703013B032B2CD8DFE803F01D1B4E
:100550002119154BD3F8880000F007000228E5D1D7
:1005600008BD114B1B6F13F0010F14BF09200720AA
:1005700008BD41F276610D48FFF79AFE002008BDE4
:100580000A2008BD022008BD032008BD042008BDC4
:10059000062008BD0C2008BD0B2008BD052008BDA5
:1005A000082008BD012008BD00400E40CC5E0000C0
:1005B00038B52E4B984205460AD02D4B984207D0AD
:1005C0002C4B984204D040F6C9412B48FFF770FEEF
:1005D0002846FFF77DFF254B9D42044625D0244B3E
:1005E0009D421CD0234B9D4213D040F6F841224837
:1005F000FFF75EFE042C04D8DFE804F009332F2156
:100600001D0040F64A511C48FFF752FE00242046C8
:1006100038BD1A4BD3F8804004F00704EAE7174BC3
:10062000D3F8884004F00704E4E7144BD3F884407F
:1006300004F00704DEE7BDE83840FFF72FBEFFF700
:1006400003FE0E4BD3F80041C4F30064631C012485
:100650009C40B0FBF4F4204638BDBDE83840FFF7BD
:1006600021BEBDE83840FFF715BE00BF03002000E3
:100670000500240002001E00CC5E000000400E4079
:1006800000F47810B0F5A01F08B500F09C801AD9CE
:10069000B0F5001F37D058D9B0F5381F38D06AD917
:1006A000B0F5401F6FD0B0F5481F19D16648FFF76D
:1006B0000FFF0138072800F2C080DFE800F0AEBE6F
:1006C000BEBABEBE43B0B0F5202F18D00FD9B0F5DA
:1006D000602F32D0B0F5801F34D0B0F5402F21D03C
:1006E00041F262215948FFF7E3FD002008BDB0F553
:1006F000003F7DD0B0F5802F6FD00028F0D1BDE84D
:100700000840FFF779BD5248BDE80840FFF750BFE9
:100710005048FFF74DFF504BD3F82031C3F301137E
:10072000D84008BDFFF768FD4B4BD3F81431C3F335
:1007300004230133B0FBF3F008BD4848FFF7C8FEBF
:10074000072860D1464B186808BDB0F5D01F2DD0E2
:10075000B0F5F01F25D0B0F5B01FC1D13D48FFF76F
:1007600027FF3D4BD3F82021012302F00F029340D5
:10077000B0FBF3F008BDB0F5101FB1D13948BDE8AA
:100780000840FFF715BF3248FFF712FF324BD3F88E
:100790002831C3F301231A1D01239340B0FBF3F06A
:1007A00008BD2C48BDE80840FFF702BF2848FFF706
:1007B000FFFE294BD3F828210123C2F301129340F5
:1007C000B0FBF3F008BD2748FFF7F2FE224BD3F849
:1007D000303103F00303D84008BDFFF70DFD1E4B79
:1007E000D3F80C31C3F308230133B0FBF3F008BD99
:1007F000FFF702FD184BD3F80831C3F30823013388
:10080000B0FBF3F008BD09283FF479AF40F69A2118
:100810000E48FFF74DFD002008BD002008BDFFF782
:10082000EBFC0D4BD3F80031C3F3042303FB0000B2
:1008300008BDBDE80840FFF719BD40F6D1210348C7
:10084000FFF736FD002008BDB8003200CC5E000086
:100850000300200002001E0000400E4006000E00B3
:1008600010000020050024002DE9F0470546FFF7A1
:1008700021FD431E0333064672D8DFF8C0811120E4
:10088000D8F80070C8F80050FFF722FE052800F0E5
:1008900082805E4B1C68002CFCD1731C75D05C4BB5
:1008A0009D426DD05B4B9D4260D05B4B9D4220D002
:1008B0001120FFF70DFE052824D1584B9D425CD92D
:1008C000574901208D428CBF4FF000714FF080716D
:1008D000544B554A1860D2F8003123F080730B4313
:1008E000BD42C2F800310FD90121284600F0ECFDCD
:1008F0000AE026F0C06646F080661120FFF7E8FDAA
:1009000005283AD0BD42EFD8474B11201E61FFF7B2
:10091000DFFD052842D04548FFF7B2FE3F4B984225
:100920001CD93F4B012498428CBF4FF000734FF00D
:1009300080733C493C4A0C60D2F8000120F0807082
:100940001843BD42C2F8000103D80121002000F085
:10095000BBFD1120BDE8F047FFF7BABD0023E8E773
:1009600041F6FF213248FFF7A3FC86E71120FFF78D
:10097000AFFD052826F0C066C4D100200146A7E7D8
:1009800026F0C06646F00076B7E741F610312848F9
:10099000FFF78EFC83E7FFF719FD7AE7FFF754FCBA
:1009A000854281462CD3D8F800304B4520D39D4258
:1009B00018D1204B1E68002EFCD11F4BDFF8808021
:1009C0005968D8F840A041F671334846C1F3014157
:1009D000C8F84030FFF7C8FCBAF1000F9BD0C8F848
:1009E000406098E741F63E311148FFF761FCE0E7CF
:1009F00041F63D310E48FFF75BFCD8F80030D6E7F2
:100A000041F63C310A48FFF753FCCCE76028C84365
:100A100080841E0000093D0040420F000048E801AC
:100A20000090D0034000C84300400E4000250A005B
:100A3000CC5E0000C800C64300300E400800002015
:100A400000000E40013810B50C4603284ED8DFE8F0
:100A500000F0203211027F2961D8344A04F07F046B
:100A60001368002BFCD1324A936923F07F031C43A7
:100A7000946110BD7F294CD82E4A04F07F0413687E
:100A8000002BFCD12A4A136923F07F031C43146115
:100A900010BDB1F5007F36D2274AC4F308041368AD
:100AA000002BFCD1224A136A23F4FF7323F00103C5
:100AB0002343136210BD1E4BD3F890305B071CD448
:100AC0001B491E4B4A6A22F0300242F010024A6271
:100AD000086BC4F3C312033203400F2A44EA030431
:100AE00028BF0F2244EA02740C6310BD41F668610E
:100AF0001348BDE81040FFF7DBBB41F64E611048DC
:100B0000FFF7D6FBDCE741F617610D48FFF7D0FB96
:100B1000C2E741F624610A48FFF7CAFBACE741F699
:100B20003F610748FFF7C4FB97E700BF6428C8434D
:100B300000400E406028C8436828C84300F8FF0FF3
:100B4000CC5E0000022810B50C4604D04FF4F451DE
:100B50001348FFF7ADFB134B5B6A13F0300F0BD05C
:100B6000202C19D0302C07D034B141F69B610C48B1
:100B7000FFF79EFB0C4A01E04FF440020949D1F80F
:100B8000903032EA0303FAD153024ABFD1F8A000F1
:100B90000120C0F3802010BD4FF40002EEE700BF3B
:100BA000CC5E000000400E40FF33E107F0B5044684
:100BB00083B00E4604287FD8DFE800F003595F7940
:100BC00053004FF400754FF4807708234FF0090C61
:100BD00096B9012098404A490D66D1F890300342F9
:100BE000FBD13AB10122464902FA0CF2D1F8903019
:100BF0001342FBD103B0F0BD4249194489000026DD
:100C00003F4B1F660B68002BFCD0002AF2D03D4DF5
:100C10006544AD002B68002BFCD0022CEAD1002EDD
:100C2000E8D0374A516A11F0010165D04FF4806372
:100C30002021C2F8A83020465166FFF783FF304CD0
:100C4000D4F89C60012200210220FFF7AFFFC6F319
:100C50000A010220FFF7F6FE27662B68002BFCD066
:100C6000C8E72025102704234FF0050CB0E78025A6
:100C7000402706234FF0070CAAE7002937D0204B66
:100C80005B6A13F0300F1FD11F4BDB6B580526D565
:100C90001B4B596AC9071DD5586A1C4920F0300002
:100CA00040F01000586204274FF0030CA8E701271A
:100CB000BC46022500238BE7154841F6655103B079
:100CC000BDE8F040FFF7F4BA104904274FF0030CD9
:100CD000002695E70D4904274FF0030C90E741F6F5
:100CE00074510B480192FFF7E3FA019AD0E7042010
:100CF00008254FF0030C6EE72046FFF723FF9EE721
:100D000000400E408004F21000300E400812C8432C
:100D1000CC5E00001128F8B50C460AD000F00F0098
:100D20000138072863D8DFE800F0093F43621B2839
:100D30006231042900F0928005293BD00025023C55
:100D40000A2C00F22881DFE814F0F900FC0006010B
:100D500013012601260126012601FF00B400F70039
:100D60000629944D57D0013C092C47D8DFE804F000
:100D70003D362F4646584646462C072900F0158139
:100D8000092972D18C4B01221A67F8BD4C1E072C21
:100D900000F2FA80DFE814F08B00F800F80084001D
:100DA000F800F8007D00730006292ED0834DDAE7A5
:100DB000834DD8E7834A844B15689D42BED90021F4
:100DC000284600F081FBBAE704232B60F8BD01221E
:100DD00011461046FFF7EAFE0123F6E7012211460D
:100DE0000020FFF7E3FE0223EFE70023EDE741F6E3
:100DF0006D117648BDE8F840FFF75ABA41F2AE717E
:100E00007248BDE8F840FFF753BA41F275716F4878
:100E10006A4DFFF74DFA6D4841F28971FFF748FAC4
:100E2000FFF712FA6A4B984226D96A4B012498427E
:100E30008CBF4FF000734FF0807367495E4A0C60BF
:100E4000D2F8000101F5AE51083120F0807018434E
:100E50000124C2F8000103230C60B6E7FFF706FA8D
:100E6000054600283FF46AAFA9E741F63801574824
:100E7000BDE8F840FFF71CBA00231C46DDE730212F
:100E80004D4AD2F85C3123F030030B43C2F85C3199
:100E9000F8BD012211460420FFF788FE1021EFE77C
:100EA000012211460220FFF781FE2021E8E7002100
:100EB000E6E70320052401221146FFF777FEFFF73E
:100EC00085FA1DB1454A1368002BFCD13A4B4448C2
:100ED0005C67FFF7D5FB3E4B984263D93D4B01243D
:100EE00098428CBF4FF000734FF080733A49324AFA
:100EF0000C60D2F8000120F080701843C2F80001A5
:100F0000FFF7A2F9354B1C68002CFCD1354B364E4F
:100F10005968376C41F67133C1F301413364FFF70F
:100F200023FA07B13464002D7FF42FAF2846012146
:100F3000BDE8F84000F0C8BA0724C0E70020042448
:100F4000B9E701200324B6E741F234711F48BDE838
:100F5000F840FFF7ADB9204B174A01211960D2F8CC
:100F60000031022043F08073C2F800310446A2E74A
:100F7000194B114A01241C60D2F8003143F08073F0
:100F8000C2F80031032096E741F696010F48BDE80C
:100F9000F840FFF78DB941F239710C48BDE8F840CF
:100FA000FFF786B900231C46A0E7034B00221A670F
:100FB000F8BD00BF88400E4000400E4080400E400B
:100FC00084400E4008000020002D3101CC5E00005E
:100FD0000048E8010090D0034000C843C800C64361
:100FE00000250A0000300E4000000E4038B50446CF
:100FF0001120FFF76DFA04284DD0012200210220B4
:10100000FFF7D4FD637813B9A378002B36D041F6EF
:101010005B412448FFF74CF9217C012934D0224A56
:101020002248536A257823F00103022908BF43F0C0
:10103000010353620560A388617AE58841EAC32110
:10104000D162136B207AA17A03F07F630B43C11C3A
:1010500043EAC5230F2943EAC01328BF0F2143EAFF
:1010600001731363A37B657BE07B217B1B0143EA58
:101070000533034343EA0143536338BDE378002B50
:10108000C5D1217C0129CAD14FF4E3510548FFF7AE
:101090000FF9217CC3E741F61D410248FFF708F92B
:1010A000ABE700BFCC5E000000400E40A004C84388
:1010B00038B542EA032340F20112934205460C463A
:1010C00060D0B3F5817F14D340F20122934250D017
:1010D00030D9B3F5407F24D040F2013293423ED163
:1010E0002D4BD3F878311A0EC3F307432B602260DF
:1010F00038BD012B2AD00BD3B3F5807F2FD1264BDF
:10110000D3F86C311A0EC3F307432B60226038BD4D
:10111000214BD3F86C31C3F30722DBB22B60226082
:1011200038BD1D4BD3F870311A0EC3F307432B6043
:10113000226038BDB3F5007F11D1174BD3F8703161
:10114000C3F30722DBB22B60226038BD124BD3F809
:101150007431C3F30722DBB22B60226038BD40F24A
:10116000D3710E48FFF7A4F8002213462B602260CB
:1011700038BD094BD3F87831C3F30722DBB22B60BB
:10118000226038BD044BD3F874311A0EC3F3074301
:101190002B60226038BD00BFB081E00F085F000007
:1011A000094A1368002BFCD1084B19685A68C1F32F
:1011B0000121C2F3014291421A688CBF42F0100231
:1011C00022F010021A607047C800C64300300E407B
:1011D000044B1B69C3F30443082B02D1024B034A9F
:1011E0001A60704700400E4008000020C0EA21014C
:1011F00070B5274B274C1978274B284D284AC1F149
:10120000020010218140216145F60E01D3F8804192
:10121000C3F88011286840F25511014004F0010420
:1012200019661368002BFCD11A4B1B68D80617D51A
:10123000194AD2F84031D901FBD41A4E1A4B3178F1
:101240001B681361052916D01120FFF763FD2B6879
:10125000DB070CD51CB1104B0022C3F8802170BDF8
:10126000104E31780529EFD12B68DB07F2D40A4BF9
:1012700002221A66EEE70D4B094A18681368002B24
:10128000FCD1044B5968C1F30141FFF7B1F8E8E71D
:101290001902002000300E4000400E4008020020DD
:1012A000C800C643120200201402002008000020DB
:1012B0001C4B022810B5D3F880310C4620D00328EF
:1012C0001CD0012814BFDBB2C3F307231B0323F494
:1012D000704244B9BAB91449CA6E22F47042134339
:1012E000CB66012010BDAAB90F49D1F8EC2022F439
:1012F00070421343C1F8EC30012010BD1B0EE5E72E
:10130000C3F30743E2E740F262710848FEF7D0FFFB
:10131000204610BD40F26E710448FEF7C9FF002060
:1013200010BD00BFB081E00F00300E40085F00002C
:101330000C4A08B50C4BD2F890201A601120FFF728
:10134000C7F80A4B0A4A18701368002BFCD1094BE6
:1013500009485B680349094AC3F3014303700B69F9
:10136000136008BD00400E40080200201202002059
:10137000C800C64300300E401902002014020020AD
:1013800010B50446B0B9FFF70BFF0E4A136943F0DE
:101390000403136130BF84B90B4B1B68DB0603D415
:1013A000BDE81040FEF750BFFFF712FFBDE8104048
:1013B000FEF74ABFFFF7BCFFE5E7BDE81040FFF7C7
:1013C00017BF00BF00ED00E000300E4010B504462E
:1013D00018BBFFF7E5FE144BD3F88021D20748BFB6
:1013E000002245F60E01C3F8801148BFC3F88021E2
:1013F0000E4A136943F00403136130BF84B90C4BE8
:101400001B68DB0603D4BDE81040FEF71DBFFFF7E5
:10141000DFFEBDE81040FEF717BFFFF789FFD8E7F2
:10142000BDE81040FFF7E4BE00400E4000ED00E0D4
:1014300000300E401F4B2DE9F04104460E46D3F814
:101440000051FEF7D9FE1C4A07461368002BFCD159
:101450001A4A5368C3F301439C4229D0C4F10208DD
:101460001023022C03FA08F80DD0C2F810801EB128
:10147000114A1368002BFCD1D4B921463846BDE887
:10148000F041FEF7B5BFC5F304250D4B05FB07750D
:101490009D4204D940F2B3410A48FEF709FF0221F8
:1014A0003846FEF7A5FF054BC3F81080002EDFD1AC
:1014B000BDE8F08100400E40C800C64300300E4039
:1014C000002D3101085F000010B5104B82B0D3F839
:1014D000004158B10E4B1B7813B10E4B98420ED9F8
:1014E000002002B0BDE81040FFF7A4BF0191FEF755
:1014F00083FEC4F3042404FB00000199EAE7022000
:1015000002B0BDE81040FFF795BF00BF00400E409D
:1015100018020020FF2C3101094942780B6823F49E
:10152000407343EA0223022A0B6000D07047054B48
:101530005B6A9B00FAD540F2ED410348FEF7B8BE66
:1015400000300E4000400E40085F00001E4A936FBE
:10155000DB07FCD4136C13F003031CD01B4A0121DE
:10156000834211601CD0032B02D1431E012B18D9DA
:10157000154A936FD907FCD4136C134923F0030366
:10158000034313648B6FDB07FCD400300F4B18BF91
:101590000120186070470028E7D10C4B1860704795
:1015A0007047094A4FF40023D362936FD907FCD4E4
:1015B000136C054923F0030343F0010313644B6AE2
:1015C0001B03FCD5D4E700BF00300E40B40AC6436D
:1015D0002DE9F04F044689B0A0F5E1600025B0F593
:1015E000966F0191CDE90255CDE90455CDE9065537
:1015F00000F284805D4BB4F5E16F9346D3F8683117
:101600008CBF4FF001084FF0000863D1C3F30722ED
:10161000DBB2079204934FF416794FF4966A544F55
:10162000FD6CC5F3017505A902A82B464246FFF7DC
:101630003FFDD7F8EC60C6F301264246334606A9C3
:1016400003A8FFF735FD049A0798A4EB0A01831A53
:1016500001FB03F3B3FBF9F3D3182CBF01220022E3
:10166000984241D3002A3FD10698DDF80C80A0EBC8
:10167000080201FB02F2B2FBF9F218EB02082CBFE0
:101680000122002240452FD372BB059A0298A2EB9B
:10169000000C01FB0CF1B1FBF9F910EB09092CBFAF
:1016A000012100214A451FD3F1B9BBF1000F0DD034
:1016B000FA6D22F4FE4222F0020242EA0323B4F55C
:1016C000E16F2B4A18BF43F00203D365019BF3B9C6
:1016D00001250FE01A0EC3F30743079204934FF45A
:1016E00096694FF4E16A9AE740F654112148FEF7F3
:1016F000DFFD0025284609B0BDE8F08F40F6061151
:101700001C48FEF7D5FD284609B0BDE8F08F2846F5
:101710000021FFF7CDFD0546E0B130460121FFF77E
:10172000C7FD0546E0B1124A536EC14538BFC146F8
:1017300023F4FF73B9F1E70F23F0010328BF4FF043
:10174000E709B4F5E16F18BF43F0010343EA490329
:101750005366CFE740F663110648FEF7A9FDC9E7D7
:1017600040F66B110348FEF7A3FDC3E7B081E00F1D
:1017700000300E40085F000038B53B4B1A6FD96C43
:10178000CC0702F007020BD5012A55D9132850D9EE
:10179000143813288CBF4FF47F414FF4EE410CE016
:1017A000D96CCD073FD4012A53D9DB6C2F4840F6C2
:1017B000A911FEF77DFD6FF0FF012B482C4AC36C89
:1017C0002C4C23F47F430B43C364C16C1388C26C5D
:1017D000C1F303210131283301EB810503EB5303EE
:1017E000B3FBF5F3013B072B22F0EE6228BF072382
:1017F00042F4801242EA0363B4F90020C364002A71
:1018000010DB036D4C08283204EB410102EB52025D
:1018100023F07004B2FBF1F3072B28BF072344EA3F
:101820000313036538BDDB6CDC07BFD5012ABDD8C7
:1018300008E04FF44C51C0E7DA6CD20709D5DB6CF5
:10184000DB07B3D527288CBF4FF47F414FF4EE411F
:10185000B3E70928EDD90A3809288CBF4FF47F4136
:101860004FF4EE41A9E700BF00300E40085F0000D2
:101870000E020020100200200B4B1B6810B504461E
:1018800033B9012804D940F6C8110848FEF710FD05
:10189000074B084A186F20F0070020431867BDE87F
:1018A00010401088FFF768BF8009C643085F00003A
:1018B00000300E400C0200206B4B022270B59A6380
:1018C0009B6B03F00F03934222D10389C82B04467C
:1018D00000F28680A2889A4200F28C80B4F90C3023
:1018E000C82B00F391806378012B6CD0022B00F0A1
:1018F000B080E38842F21072934200F2A3804A2B38
:101900000ED9B3F5FA7F80F089804FF0805008E05F
:1019100040F66D0155480025FEF7CAFC284670BD0B
:1019200000205149B4F90C60CB6C514D23F0405369
:1019300023F00103002EA8BF43F001030343CB644F
:10194000D1F8EC3043F44073C1F8EC30CB6E43F087
:101950008073CB662868002831D1FFF78DFF454A98
:10196000454BA088454925891080B4F90C201A8080
:101970000D80FFF701FFA37B002B5FD0012B2BD045
:1019800040F213713948FEF793FC0122114660883A
:10199000FFF71EFE0546002849D0334A6078D36B16
:1019A00043F48063D363FFF7D1FDA37A344AA3F1F4
:1019B0002003B3FA83F35B091360284670BD04204B
:1019C000FFF75AFFCBE7A388C82B92D940F67D01D9
:1019D0002648FEF76DFC8CE7234B2A4A9A65D4E72C
:1019E00040F677012148FEF763FC2389A2889A42DA
:1019F0007FF674AF40F678011C48FEF759FCB4F945
:101A00000C30C82B7FF76FAF40F679011748FEF70F
:101A10004FFC6378012B7FF469AFD4E740F6C31025
:101A200083428CBF4FF040504FF0005079E740F6B2
:101A3000C1010E48FEF73CFC284670BD0A4B124A15
:101A40009A65A2E740F68A010848FEF731FCE38870
:101A500055E7A3880A2B7FF64CAF40F68201034876
:101A6000FEF726FC45E700BF00300E40085F00008F
:101A70008009C6430C020020100200200E02002044
:101A80009407C643372110B777402057032838B54D
:101A900004460D461BD9042805D0052817D0A0F10F
:101AA0000803022B13D983210B48FEF701FC04EB3A
:101AB0004400000100F1804000F5204000F1806307
:101AC00000F1C0604FF001121A60056038BD35F0BA
:101AD0000113E8D1EBE700BF1C5F00002DE9F041E6
:101AE0000D46174698460446E8B1012800F0B48038
:101AF000022800F0F480032800F0EE80042800F0B3
:101B0000A580052800F02181831F012B40F29E80D3
:101B1000082800F02981092800F031810A2840F0C6
:101B20009580072301E040F2FF332B41DE0740F1AF
:101B30008D80002F3CD16600072D25D833191B015D
:101B400003F1804303F52043A9005A680F20884021
:101B500022EA000207FA01F10A435A6097B9B8F184
:101B6000000F57D1002C7AD140F2FF332B41DB0715
:101B700040F1B8808D4B344424012344012202FA01
:101B800005F51D60BDE8F0813119090101F18041C1
:101B900001F5204105F1804008388B6880000F2254
:101BA000824023EA020307FA00F018438860D5E771
:101BB000B8F1000F10D0002C68D140F2FF332B4158
:101BC000D80740F195806600794B32191201134411
:101BD0000122AA401A60AFE7002C6CD0012C00F063
:101BE000AB80022C00F0B480032C00F09680042C13
:101BF00000F08480052C00F0B980A31F012B7DD953
:101C0000082C00F0C380092C00F0C7800A2C75D185
:101C1000072352E0002C57D0012C00F09080022CBA
:101C200000F09C80032C7ED0042C6DD0052C00F09D
:101C3000A380A31F012B67D9082C00F0A580092CD5
:101C400000F0AE800A2C5FD107233FE040F2131171
:101C50005848FEF72DFB6CE74FF6C07365E7012C83
:101C600064D0022C6ED0032C54D0042C3AD0052C16
:101C700077D0A31F012B35D9082C00F08380092CC5
:101C800000F088800A2C2DD107236FE7012C50D05B
:101C9000022C60D0032C43D0042C29D0052C68D012
:101CA000A31F012B24D9082C72D0092C7BD00A2C1D
:101CB0001ED1072383E740F2FF332B41D9071DD5FF
:101CC00066003219394B81E740F2FF332B41DA07C6
:101CD0001AD53444364B4FE74FF47F4325E740F69F
:101CE000FF7322E740F2DD313348FEF7E1FA41E7C6
:101CF00040F20C413048FEF7DBFA64E740F2DD3198
:101D00002D48FEF7D5FADBE740F20C412A48FEF7F2
:101D1000CFFADEE74FF47F4328E74FF47F43CCE769
:101D20004FF47F434BE74FF47F43CFE74FF6C07349
:101D30001CE74FF6C07342E74FF6C073BDE74FF69E
:101D4000C073C3E740F6FF7310E74FF6FF73ECE68E
:101D500040F6FF73B1E740F6FF7330E740F6FF73DC
:101D6000B4E74FF6FF7301E70F23DEE64FF6FF738C
:101D7000A3E74FF6FF7322E74FF6FF73A6E74FF492
:101D80004043D2E60F23F1E60F239FE70F2394E7AA
:101D90000F2314E74FF44043E8E64FF440438CE749
:101DA0004FF4404392E74FF4404308E70CA000444F
:101DB0000CA000461C5F0000305F0000002A54D0D9
:101DC000F8B50F460168054603F0030621F440719B
:101DD00000F1C063144600F18062296030024FF4C4
:101DE00040711160186057B92F4B9D4256D02F4B50
:101DF0009D4243D040F22F112D48FEF759FA2B682F
:101E00009A071ED5032E35D14FF4B2712848FEF73C
:101E10004FFA284B9B5D04FB03F3FBB16FEAC4044C
:101E20001C443C44B4FBF3F4013C2CD4B4F5007FD7
:101E30002ED22B689B0702D5002C08BF01242C61F1
:101E4000F8BD032EE0D01C4B53F826309F42DBD95F
:101E5000184B9B5D04FB03F3002BDFD140F275119F
:101E60001348BDE8F840FEF723BA40F215111048B8
:101E7000FEF71EBA114B53F82630E7E71048FEF77D
:101E8000FFFB0746BBE740F27B110948FEF710FA5B
:101E90004FF4BE710648FEF70BFACAE70948FEF791
:101EA000EFFB0746ABE700BF00C0004000C40040A6
:101EB000A05F0000B45F0000945F0000885F000036
:101EC000009204000082040038B5094B9842044691
:101ED0000D4608D003F58063984204D040F2951176
:101EE0000448FEF7E5F904F104746401256038BD87
:101EF00000C00040A05F0000124B984270B504463D
:101F00000D4608D003F58063984204D04FF4D57194
:101F10000D48FEF7CDF969780C482B7B620102F180
:101F20008442002681F001012664E0635160D5E916
:101F300001122046FFF742FF29782046BDE8704095
:101F4000FFF7C2BF00C00040A05F0000FFFF070016
:101F50000D4B984270B504460D46164609D0BD217A
:101F60000A48FEF7A5F965B1012D01D114342660A8
:101F700070BD0129F3D8130C1B04002BEFD1002DE9
:101F8000F2D11034F3E700BF00600440B85F0000F6
:101F900038B5084B984204460D4603D0EA2106485E
:101FA000FEF786F915B90223636038BD012363602B
:101FB00038BD00BF00600440B85F00001D4B984270
:101FC00070B505460C4604D04FF4A5711A48FEF7CB
:101FD0006FF9217821B9AB68DA0744BF02236B603F
:101FE0006278A078E368002A14BF4FF48052002280
:101FF000E0B9DBB9E3780BB142F4807223790BB11D
:1020000042F0400263790BB142F08002E379A67995
:10201000207A1B0143EA8603034313432B6021B15B
:10202000AB68DB075CBF01236B6070BD42F40072DC
:102030002B61DFE700600440B85F000070B5054623
:102040000C4616462AB36CB9184B9D4206D04FF485
:1020500096711748BDE87040FEF72AB91548FEF79B
:102060000FFB04466401144BB4FBF6F4203CE4007F
:102070009C4214D82B6C104AD90702EA040201D5FD
:10208000EA6070BD6B6C5B07FAD56B6C5B07F9D4CB
:10209000F6E74FF482710648FEF70AF9D3E740F2FB
:1020A00039110348FEF704F9E4E700BF00A004403B
:1020B000D05F000090171A00F8FF0100154B9842FE
:1020C00070B504460E4604D04FF4DF711248FEF797
:1020D000EFF8236CDA0702D4636C9B07FCD40A2365
:1020E0006360656C002DFCD101232364707B337B1E
:1020F000B17B2268034322F01C020B43134323608D
:10210000D6E901122046FFF799FF33786360256412
:1021100070BD00BF00A00440D05F000030B58BB0A0
:10212000002302901C2001220391ADF80200022539
:10213000042469460A488DF804308DF805308DF87E
:1021400001308DF800308DF810308DF818308DF892
:10215000202005920795099400F0DAFC0BB030BD01
:102160000060044008B500F013FF00F0C1FF00F06C
:10217000BBF800F0E3F807490748FFF7CFFF00F08E
:1021800027FF2020402100F07BF81020BDE8084008
:1021900000F004BFCDCCCC3D6666464008B50120BA
:1021A00000F006FF7F210248BDE80840FEF780B836
:1021B000F85F000008B5022000F0FAFE9121024805
:1021C000BDE80840FEF774B8F85F000008B500F0FD
:1021D000F9FE430703D4A1210448FEF769F804205F
:1021E00000F0E6FEBDE8084000F020BFF85F000008
:1021F00008B500F0E7FE030712D5082000F0D8FE6E
:1022000000F02AFFDFED097A07EE100AB4EEE77A54
:10221000F1EE10FAACBF064B064B20221A6008BD47
:10222000B3210548FEF744F8E7E700BF0000A042ED
:10223000FCA00046FCA00044F85F000008B5102098
:1022400000F0B6FE0248BDE8084000F03FB800BF0D
:10225000E85F000008B500F0B5FE830603D4E42172
:102260000548FEF725F8202000F0A2FE01210348D2
:10227000BDE8084000F0EABCF85F000000600440E0
:1022800070B58CB0CDE90A104FF41651002201232D
:10229000009105264FF49055122469460A488DF89E
:1022A00004208DF8062002928DF80C208DF8056030
:1022B00007950594089306938DF825308DF8243002
:1022C00000F022FD0CB070BD00A0044010B5044623
:1022D00002F0F8F821460246BDE81040014800F03F
:1022E000E5BD00BF00A0044010B5104C0121204600
:1022F000FEF78CF8002211460120FEF757FC012260
:1023000011460020FEF752FC02210948FEF702FDAB
:102310000A210848FEF7FEFC01210748FEF776F87F
:1023200020460121BDE81040FEF770B8404105008D
:102330000300200002001E0000250A0010B5012144
:102340002048FEF763F800210520FFF79FFB0422D9
:10235000114600230520FFF7C1FB00210520FFF7F0
:1023600095FB0521084600230422FFF7B7FB4FF039
:1023700001110120FFF78AFB0123184604220A21DC
:10238000FFF7ACFB012308220B210220FFF7A6FB7D
:10239000012308220A210220FFF7A0FB4FF480311D
:1023A0000320FFF773FB012304220A210320FFF718
:1023B00095FB002301220B210320BDE81040FFF70D
:1023C0008DBB00BF00350A002DE9F04F0C784D6839
:1023D00083B00F460190ECB1012C00F03681022C45
:1023E00000F04881032C00F03C81042C00F01481A3
:1023F000052C00F05481A31F012B40F20D81082C05
:1024000000F05081092C00F051810A2C40F0048129
:10241000072301E040F2FF332B41DE0740F1FC804F
:1024200004EB4404A44B05EBC41423449B001B6839
:10243000002B00F0F7803C7AFD68ECB1012C00F035
:102440000781022C00F01381032C00F00D81042C75
:1024500000F0DC80052C00F01F81A31F012B40F24F
:10246000D580082C00F02081092C00F022810A2C54
:1024700040F0CC80072301E040F2FF332B41D80726
:1024800040F1C48004EB44048B4B05EBC41423449B
:102490009B001B68002B00F0CA80DFF828924FF0E9
:1024A00009084FF0010A3C7AFD68002C00F08D808D
:1024B000012C00F09080022C00F09C80032C00F096
:1024C0009C80042C0ED0052C00F0B680A21F012A9F
:1024D00008D9082C00F0C180092C00F0CE800A2C0D
:1024E00000F0D48040F20C414846FDF7E1FE04EBD9
:1024F000440272493C787E68120111440AFA05F5DB
:102500000D60002C59D0012C6BD0022C6CD0032C08
:1025100076D0042C0ED0052C00F09480A21F012A46
:1025200008D9082C00F09B80092C00F0A9800A2C07
:1025300000F0AE8040F2DD314846FDF7B9FE3D784F
:10254000D7F804B05E4A04EB4404240122440AFA9A
:1025500006F6166055B3012D40D0022D47D0032D4D
:1025600051D0042D0CD0052D69D0AA1F012A07D9FE
:10257000082D70D0092D00F086800A2D00F08A8089
:1025800040F20C414846FDF793FE05EB45054B49EB
:102590002D0129440AFA0BF2B8F101080A6082D130
:1025A000019A2023536003B0BDE8F08F40F2FF3260
:1025B00042FA0BF2D307E8D4E2E740F2FF323241AD
:1025C000D207B7D5B3462546BCE740F2FF322A41D1
:1025D000D1078CD486E74FF6C072F8E74FF6C07289
:1025E000E6E74FF6C072EAE740F6FF72E7E740F62B
:1025F000FF72DDE740F6FF72E9E74FF47F42E6E75E
:102600004FF47F42DBE74FF47F42D1E740F2AE3137
:102610002C48FDF74DFE35E740F2AE312948FDF775
:1026200047FEFDE6AA212848FDF742FE03E7AB215D
:102630002548FDF73DFE30E74FF6FF72C7E74FF63E
:10264000FF72B5E74FF6FF72B9E74FF6C073E3E6E6
:102650004FF6C07312E70F22AAE70F22B7E70F2247
:10266000ADE74FF47F43D7E64FF47F4306E740F6EC
:10267000FF7303E740F6FF73CEE64FF44042A6E750
:102680004FF440429BE74FF4404291E707229EE718
:10269000072294E707228BE74FF6FF73EEE64FF62B
:1026A000FF73B9E60F23B7E60F23E7E64FF4404385
:1026B000B2E64FF44043E1E6E00085100CA000468E
:1026C0000CA00044305F000014600000F0B5494FDA
:1026D000494CB842236085B004460D46164675D075
:1026E000464B984277D0636B13F0010F4FF0010314
:1026F0004BD1A363636BDA0759D50123E3632A78CF
:102700006B7869688DF80C208DF800302A7AEB68B8
:102710000291204669468DF801200193FFF7ECFBFA
:102720006B8AA364A16CAB8A2A7C0B43A364636CA1
:10273000002A38D043F0010363646B7C002B2DD05A
:10274000636C43F00203636400224FF4F07322646D
:10275000E363236C274A43F040032364236C43F074
:1027600080032364236C43F020032364236C94428E
:1027700043F48073236433D0204B9C421CD03146F9
:102780002046FFF721FE05B0F0BDE363636BDB0776
:10279000B5D551211A48FDF78BFDB0E7636C23F0E6
:1027A00002036364D0E723F001036364C5E74C21AF
:1027B0001348FDF77DFDA0E7124B4FF480625A608D
:1027C00031462046FFF700FE05B0F0BD01210E485E
:1027D000FDF71CFE87E701210C48FDF717FE82E795
:1027E000084B4FF400321A6031462046FFF7ECFDEB
:1027F00005B0F0BD00C000401C02002000C4004035
:102800001460000000E100E0008204000092040077
:102810002DE9F0410F468168069E11F0E00F044655
:102820001546984603D0DC210B48FDF741FD0220F8
:1028300000F088FC094B012207FA02F162601A706D
:10284000079A5C609E615A61C3E9027583F8108043
:10285000E162BDE8F08100BF1460000020020020AA
:10286000A04B70B55C6B1A6C14406106DC6321D41C
:1028700004F0800575BBA30604F480750CD405B97B
:1028800070BD994B1B78062B00F21081DFE803F036
:10289000373E454C3091A700934B1A78062A00F238
:1028A0001281DFE812F0600068007100D1007A0048
:1028B0008D00A5008C4B1A7804F08005062A00F2E2
:1028C000FC80DFE812F0E7009E00AC00CA00E100E7
:1028D000D500DB00844B1A78062A00F2FD80DFE881
:1028E00012F02A0030009800DF00C10036003C00E2
:1028F00040F291117D48BDE87040FDF7D9BC40F22F
:1029000085117A48BDE87040FDF7D2BC4FF4C47120
:102910007648BDE87040FDF7CBBC40F28B117348A0
:10292000BDE87040FDF7C4BC4FF4C7716F48BDE807
:102930007040FDF7BDBC40F22F116C48FDF7B8FCAC
:1029400099E74FF499716948FDF7B2FC93E740F2BB
:102950003F116648FDF7ACFC8DE74FF4A171634869
:10296000FDF7A6FC87E740F257116048FDF7A0FC91
:10297000002D85D085E74FF4AD715C48FDF798FCDC
:10298000002D3FF47DAF7CE740F25D115748FDF725
:102990008FFC002D3FF474AF73E759685C69CA6916
:1029A000120222600420052248601A70002D3FF4B4
:1029B00067AF4FF4CA714D48BDE87040FDF778BC71
:1029C0005A685869D46901682143016008260224C5
:1029D0000621566019705460002D3FF451AF02205B
:1029E00000F0C4FB424BBDE87040186800F0D6BA56
:1029F0004FF4B8713D48FDF75BFC002D3FF440AF4C
:102A00003FE75A68D968D16202221A70002D3FF45C
:102A100032AF40F235113548FDF74AFC2BE7D3E9D8
:102A20000112520042F00102012603204E6018708C
:102A3000CA62002D3FF41FAF01234B60CA62A20699
:102A400004F480757FF51BAF4FF4B0712748FDF794
:102A50002FFC002D3FF414AF13E704221A70002D51
:102A60003FF409AF4FF49E712048FDF721FC02E7C7
:102A70004FF48B711D48FDF71BFCFBE640F219116A
:102A80001A48FDF715FCF5E640F213111748FDF75B
:102A90000FFCEFE640F201111448FDF709FCE9E6EE
:102AA000D3E90112520042F00102C5E74FF4CE71A2
:102AB0000E48BDE87040FDF7FBBB4FF48E710B482C
:102AC000FDF7F6FBD6E640F273110848FDF7F0FB80
:102AD000002D3FF4D5AED4E640F245110348FDF792
:102AE000E7FBC8E600C000402002002014600000A0
:102AF0001C02002010B500210446FFF749FA636B61
:102B0000002BFCD10420BDE8104000F02FBB00BF1B
:102B1000F0B5464B2DED028B984285B004460E462B
:102B20007ED0A368D90777D401236360636B002B41
:102B3000FCD1A368DA076AD50223012130786360EB
:102B4000002372788DF80330ADF804308DF808302A
:102B50008DF8021003238DF80100694620468DF898
:102B600000208DF806308DF80730FFF727FA656BE7
:102B7000002DFCD196ED027A9FED2D8A27EE087A82
:102B80002946FCEEC77A204617EE902AFFF7E0F9B7
:102B9000D6ED037AE56067EE887A0121FCEEE77AEC
:102BA000204617EE902AFFF7D3F901273379706991
:102BB000F169726AA7612364B3786364E56240EAED
:102BC0000103357C1343A36215B1E36A0343E36257
:102BD000337E13B1E36A0B43E36296F8203013B1FE
:102BE000E36A1343E362134B134E4FF000651D601D
:102BF000A368124D124C3060DB072960226002D5B9
:102C0000042000F09FFA05B0BDEC028BF0BD52210C
:102C10000C48FDF74DFB8FE72046FFF76BFF83E77E
:102C200001210948FDF7F2FB7BE700BF006004408B
:102C300000007A4400E100E03C0200204002002055
:102C400044020020306000008006160010B50446E3
:102C500019B18268D20707D510BD8368DB07FBD5A1
:102C6000BDE81040FFF746BF0121FFF791F9636B04
:102C7000002BFCD10420BDE8104000F063BA00BF77
:102C80001C4B10B51C6ADA6A1440E2079C6206D538
:102C90001B6ADB0724D4184B186800F07FF9A007E3
:102CA00007D5144B1B6A99071FD4144B186800F002
:102CB00075F9620709D50F4B1B6A5B0706D4104BE9
:102CC000BDE81040186800F069B910BD0D48E0215A
:102CD000FDF7EEFA0A4BBDE81040186800F05EB947
:102CE000D4210848FDF7E4FAD5E7DA210548FDF7D5
:102CF000DFFADAE7006004403C02002040020020D6
:102D0000440200203060000070B5624B984284B0ED
:102D100004460D4600F0B8802369D80700F1898089
:102D200001232361636C002BFCD12369D90740F197
:102D3000998000232361636C002BFCD1D5E90A2024
:102D4000554B56491A602A682B7908606979A87929
:102D500002928DF80C30AA682B7B8DF800108DF84C
:102D60000D006946204601928DF80E30FFF7A6F956
:102D7000636C002BFCD195F82520002A35D195F8FD
:102D80002410002938D16B69A365D5E90760A36DCC
:102D90003343A365636D00285BD043F00203636592
:102DA000AB69002B40D0636D43F001036365802362
:102DB0006360636C002BFCD140236360636C002B69
:102DC000FCD10320A3636063A36B324843F001038B
:102DD0008442A36341D0A368E9B1D8074DD5A36865
:102DE0008AB19A0743D504B070BDA3689B07C6D4C7
:102DF000A3689B07F9D5C2E7A368DE07C3D4A3681D
:102E0000DE07F9D5BFE79B07EDD5B9212448FDF7CB
:102E10004FFA04B070BDD907E1D5B3212048FDF7C2
:102E200047FA95F82520DAE7636D23F0010363651F
:102E3000BDE7236923F001032361636C002BFCD100
:102E40002369DA077FF57AAF65211548FDF730FA77
:102E500074E723F002036365A2E7124B4FF480008E
:102E60001860B8E75D210E48FDF722FA61E7B72147
:102E70000B48FDF71DFA04B070BDB1210848FDF7FD
:102E800017FA95F82520AAE701210748FDF7BEFAB1
:102E900042E700BF00A00440E0020020E80200205A
:102EA0005060000000E100E090171A0070B5044681
:102EB000032015460E4600F045F9094A094B1460F7
:102EC0003146012208481A7001F0F4FAA36B074852
:102ED0000749056043F002030022A3630A6070BD46
:102EE00050020020E4020020540200204C02002086
:102EF0004802002030B4104B104C196822688A42F6
:102F000009D3826B0E49002322F0020282630B7008
:102F1000184630BC70470B4B9D5CC36A9B07FCD5C1
:102F20008562436C002BFCD1013291422260E8D9CA
:102F3000012030BC704700BF4C0200204802002036
:102F4000E4020020540200200D4B10B5DC6A9A6B9D
:102F50001440A2075C6305D4E30702D5094B1B7834
:102F60002BB110BD084B1868FFF7C4FFF4E703202E
:102F700000F0FCF8054BBDE81040186800F00EB8F2
:102F800000A00440E402002050020020E8020020DB
:102F9000014B00221A607047B802002072B6034A43
:102FA00013680343136062B6704700BFB802002085
:102FB00072B6034A136823EA0003136062B67047CF
:102FC000B8020020014B1868704700BFB80200200B
:102FD00070B58AB00B210123022201910A2400213D
:102FE0008DF800208DF8082003948DF810308DF8AE
:102FF00011308DF818308DF821308DF82030079180
:10300000084E094805964FF470650F2408236A4658
:1030100004A9ADF82450ADF82240FFF757FB0AB0E1
:1030200070BD00BFDDFB050000C0004000B583B0EF
:10303000064B019302230093F3220123402104480D
:10304000FFF7E6FB03B05DF804FB00BFBC02002005
:1030500000C0004000000000214B186810B507EECA
:10306000900AF8EE677A86B017EE900A00F0A8FA98
:1030700015A3D3E9002300F0FBFA0022194B00F05E
:10308000F7FA13A3D3E9002300F03AF900F002FDA8
:1030900000F096FA10A3D3E9002300F0E9FA002229
:1030A000114B00F02FF900F0F5FC044600F088FA0F
:1030B00002460B4601A80D4901F0DCF901A8FFF713
:1030C00005F9204606B010BDD7A3703D0AF765404C
:1030D000CDCCCCCCCC6C4740CDCCCCCCCCCCFC3FFC
:1030E000BC0200200000F03E000040407060000084
:1030F000034B0022C3E90022C3E902221A61704790
:10310000C00200200D4B1A68002A00DD70475A6883
:10311000002AFBDC9A68002A06DD094A136923F0BD
:103120000403136130BF7047DB68002B4FF00100D0
:1031300001DDFEF725B9FEF749B900BFC002002046
:1031400000ED00E008B572B6064A52F820300133AF
:10315000092B42F8203003DD94210348FDF7A8F83D
:1031600062B608BDC00200208060000008B572B6DB
:10317000074A52F82030013B002B42F8203001DB97
:1031800062B608BDA6210348FDF792F862B608BDF5
:10319000C00200208060000080B54E4C4E4F94E885
:1031A0000F008AB0103401AE86E80F000FCC05ADD9
:1031B0000FC522682A80494B01227A64DB6C1B0E02
:1031C00040F08580464947484AF6E8520A6002685E
:1031D00042F0040202600B60434A136843F4005358
:1031E0001360424A136A23F4441343F488131362AE
:1031F0000024304602258DF800408DF80140FEF78E
:103200005BFB68468DF80150FEF786F905A8FDF7CF
:10321000EDFE3748FDF728FB012211460320FDF79C
:10322000C5FC05211120FDF775FD224621462846E3
:10323000FDF7BCFCFEF796FFFFF7C4FEC6061BD4E5
:1032400040212C48FDF734F816E0FFF7BBFEE8B14B
:10325000FFF7B8FEC4071FD4FFF7B4FE800721D4E0
:10326000FFF7B0FE410723D4FFF7ACFE020725D4D9
:10327000FFF7A8FE830627D4FFF7A4FEC506E4D512
:10328000FEF7DCFFFFF79EFE0028E1D1FFF73AFFD3
:10329000FFF798FEC407DFD5FEF780FFFFF792FE29
:1032A0008007DDD5FEF786FFFFF78CFE4107DBD5F3
:1032B000FEF78CFFFFF786FE0207D9D5FEF798FFD1
:1032C000FFF780FE8306D7D5FEF7C4FFD4E7012BB6
:1032D00087D181E7A860000000000E40B081E00FB8
:1032E00090310E4098310E4064310E4000400E4047
:1032F00080BA8C01CC60000081F0004102E000BF88
:1033000083F0004330B54FEA41044FEA430594EAA5
:10331000050F08BF90EA020F1FBF54EA000C55EAE0
:10332000020C7FEA645C7FEA655C00F0E2804FEAB1
:103330005454D4EB5555B8BF6D420CDD2C4480EA93
:10334000020281EA030382EA000083EA010180EAC3
:10335000020281EA0303362D88BF30BD11F0004F11
:103360004FEA01314FF4801C4CEA113102D0404247
:1033700061EB410113F0004F4FEA03334CEA133382
:1033800002D0524263EB430394EA050F00F0A7809A
:10339000A4F10104D5F1200E0DDB02FA0EFC22FA95
:1033A00005F2801841F1000103FA0EF2801843FA89
:1033B00005F359410EE0A5F120050EF1200E012A7A
:1033C00003FA0EFC28BF4CF0020C43FA05F3C018B8
:1033D00051EBE37101F0004507D54FF0000EDCF131
:1033E000000C7EEB00006EEB0101B1F5801F1BD3DA
:1033F000B1F5001F0CD349085FEA30004FEA3C0CDE
:1034000004F101044FEA445212F5800F80F09A80D3
:10341000BCF1004F08BF5FEA500C50F1000041EBD7
:10342000045141EA050130BD5FEA4C0C404141EBDB
:10343000010111F4801FA4F10104E9D191F0000F02
:1034400004BF01460020B1FA81F308BF2033A3F185
:103450000B03B3F120020CDA0C3208DD02F1140C7C
:10346000C2F10C0201FA0CF021FA02F10CE002F1B7
:103470001402D8BFC2F1200C01FA02F120FA0CFCB0
:10348000DCBF41EA0C019040E41AA2BF01EB0451F9
:10349000294330BD6FEA04041F3C1CDA0C340EDCF7
:1034A00004F11404C4F1200220FA04F001FA02F33A
:1034B00040EA030021FA04F345EA030130BDC4F1F8
:1034C0000C04C4F1200220FA02F001FA04F340EAED
:1034D0000300294630BD21FA04F0294630BD94F09E
:1034E000000F83F4801306BF81F480110134013D85
:1034F0004EE77FEA645C18BF7FEA655C29D094EAF6
:10350000050F08BF90EA020F05D054EA000C04BF73
:103510001946104630BD91EA030F1EBF002100205E
:1035200030BD5FEA545C05D14000494128BF41F0FD
:10353000004130BD14F580043CBF01F5801130BD61
:1035400001F0004545F0FE4141F470014FF00000EC
:1035500030BD7FEA645C1ABF194610467FEA655C9D
:103560001CBF0B46024650EA013406BF52EA03353F
:1035700091EA030F41F4002130BD00BF90F0000F2D
:1035800004BF0021704730B54FF4806404F1320469
:103590004FF000054FF0000150E700BF90F0000F22
:1035A00004BF0021704730B54FF4806404F1320449
:1035B00010F0004548BF40424FF000013EE700BF19
:1035C00042004FEAE2014FEA31014FEA02701FBFA9
:1035D00012F07F4393F07F4F81F06051704732F0DB
:1035E0007F4208BF704793F07F4F04BF41F4002132
:1035F000704730B54FF4607401F0004521F0004190
:103600001CE700BF50EA010208BF704730B54FF019
:1036100000050AE050EA010208BF704730B511F01A
:10362000004502D5404261EB41014FF4806404F152
:1036300032045FEA915C3FF4D8AE4FF003025FEAD8
:10364000DC0C18BF03325FEADC0C18BF033202EB5C
:10365000DC02C2F1200300FA03FC20FA02F001FAB6
:1036600003FE40EA0E0021FA02F11444BDE600BF59
:1036700070B54FF0FF0C4CF4E06C1CEA11541DBF08
:103680001CEA135594EA0C0F95EA0C0F00F0DEF8D3
:103690002C4481EA030621EA4C5123EA4C5350EAB8
:1036A000013518BF52EA033541F4801143F4801309
:1036B00038D0A0FB02CE4FF00005E1FB02E506F09A
:1036C0000042E0FB03E54FF00006E1FB03569CF0EF
:1036D000000F18BF4EF0010EA4F1FF04B6F5007FF5
:1036E00064F5407404D25FEA4E0E6D4146EB060667
:1036F00042EAC62141EA55514FEAC52040EA5E50F0
:103700004FEACE2EB4F1FD0C88BFBCF5E06F1ED899
:10371000BEF1004F08BF5FEA500E50F1000041EBD0
:10372000045170BD06F0004646EA010140EA02007D
:1037300081EA0301B4EB5C04C2BFD4EB0C0541EA9F
:10374000045170BD41F480114FF0000E013C00F3B4
:10375000AB8014F1360FDEBF002001F0004170BDD8
:10376000C4F10004203C35DA0C341BDC04F11404F1
:10377000C4F1200500FA05F320FA04F001FA05F27D
:1037800040EA020001F0004221F0004110EBD3704A
:1037900021FA04F642EB06015EEA430E08BF20EA76
:1037A000D37070BDC4F10C04C4F1200500FA04F319
:1037B00020FA05F001FA04F240EA020001F00041AB
:1037C00010EBD37041F100015EEA430E08BF20EA1E
:1037D000D37070BDC4F1200500FA05F24EEA020E66
:1037E00020FA04F301FA05F243EA020321FA04F095
:1037F00001F0004121FA04F220EA020000EBD3704C
:103800005EEA430E08BF20EAD37070BD94F0000F4B
:103810000FD101F00046400041EB010111F4801F7F
:1038200008BF013CF7D041EA060195F0000F18BF30
:10383000704703F00046520043EB030313F4801F6C
:1038400008BF013DF7D043EA0603704794EA0C0F26
:103850000CEA135518BF95EA0C0F0CD050EA41063C
:1038600018BF52EA4306D1D181EA030101F00041B9
:103870004FF0000070BD50EA410606BF10461946E1
:1038800052EA430619D094EA0C0F02D150EA0136ED
:1038900013D195EA0C0F05D152EA03361CBF10462E
:1038A00019460AD181EA030101F0004141F0FE41CD
:1038B00041F470014FF0000070BD41F0FE4141F451
:1038C000780170BD70B54FF0FF0C4CF4E06C1CEA51
:1038D00011541DBF1CEA135594EA0C0F95EA0C0F06
:1038E00000F0A7F8A4EB050481EA030E52EA0335C1
:1038F0004FEA013100F088804FEA03334FF08055E2
:1039000045EA131343EA12634FEA022245EA11150E
:1039100045EA10654FEA00260EF000419D4208BFBF
:10392000964244F1FD0404F5407402D25B084FEA6C
:103930003202B61A65EB03055B084FEA32024FF418
:1039400080104FF4002CB6EB020E75EB030E22BF75
:10395000B61A754640EA0C005B084FEA3202B6EB35
:10396000020E75EB030E22BFB61A754640EA5C00E4
:103970005B084FEA3202B6EB020E75EB030E22BF74
:10398000B61A754640EA9C005B084FEA3202B6EB75
:10399000020E75EB030E22BFB61A754640EADC0034
:1039A00055EA060E18D04FEA051545EA16754FEA96
:1039B00006164FEAC30343EA52734FEAC2025FEAB4
:1039C0001C1CC0D111F4801F0BD141EA00014FF043
:1039D00000004FF0004CB6E711F4801F04BF014314
:1039E0000020B4F1FD0C88BFBCF5E06F3FF6AFAE30
:1039F000B5EB030C04BFB6EB020C5FEA500C50F1C0
:103A0000000041EB045170BD0EF0004E4EEA113142
:103A100014EB5C04C2BFD4EB0C0541EA045170BD49
:103A200041F480114FF0000E013C90E645EA060E8D
:103A30008DE60CEA135594EA0C0F08BF95EA0C0FBB
:103A40003FF43BAF94EA0C0F0AD150EA01347FF403
:103A500034AF95EA0C0F7FF425AF104619462CE7DA
:103A600095EA0C0F06D152EA03353FF4FDAE10463D
:103A7000194622E750EA410618BF52EA43067FF48E
:103A8000C5AE50EA41047FF40DAF52EA43057FF41E
:103A9000EBAE12E74FEA4102B2F1E04324BFB3F5C7
:103AA000001CDCF1FE5C0DD901F0004C4FEAC002B5
:103AB0004CEA5070B2F1004F40EB830008BF20F099
:103AC0000100704711F0804F21D113F13872BCBF53
:103AD00001F00040704741F480114FEA5252C2F1A8
:103AE0001802C2F1200C10FA0CF320FA02F018BFF1
:103AF00040F001004FEAC1234FEAD32303FA0CFC44
:103B000040EA0C0023FA02F34FEA4303CCE77FEAD2
:103B1000625307D150EA01331EBF4FF0FE4040F41C
:103B20004000704701F0004040F0FE4040F40000CB
:103B3000704700BF08B5074B044613B10021AFF32F
:103B40000080054B1868836A03B19847204602F04D
:103B5000E9F800BF00000000DC60000070B50D4E09
:103B60000D4CA41BA4100025A54209D10B4E0C4CF2
:103B700002F0A0F9A41BA4100025A54205D170BD38
:103B800056F8253098470135EEE756F82530984726
:103B90000135F2E7E4010020E4010020E401002007
:103BA000E801002002440346934200D1704703F825
:103BB000011BF9E72DE9F04788B0002B149F109EF8
:103BC000DDE9121A1D4627F02007BBBF03F10043B1
:103BD0001D4600232D231446B8BF1446462F0B70F4
:103BE00004D0452F00D10136022300E0032307AAA9
:103BF000049206AACDE902A2CDE9003622462B4660
:103C000000F0F6FC472F804602D1119BDB0726D53A
:103C1000462F08EB060911D198F80030302B0AD155
:103C2000002200232046294602F0D4F818B9C6F134
:103C30000106CAF80060DAF8003099440022002337
:103C40002046294602F0C6F838B93022079B4B457A
:103C500005D2591C07911A70F8E7CDF81C90079B04
:103C6000159AA3EB08034046136008B0BDE8F0873F
:103C7000F7B500290446BABF49422D232B23092951
:103C800004F8022B437020DD0DF107031F460A26BE
:103C900091FBF6F506FB15113031092D03F8011CD7
:103CA00003F1FF32294609DC3031023B02F8011CE6
:103CB000BB42224604D3101A03B0F0BD1346E7E717
:103CC00013F8012B04F8012BF2E730231944837019
:103CD000021DC170EFE700002DE9F04F91B00C46D6
:103CE000DDF8688016461F46054601F03FFA036876
:103CF0000893184600F0E6FB00230E93D8F8003036
:103D00000990073323F0070303F1080294F818A081
:103D1000D4F800B0C8F80020D3E90023C4E9122386
:103D2000D4E9128929F000430B93CDF828804FF095
:103D3000FF32A94BDDE90A0102F07EF870BB4FF0BB
:103D4000FF32A54BDDE90A0102F058F830BB002232
:103D500000234046494602F047F810B12D2384F86D
:103D600043309E4A9E4BBAF1470F8CBF904698460F
:103D7000032323612BF0040323604FF00009009715
:103D800033460FAA2146284600F0ECF9013040F0F6
:103D900090804FF0FF3011B0BDE8F08F42464B46A7
:103DA0004046494602F048F810B18E4A8E4BDAE799
:103DB0006368591C4BF480620EA90DA840D10623FC
:103DC00063600DF13303CDE901234FF0000C63680C
:103DD0002260CDE9030A009342464B46CDE9051C1B
:103DE0002846FFF7E7FE0AF0DF03472B804609D19C
:103DF0000D9BD81C02DB6268934247DDAAF1020AE0
:103E00005FFA8AFABAF1650F0D9924D80139524642
:103E100004F150000D91FFF72BFF0E9A1318012AA1
:103E20008146236102DC2268D10701D50133236179
:103E30009DF83330002BA2D02D2384F843309EE729
:103E4000BAF1670F00F07881BAF1470FB9D1002BB2
:103E5000B7D10123B4E7BAF1660F19D1002963681D
:103E60000CDD216113B92268D20702D501330B445E
:103E700023610D9BA3654FF00009D9E713B92268B0
:103E8000D00701D50233F3E70123F1E74FF0670ACA
:103E9000DDE90D32934205DB22682361D107E8D5C5
:103EA0000133E5E7002BD4BFC3F102030123134420
:103EB000DEE723685A0507D423694246314628467F
:103EC000B84701302BD164E7BAF1650F40F2DD80CD
:103ED00000220023D4E9120101F07CFF002833D036
:103EE0000123424A31462846B84701303FF451AFDA
:103EF000DDE90D239A4202DB2368D8070FD5DDE9FF
:103F0000082331462846B84701303FF442AF4FF00E
:103F1000000804F11A090E9B013B434509DC2368A4
:103F20009B0700F10481E0680F9B9842B8BF1846D8
:103F300031E701234A4631462846B84701303FF46D
:103F400028AF08F10108E6E70D9B002B2BDC0123CD
:103F5000264A31462846B84701303FF41AAF0D9B38
:103F600023B90E9B13B92368D907D8D5DDE90823F7
:103F700031462846B84701303FF40BAF4FF00009F7
:103F800004F11A0A0D9B5B424B4501DC0E9B94E742
:103F90000123524631462846B84701303FF4F9AE76
:103FA00009F10109EEE70E9AA36D9A42A8BF1A46DD
:103FB000002A914607DD1346314642462846B84757
:103FC00001303FF4E6AE04F11A034FF0000B29EA8A
:103FD000E9790A9316E000BFFFFFEF7FE46000007D
:103FE000E0600000EC600000E8600000F0600000AD
:103FF00001230A9A31462846B84701303FF4C9AE3A
:104000000BF1010BD4F858A0AAEB09035B45EFDCD8
:10401000DDE90D239A42D04415DB2368DA0712D478
:104020000E9B0D99A3EB0A02A3EB010A9245A8BFD0
:104030009246BAF1000F0EDC4FF000082AEAEA7A45
:1040400004F11A0919E0DDE9082331462846B8478A
:104050000130E5D19DE65346424631462846B847F1
:104060000130E9D195E601234A4631462846B84752
:1040700001303FF48EAE08F10108DDE90D239B1AF3
:10408000A3EB0A034345EEDC49E70E9A012A01DC63
:10409000DB073AD50123424631462846B84701306E
:1040A0003FF477AEDDE9082331462846B8470130B2
:1040B00008F101083FF46DAE0E9B002203F1FF3AB8
:1040C000D4E91201002301F085FEC8B953464246E7
:1040D00031462846B84701300ED15AE601235246F0
:1040E00031462846B84701303FF453AE08F1010885
:1040F0000E9B013B4345F1DC4B4604F15002DDE6EB
:104100004FF0000804F11A0AF2E70123DFE7012368
:104110004A4631462846B84701303FF43AAE08F1E6
:104120000108E3680F9A9B1A4345F0DCFBE64FF069
:10413000000804F11909F4E7002B3FF48AAE4FF0B0
:10414000000CCDE9051C0DF133012260CDE9030A15
:10415000CDE90121009342464B462846FFF72AFD50
:10416000804645E62DE9F04791461F468A680B696F
:10417000DDF820809342B8BF1346C9F8003091F8AB
:10418000432006460C4612B10133C9F800302368BB
:10419000990642BFD9F800300233C9F800302568CB
:1041A00015F0060507D104F1190AE368D9F80020D3
:1041B0009B1AAB4228DC94F843302268003318BFC6
:1041C000012392062DD404F1430239463046C047FC
:1041D000013020D02368E568D9F8002003F00603F9
:1041E000042B08BFAD1AA36822690CBF25EAE57548
:1041F00000259342C4BF9B1AED184FF000091A34F2
:104200004D451AD1002008E0012352463946304678
:10421000C047013003D14FF0FF30BDE8F0870135D2
:10422000C3E7E1185A1C302081F84300224494F877
:10423000451082F843100233C5E701232246394670
:104240003046C0470130E6D009F10109D8E7000047
:104250002DE9F04301F1430C0C46097E85B06E292F
:104260001746064698460C9A00F0B38022D8632978
:1042700036D00AD8002900F0B980582900F0838090
:1042800004F1420584F8421032E0642901D0692922
:10429000F6D120681368050603F104012AD51B68CE
:1042A0001160002B03DA2D225B4284F843206F4813
:1042B0000A2239E0732900F09D8008D86F2920D0A8
:1042C0007029DDD1236843F02003236003E07529C2
:1042D00017D07829D4D1782384F84530644855E044
:1042E0001368191D1B68116004F1420584F84230FF
:1042F00001238CE01B68116010F0400F18BF1BB247
:10430000CFE713682568181D1060280601D51B68C3
:1043100002E06806FBD51B8854486F2914BF0A22A7
:104320000822002184F843106568A560002DC0F2C2
:104330009580216821F004012160002B3DD1002DE2
:1043400040F08E806546082A0BD12368DB0708D52C
:10435000236962689A42DEBF302305F8013C05F10B
:10436000FF35ACEB05032361CDF800803B4603AA83
:1043700021463046FFF7F6FE01304DD14FF0FF30B9
:1043800005B0BDE8F083394884F84510136821680A
:104390001D1D1B6815600A060BD5CA0744BF41F0F6
:1043A000200121601BB9226822F020022260102225
:1043B000B7E74D0648BF9BB2EFE76546B3FBF2F1A6
:1043C00002FB1133C35C05F8013D0B460029F5D112
:1043D000B9E7136825686169181D106028061B6815
:1043E00001D5196002E06A06FBD51980002323611C
:1043F0006546B9E71368191D11601D6862680021E0
:10440000284600F0CDFE08B1401B60606368236160
:10441000002384F84330A7E723692A46394630460B
:10442000C0470130AAD023689B0713D4E068039BE0
:104430009842B8BF1846A3E701234A46394630469A
:10444000C04701309AD00135E368039A9B1AAB420A
:10445000F2DCEBE7002504F11909F5E7002BACD1FC
:10446000037884F8423004F142056CE7F260000002
:10447000036100000EB400B59CB01DAB0290069025
:104480006FF00041094807910491094953F8042B42
:1044900005910068019302A901F0C8FA029B00226D
:1044A0001A701CB05DF804EB03B0704714000020D4
:1044B0000802FFFF034611F8012B03F8012B002A25
:1044C000F9D17047034613F8012B002AFBD1181AC3
:1044D000013870472DE9F74F03690C69A342804604
:1044E000C0F28280013C01F114074FEA840C00F114
:1044F000140657F8245056F8240006EB0C03013537
:1045000007EB0C090193B0FBF5F595B34FF0000AEA
:104510003846B646D34650F8042B93B205FB03A3A6
:104520004FEA134A9BB2ABEB0303120CDEF800B068
:1045300005FB02A213FA8BF34FEA124A1FFA82FB21
:10454000DEF80020CBEB124202EB23429BB243EA9F
:10455000024381454FEA224B4EF8043BDBD256F82A
:104560000C3033B9019B043B9E421A4630D3C8F845
:104570001040404601F084F8002825DB0135304624
:104580004FF0000C57F8042BD0F800E093B2ACEBDE
:104590000303120C13FA8EF3C2EB1E4202EB23420A
:1045A0009BB243EA0243B9454FEA224C40F8043B30
:1045B000E8D256F8242006EB84032AB9043B9E4235
:1045C0001A460BD3C8F81040284603B0BDE8F08F58
:1045D0001268043B002ACAD1013CC5E71268043BBB
:1045E000002AEFD1013CEAE70020EEE700000000DE
:1045F0002DE9F04F456A97B016461F460446DDF890
:104600008C80CDE902673DB9102000F0BDFD6062ED
:10461000C0E901550560C560636A196851B15A68FF
:104620004A60012393408B60204600F048FE636A95
:1046300000221A603B1EBBBF23F0004303930023FC
:104640000122ACBFC8F80030C8F80020B24BDDF83A
:104650000C8033EA08031BD1229A42F20F731360D5
:10466000029B23B9C8F31300002800F04F85249B58
:1046700053B9AA4B21E0AA4B05930833249A13603F
:10468000059817B0BDE8F08FA44B05930333F5E709
:10469000DDE90267002200233046394601F09AFB2B
:1046A000824660B1229A01231360249B002B00F004
:1046B0002A859C4B249A1360013B0593E0E714ABD9
:1046C000019315AB009332463B46204601F04FF86C
:1046D000C8F30A558346002D7CD0C7F3130343F07B
:1046E0007F59B04649F44019A5F2FF35CDF84CA0EA
:1046F00000228D4B40464946FEF702FE80A3D3E9D7
:104700000023FEF7B5FF80A3D3E90023FEF7FAFDEF
:10471000064628460F46FEF741FF7DA3D3E9002356
:10472000FEF7A6FF02460B4630463946FEF7EAFD85
:1047300006460F4601F096FB0022824600233046D3
:10474000394601F051FB48B15046FEF727FF32468B
:104750003B4601F03FFB08B90AF1FF3ABAF1160FE8
:1047600059D8724901EBCA01DDE90223D1E9000100
:1047700001F058FB002850D00AF1FF3A00231293B1
:10478000149B5D1BB5F1010849BFC5F1010300236E
:1047900008934FF0000858BF0893BAF1000F3EDBB2
:1047A0000023D044CDF834A00993209B092B00F2BC
:1047B0009080052BC4BF043B2093209BA3F10203F0
:1047C000CCBF00250125032B00F28F80DFE803F02A
:1047D0007D7F3171DDE914531D4405F232402028FC
:1047E00013DDC0F14000029B08FA00F805F2124008
:1047F00023FA00F048EA0000FEF7C0FE01238046DD
:10480000A1F1F879013D139372E7029BC0F12000FA
:1048100003FA00F0F0E70123B1E71290B0E7089B3C
:10482000A3EB0A030893CAF10003099300230D9335
:10483000BBE701230C93219B002B59DD069399467E
:10484000666A00227260042202F1140098427168C4
:1048500070D9204600F0FFFC636A30601B68059346
:10486000B9F10E0F00F2EB80002D00F0E8809DED15
:10487000027BBAF1000F8DED107B79DD2B4A0AF037
:104880000F0302EBC30393ED007B4FEA2A16F006F9
:104890008DED0A7B6AD5264BDDE91001D3E90823AB
:1048A000FFF710F8CDE9020106F00F060325204FAF
:1048B00051E001230C93219B534403F1010906931A
:1048C0004B46012BB8BF0123BAE70023B2E7002310
:1048D000F0E70125002320930C954FF0FF3306935A
:1048E0009946002212232192AAE701230C93F4E7B0
:1048F0000123069399461A46F5E700BFAFF30080FF
:1049000061436F63A787D23FB3C8608B288AC63FD5
:10491000FB799F501344D33F0000F07F1D610000DE
:1049200014610000F16000000000F83F50610000D9
:104930002861000001317160520085E7F10708D558
:10494000DDE90A01D7E90023FEF792FECDE90A016D
:10495000013576100837002EF0D1DDE90A23DDE9B4
:104960000201FEF7AFFFCDE902011AE002259EE742
:1049700000F0A080CAF100069F4BA04F06F00F0286
:1049800003EBC203D3E90023DDE91001FEF770FE5B
:10499000CDE90201361100230225002E7FD1002B24
:1049A000E1D1129B002B00F08780DDE90267002235
:1049B000934B3046394601F017FA00287CD0B9F104
:1049C000000F79D0069B002B35DD0AF1FF330A93E7
:1049D000394600228B4B3046FEF74AFECDE90201F4
:1049E000069F01352846FEF7D9FDDDE90223FEF7D3
:1049F0003FFE0022844BFEF785FC0546A1F1507670
:104A0000002F5DD10022814BDDE90201FEF778FC29
:104A10002A463346CDE9020101F004FA002840F0AD
:104A200088822A4606F10043DDE9020101F0DCF943
:104A3000002840F07C82DDE91023CDE90223159B9C
:104A4000002BC0F25081BAF10E0F00F34C816A4B7B
:104A500003EBCA0393ED007B219B002B8DED067BBE
:104A600080F2D880B9F1000F00F3D48040F05E826C
:104A70000022664B51EC170BFEF7FAFDDDE902232D
:104A800001F0C6F94F464E46002840F03482059B9F
:104A9000059A5D1C312313700AF1010A2FE2F20717
:104AA00005D5D7E90023FEF7E3FD01350123761094
:104AB000083772E7022574E7CDF828A04F4691E742
:104AC0004D4B03EBC70353E902010C9B002B47D06E
:104AD00002460B4600204E49FEF7F4FE2A463346B6
:104AE000FEF70EFCCDE90E01059DDDE9020101F0A6
:104AF000B9F90646FEF752FD02460B46DDE9020112
:104B0000FEF7FEFB303605F8016BDDE90E23CDE93B
:104B1000020101F069F9002863D1DDE902230020D8
:104B20003749FEF7EDFBDDE90E2301F05DF90028C2
:104B300040F0B780059BEB1A9F427FF77CAF0022C5
:104B4000304BDDE90E01FEF793FD0022CDE90E01A9
:104B50002C4BDDE90201FEF78BFDCDE90201C4E734
:104B600033462A46FEF784FD059BCDE90E01DD198B
:104B70001E46DDE9020101F075F90746FEF70EFD5C
:104B8000303702460B46DDE90201FEF7B9FB06F8B5
:104B9000017BAE42CDE902014FF0000226D11C4B51
:104BA000DDE90E01FEF7AEFB02460B46DDE9020130
:104BB00001F038F9002874D1DDE90E2300201449F2
:104BC000FEF79EFB02460B46DDE9020101F00CF9FF
:104BD00000283FF430AF15F8013C302B05F1FF32CF
:104BE00002D0DDF828A04AE01546F4E7054BFEF7B1
:104BF0003FFDCDE90201BCE75061000028610000E3
:104C00000000F03F0000244000001C400000144061
:104C10000000E03FDDE90267059DDDE9062330463F
:104C20003946FEF74FFE01F01DF98046FEF7B6FC4F
:104C3000DDE90623FEF71CFD02460B4630463946E9
:104C400008F13006FEF75CFB05F8016B059EAE1B14
:104C5000B14502460B4639D1FEF754FBDDE9062388
:104C600006460F4601F0DEF8C8B9DDE906233046F6
:104C7000394601F0AFF810B118F0010F0FD15946C5
:104C8000204600F01CFB0023229A2B700AF101033E
:104C90001360249B002B3FF4F3AC1D60F0E4CDF8CF
:104CA00028A015F8012C392A05F1FF3308D1059AFF
:104CB0009A4209D10A9B01330A9330231370134699
:104CC0001A7801321A708CE71D46EAE700229B4BE6
:104CD000FEF7CEFC0022002306460F4601F07AF8CC
:104CE00000289AD0CBE70C9A002A00F08B80209AFB
:104CF000012A6EDC139A002A67D003F23343DDE900
:104D00000857089A01211A4420460892984400F056
:104D100076FB0646002D0CDDB8F1000F09DD454598
:104D2000089A2B46A8BF4346D21A0892ED1AA8EB60
:104D30000308099BEBB10C9B002B67D08FB1314668
:104D40003A46204600F0FAFB5A46014606462046FF
:104D500000F05EFB59460A90204600F0B0FA0A9B2C
:104D60009B46099BDA1B04D05946204600F0E6FB1F
:104D700083460121204600F042FB0D9B0746002B95
:104D800000F0CB811A460146204600F0D7FB209B5D
:104D9000012B074640DC029B002B39D1039BC3F358
:104DA0001303002B36D1039B23F000431B0D1B057F
:104DB0002BB1089B0133089308F1010801230993E3
:104DC0000D9B002B2AD1012030E0149BC3F1360348
:104DD00095E7099B09F1FF37BB42BFBF099B0997C4
:104DE000FA1A0D9BBBBF9B180D93DF1B0027B9F16F
:104DF000000FB5BF089B089DA3EB09054B46B8BF44
:104E000000237EE7DDE908570C9E83E7099AABE7AC
:104E10000023D4E7029BD2E7002309933B6907EB09
:104E20008303186900F09DFAC0F12000404410F09F
:104E30001F0047D0C0F12003042B3BDD089BC0F1CD
:104E40001C000344089305448044089B002B05DDA7
:104E500059461A46204600F0BFFB8346B8F1000FC2
:104E600005DD39464246204600F0B6FB0746129B58
:104E700053B33946584600F003FC002824DA0023D7
:104E800059460A22204600F031FA0C9B0AF1FF3AFB
:104E90008346002B00F04881002331460A22204639
:104EA00000F024FA069B002B06464FDC209B022BC9
:104EB0004CDD11E0C9D0089A1C331A4408921D44F5
:104EC0009844C2E70346F6E7B9F1000F38DC209BAF
:104ED000022B35DDCDF81890069B63B939460522C3
:104EE000204600F003FA01460746584600F0C8FB8A
:104EF00000283FF7CCAD219B059D6FEA030A4FF0D8
:104F000000093946204600F0DAF9002E3FF4B7AE2A
:104F1000B9F1000F05D0B14503D04946204600F055
:104F2000CEF93146204600F0CAF9A8E600273E46F1
:104F3000E1E7DDF828A03E46A9E500BF00002440D7
:104F40000C9BCDF81890002B00F0F580002D05DDAE
:104F500031462A46204600F03FFB0646099B002BBF
:104F60004CD07168204600F076F93269023205466D
:104F7000920006F10C010C3000F062F90122294682
:104F8000204600F029FB059B0893029B03F00103D8
:104F9000B1460993064639465846FFF79BFA4946FB
:104FA000054600F13008584600F06AFB3246029090
:104FB0003946204600F07EFBC368024603BB01462B
:104FC0000A90584600F05CFB0A9A034611462046B8
:104FD0000A9300F074F90A9BA3B9209A92B9099A2E
:104FE00082B9B8F1390F29D0029B002B01DD05F100
:104FF0003108089B5D1C83F8008082E73046C2E7D9
:105000000123E3E7029A002A04DB24D1209A12BB91
:10501000099A02BB002BECDD59460122204600F024
:10502000DBFA3946834600F02BFB002803DCE0D195
:1050300018F0010FDDD0B8F1390FD8D1089B089ACC
:105040005D1C3923137015F8013C392B05F1FF3233
:105050004ED0013353E0089A002B02F1010506DD22
:10506000B8F1390FEAD008F10108089BC3E7059BA6
:10507000069A05F8018CEB1A934221D05946002379
:105080000A22204600F032F9B14583464FF0000372
:105090004FF00A024946204605D100F027F9814623
:1050A0000646089577E700F021F93146814600234E
:1050B0000A22204600F01AF90646F2E74FF00009EE
:1050C00059460122204600F087FA3946834600F00F
:1050D000D7FA0028B7DC02D118F0010FB3D115F8C8
:1050E000013C302B05F1FF327FF40BAF1546F6E79C
:1050F000059B934205D1059A0AF1010A31231370E9
:10510000FFE615469FE7174BFFF7D7BA249B002B06
:105110007FF4B1AA144BFFF7D0BA209B012B7FF785
:105120003AAE0D9B09934EE6069B002B03DC209BB9
:10513000022B3FF7D1AE059D39465846FFF7CAF915
:1051400000F1300805F8018B059B069AEB1A9A428C
:10515000B4DD594600230A22204600F0C7F88346F2
:10516000EAE700BFF060000014610000044B1B6818
:10517000186A044B002808BF1846F030704700BF7B
:105180001400002078000020024B0146186800F04F
:1051900099BB00BF140000200000000000000000C8
:1051A00001F0FF01102A2BDB10F0070F08D010F8D8
:1051B000013B013A8B422DD010F0070F42B3F6D1DC
:1051C000F0B441EA012141EA014122F007047FF0F5
:1051D00000070023F0E80256083C85EA010586EA4C
:1051E000010685FA47F5A3FA87F586FA47F6A5FA88
:1051F00087F68EB9EED1F0BC01F0FF0102F0070294
:1052000032B110F8013B013A83EA010313B1F8D13E
:105210000020704701387047002D06BF354603381F
:10522000073815F0010F07D1013015F4807F02BF58
:10523000013015F4C03F0130F0BC0138704700BFA9
:1052400010B5431E0A44914200D110BD11F8014B24
:1052500003F8014FF7E770B5456A04460E463DB9BD
:105260001020FFF791FF6062C0E901550560C5603D
:10527000656AEB6883B1636ADB6853F82600B8B9E6
:10528000012101FA06F56A1D9200204600F0BEFADF
:1052900060B1C0E901650EE021220421204600F042
:1052A000B5FA636AE860DB68002BE4D1002070BDCA
:1052B000026843F826200023C0E90333F7E770B5FE
:1052C000446A06460D463CB91020FFF75DFF706248
:1052D000C0E901440460C4603DB1736A6A68DB6878
:1052E00053F82210296043F8225070BD2DE9F04197
:1052F0000D691F4606460C4601F1140C0023DCF82C
:10530000000081B202FB01710F0C000C02FB007067
:1053100089B2013301EB00419D424FEA10474CF83E
:10532000041BECDCD7B1A368AB4212DC61683046E9
:105330000131FFF790FF2269023204F10C0180462F
:1053400092000C30FFF77CFF21463046FFF7B7FF95
:10535000444604EB850301355F6125612046BDE8C5
:10536000F081020C12040346B2B90304102013F0BA
:105370007F4F04BF1B02083013F0704F04BF1B01A6
:10538000043013F0404F04BF9B000230002B06DBBB
:105390005B0003D5013070470020E8E7202070470C
:1053A000036813F0070201460BD0DA0723D49807ED
:1053B00049BF5B089B0801200B605CBF0B600220AB
:1053C000704798B2A8B91B0C102013F0FF0F04BF50
:1053D0001B0A08301A0704BF1B0904309A0704BFD0
:1053E0009B080230DA0702D45B0806D001300B605C
:1053F00070471046E9E7002070472020704710B53D
:105400000C460121FFF727FF01224461026110BD14
:105410002DE9F74F14460A6923699A42B8BF0B4633
:105420008846BCBFA0461C46D8F81070D4F810902F
:10543000D8F80830D8F8041007EB0906B342B8BF13
:105440000131FFF708FF00F1140505EB860E2B462E
:105450000022734516D304F1140208F1140102EB83
:10546000890301EB87070093009B019293420CD8BC
:10547000002E03DD5EF8043D002B5DD0066103B015
:10548000BDE8F08F43F8042BE3E7B2F800B0BBF1BE
:10549000000F23D08946AC464FF0000859F8044B62
:1054A000DCF800A0A3B21FFA8AFA0BFB03A34FEAB1
:1054B000144ADCF8004043444FEA14480BFB0A84CA
:1054C00004EB1344E2469BB243EA04434F454FEAE0
:1054D00014484AF8043B2BD8CCF80480019BB3F85D
:1054E00002A00432BAF1000F20D02B688946A846EA
:1054F0004FF0000BB9F800C0B8F802400AFB0C44AA
:105500005C44C4469BB243EA04434CF8043B59F85C
:10551000043BB8F804B01B0C0AFB03B303EB1443C1
:105520004F454FEA134B05D8C8F8043004359BE7C4
:10553000D446B3E7E046DDE7013E99E72DE9F843BD
:10554000154612F0030206460F4607D0013A214CD9
:10555000002354F82220FFF7C9FE0746AD1035D0CE
:10556000746A3CB91020FFF70FFE7062C0E9014475
:105570000460C460D6F82480D8F808404CB940F2E2
:1055800071213046FFF73BFF0023C8F808000446AE
:1055900003604FF00008EB070AD539462246304633
:1055A000FFF736FF394681463046FFF788FE4F4603
:1055B0006D100BD0206838B9224621463046FFF7DF
:1055C00027FF2060C0F800800446E4E73846BDE8C5
:1055D000F88300BF186200002DE9F0470C464FEA3F
:1055E000621A236949680AEB0309A368074616464D
:1055F00009F10105AB4232DB3846FFF72CFE0023F0
:10560000804600F114011A4653452BDB20692AEA33
:10561000EA7A04F1140316F01F0201EB8A0103EB8E
:10562000800C25D0C2F1200E00201E688A469640CC
:1056300030434AF8040B53F8040B9C4520FA0EF053
:1056400014D8486008B109F10205013D3846C8F890
:1056500010502146FFF733FE4046BDE8F087013188
:105660005B00C7E741F823200133CDE75146DCE773
:10567000043953F8042B41F8042F9C45F9D8E4E78A
:1056800003690A699B1A30B50CD1920014301431A9
:105690008418114454F8045D51F8042D954203D048
:1056A00005D30123184630BDA042F3D3FAE74FF0EB
:1056B000FF33F7E72DE9F0470D4607461146284628
:1056C0001446FFF7DDFF061E08D131463846FFF7C6
:1056D000C2FD0123C0E90436BDE8F087A4BF23461C
:1056E0002C4638466168A6BF1D4600260126FFF7F6
:1056F000B2FD2B69C660266905F1140904F1140294
:1057000002EB860709EB830800F114054FF0000E49
:1057100052F804AB59F8044B1EFA8AF1A3B2C91A25
:10572000230CC3EB1A4303EB214389B24FEA234E08
:10573000C84541EA0343944645F8043BE8D8BC45D4
:1057400004D355F8043D83B10661C5E75CF8041B3A
:105750001EFA81F31A1402EB11429BB243EA024390
:105760004FEA224E45F8043BE9E7013EE9E72DE91F
:10577000F743012199469046DDE90A65FFF76BFD85
:10578000C9F30A540746C9F3130334BBB8F1000246
:10579000019327D002A840F8082DFFF701FE0099D9
:1057A000F0B1019AC0F1200302FA03F30B43C240A7
:1057B0007B610192019BBB61002B14BF022101217F
:1057C0003961C4B1A4F2334404443460C0F13500FB
:1057D0002860384603B0BDE8F08343F48013D5E772
:1057E0007961E7E701A8FFF7DBFD019B7B61012100
:1057F00039612030E5E707EB8103A0F232403060E9
:105800001869FFF7AEFDC0EB4110E1E738B502FBC8
:1058100001F4214600F056F8054618B12246002151
:10582000FEF7C0F9284638BD38B50546002945D0F1
:1058300051F8043C0C1F002BB8BFE41800F027FA05
:105840001F4A1368104633B9636014602846BDE8E8
:10585000384000F01DBAA3420CD921686218934267
:1058600004BF1A685B68636004BF5218226004605A
:10587000ECE713465A680AB1A242FAD919685818D7
:10588000A0420BD120680144581882421960DDD132
:10589000106852685A6001441960D7E702D90C2396
:1058A0002B60D3E7206821188A4204BF1168526830
:1058B000626004BF091821605C60C7E738BD00BFA3
:1058C000D402002070B5CD1C25F0030508350C2D41
:1058D00038BF0C25002D064601DBA94203D90C2355
:1058E0003360002070BD00F0D2F9214A14682146CF
:1058F00091B9204C23681BB9304600F08DF9206027
:105900002946304600F088F9431C24D10C2333602B
:10591000304600F0BDF9E4E70B685B1B18D40B2B95
:105920000FD90B60CD50CC18304600F0B1F904F11E
:105930000B00231D20F00700C31AD3D05A42E250B7
:10594000D0E78C424B6816BF636013600C46EBE7F0
:105950000C464968CCE7C41C24F00304A04205D0DF
:10596000211A304600F058F90130CFD02560DBE72E
:10597000D4020020D80200202DE9F0478E689E4214
:1059800082460C469046994637D88A8912F4906F21
:1059900031D0256809696F1A6569022305EB450551
:1059A00095FBF3F509F101033B449D4238BF1D46C9
:1059B000530530D52946FFF785FF064650B90C231D
:1059C000CAF80030A38943F04003A3814FF0FF30B1
:1059D000BDE8F0873A462169FFF732FCA38923F43A
:1059E000906343F08003A381266165613E44ED1B13
:1059F0002660A5604E464E4500D94E463246414689
:105A0000206800F02BF9A3689B1BA36023681E4449
:105A100026600020DCE72A4600F03BF90646002815
:105A2000E2D121695046FFF7FFFEC8E72DE9F04FAC
:105A30009DB0804603938B891D060C4616460FD5F4
:105A40000B696BB94021FFF73DFF2060206128B949
:105A50000C23C8F800304FF0FF30C7E040236361EB
:105A60000023099320238DF8293030238DF82A3024
:105A70004FF0010B37463D4615F8013B0BB1252B86
:105A80003ED1B7EB060A0BD053463246214640467C
:105A9000FFF772FF013000F0A480099B5344099383
:105AA0003B78002B00F09D8000234FF0FF32CDE9C2
:105AB0000523049307938DF853301A932F4605223C
:105AC00017F8011B4F48FFF76BFB049BD0B9D906B1
:105AD00044BF20228DF853201A0744BF2B228DF893
